{
  "address": "0xc57ECE4ebc492EA806fA468037a4ad6Df4652aa8",
  "abi": [
    {
      "inputs": [
        {
          "internalType": "address",
          "name": "_gateway",
          "type": "address"
        },
        {
          "internalType": "address",
          "name": "_gasReceiver",
          "type": "address"
        },
        {
          "internalType": "address",
          "name": "_usdc",
          "type": "address"
        },
        {
          "internalType": "address",
          "name": "_circleBridge",
          "type": "address"
        },
        {
          "internalType": "address",
          "name": "_wrappedNativeAddress",
          "type": "address"
        }
      ],
      "stateMutability": "nonpayable",
      "type": "constructor"
    },
    {
      "inputs": [],
      "name": "AlreadyForecalled",
      "type": "error"
    },
    {
      "inputs": [],
      "name": "InsufficientInput",
      "type": "error"
    },
    {
      "inputs": [],
      "name": "InvalidTrade",
      "type": "error"
    },
    {
      "inputs": [],
      "name": "NotApprovedByGateway",
      "type": "error"
    },
    {
      "inputs": [],
      "name": "TradeFailed",
      "type": "error"
    },
    {
      "inputs": [],
      "name": "TransferFailed",
      "type": "error"
    },
    {
      "anonymous": false,
      "inputs": [
        {
          "indexed": true,
          "internalType": "address",
          "name": "previousOwner",
          "type": "address"
        },
        {
          "indexed": true,
          "internalType": "address",
          "name": "newOwner",
          "type": "address"
        }
      ],
      "name": "OwnershipTransferred",
      "type": "event"
    },
    {
      "anonymous": false,
      "inputs": [
        {
          "indexed": true,
          "internalType": "bytes32",
          "name": "traceId",
          "type": "bytes32"
        },
        {
          "indexed": false,
          "internalType": "uint256",
          "name": "amount",
          "type": "uint256"
        },
        {
          "indexed": false,
          "internalType": "address",
          "name": "refundAddress",
          "type": "address"
        }
      ],
      "name": "SwapFailed",
      "type": "event"
    },
    {
      "anonymous": false,
      "inputs": [
        {
          "indexed": true,
          "internalType": "bytes32",
          "name": "traceId",
          "type": "bytes32"
        },
        {
          "indexed": true,
          "internalType": "bytes32",
          "name": "payloadHash",
          "type": "bytes32"
        },
        {
          "indexed": false,
          "internalType": "uint256",
          "name": "amount",
          "type": "uint256"
        },
        {
          "indexed": false,
          "internalType": "string",
          "name": "destinationChain",
          "type": "string"
        },
        {
          "indexed": false,
          "internalType": "bytes",
          "name": "payload",
          "type": "bytes"
        }
      ],
      "name": "SwapPending",
      "type": "event"
    },
    {
      "anonymous": false,
      "inputs": [
        {
          "indexed": true,
          "internalType": "bytes32",
          "name": "traceId",
          "type": "bytes32"
        },
        {
          "indexed": false,
          "internalType": "uint256",
          "name": "amount",
          "type": "uint256"
        },
        {
          "indexed": false,
          "internalType": "bytes",
          "name": "tradeData",
          "type": "bytes"
        }
      ],
      "name": "SwapSuccess",
      "type": "event"
    },
    {
      "inputs": [
        {
          "internalType": "string",
          "name": "chain_",
          "type": "string"
        },
        {
          "internalType": "uint32",
          "name": "domain",
          "type": "uint32"
        },
        {
          "internalType": "address",
          "name": "address_",
          "type": "address"
        }
      ],
      "name": "addSibling",
      "outputs": [],
      "stateMutability": "nonpayable",
      "type": "function"
    },
    {
      "inputs": [
        {
          "internalType": "uint256",
          "name": "amount",
          "type": "uint256"
        },
        {
          "internalType": "bytes",
          "name": "",
          "type": "bytes"
        }
      ],
      "name": "amountPostFee",
      "outputs": [
        {
          "internalType": "uint256",
          "name": "",
          "type": "uint256"
        }
      ],
      "stateMutability": "nonpayable",
      "type": "function"
    },
    {
      "inputs": [],
      "name": "circleBridge",
      "outputs": [
        {
          "internalType": "contract CircleBridge",
          "name": "",
          "type": "address"
        }
      ],
      "stateMutability": "view",
      "type": "function"
    },
    {
      "inputs": [
        {
          "internalType": "string",
          "name": "",
          "type": "string"
        }
      ],
      "name": "destinationDomains",
      "outputs": [
        {
          "internalType": "uint32",
          "name": "",
          "type": "uint32"
        }
      ],
      "stateMutability": "view",
      "type": "function"
    },
    {
      "inputs": [
        {
          "internalType": "string",
          "name": "",
          "type": "string"
        },
        {
          "internalType": "string",
          "name": "",
          "type": "string"
        },
        {
          "internalType": "bytes",
          "name": "payload",
          "type": "bytes"
        }
      ],
      "name": "execute",
      "outputs": [],
      "stateMutability": "nonpayable",
      "type": "function"
    },
    {
      "inputs": [
        {
          "internalType": "bytes32",
          "name": "commandId",
          "type": "bytes32"
        },
        {
          "internalType": "string",
          "name": "sourceChain",
          "type": "string"
        },
        {
          "internalType": "string",
          "name": "sourceAddress",
          "type": "string"
        },
        {
          "internalType": "bytes",
          "name": "payload",
          "type": "bytes"
        }
      ],
      "name": "execute",
      "outputs": [],
      "stateMutability": "nonpayable",
      "type": "function"
    },
    {
      "inputs": [
        {
          "internalType": "bytes32",
          "name": "commandId",
          "type": "bytes32"
        },
        {
          "internalType": "string",
          "name": "sourceChain",
          "type": "string"
        },
        {
          "internalType": "string",
          "name": "sourceAddress",
          "type": "string"
        },
        {
          "internalType": "bytes",
          "name": "payload",
          "type": "bytes"
        },
        {
          "internalType": "string",
          "name": "tokenSymbol",
          "type": "string"
        },
        {
          "internalType": "uint256",
          "name": "amount",
          "type": "uint256"
        }
      ],
      "name": "executeWithToken",
      "outputs": [],
      "stateMutability": "nonpayable",
      "type": "function"
    },
    {
      "inputs": [
        {
          "internalType": "string",
          "name": "sourceChain",
          "type": "string"
        },
        {
          "internalType": "string",
          "name": "sourceAddress",
          "type": "string"
        },
        {
          "internalType": "bytes",
          "name": "payload",
          "type": "bytes"
        },
        {
          "internalType": "address",
          "name": "forecaller",
          "type": "address"
        }
      ],
      "name": "forecall",
      "outputs": [],
      "stateMutability": "nonpayable",
      "type": "function"
    },
    {
      "inputs": [
        {
          "internalType": "string",
          "name": "sourceChain",
          "type": "string"
        },
        {
          "internalType": "string",
          "name": "sourceAddress",
          "type": "string"
        },
        {
          "internalType": "bytes",
          "name": "payload",
          "type": "bytes"
        },
        {
          "internalType": "string",
          "name": "tokenSymbol",
          "type": "string"
        },
        {
          "internalType": "uint256",
          "name": "amount",
          "type": "uint256"
        },
        {
          "internalType": "address",
          "name": "forecaller",
          "type": "address"
        }
      ],
      "name": "forecallWithToken",
      "outputs": [],
      "stateMutability": "nonpayable",
      "type": "function"
    },
    {
      "inputs": [],
      "name": "gateway",
      "outputs": [
        {
          "internalType": "contract IAxelarGateway",
          "name": "",
          "type": "address"
        }
      ],
      "stateMutability": "view",
      "type": "function"
    },
    {
      "inputs": [
        {
          "internalType": "string",
          "name": "destinationChain",
          "type": "string"
        },
        {
          "internalType": "uint256",
          "name": "amount",
          "type": "uint256"
        },
        {
          "internalType": "bytes",
          "name": "tradeData",
          "type": "bytes"
        },
        {
          "internalType": "bytes32",
          "name": "traceId",
          "type": "bytes32"
        },
        {
          "internalType": "address",
          "name": "fallbackRecipient",
          "type": "address"
        },
        {
          "internalType": "uint16",
          "name": "inputPos",
          "type": "uint16"
        }
      ],
      "name": "nativeSendTrade",
      "outputs": [],
      "stateMutability": "payable",
      "type": "function"
    },
    {
      "inputs": [
        {
          "internalType": "string",
          "name": "destinationChain",
          "type": "string"
        },
        {
          "internalType": "bytes",
          "name": "tradeData1",
          "type": "bytes"
        },
        {
          "internalType": "bytes",
          "name": "tradeData2",
          "type": "bytes"
        },
        {
          "internalType": "bytes32",
          "name": "traceId",
          "type": "bytes32"
        },
        {
          "internalType": "address",
          "name": "fallbackRecipient",
          "type": "address"
        },
        {
          "internalType": "uint16",
          "name": "inputPos",
          "type": "uint16"
        }
      ],
      "name": "nativeTradeSendTrade",
      "outputs": [],
      "stateMutability": "payable",
      "type": "function"
    },
    {
      "inputs": [],
      "name": "owner",
      "outputs": [
        {
          "internalType": "address",
          "name": "",
          "type": "address"
        }
      ],
      "stateMutability": "view",
      "type": "function"
    },
    {
      "inputs": [],
      "name": "renounceOwnership",
      "outputs": [],
      "stateMutability": "nonpayable",
      "type": "function"
    },
    {
      "inputs": [
        {
          "internalType": "string",
          "name": "",
          "type": "string"
        }
      ],
      "name": "siblings",
      "outputs": [
        {
          "internalType": "address",
          "name": "",
          "type": "address"
        }
      ],
      "stateMutability": "view",
      "type": "function"
    },
    {
      "inputs": [
        {
          "internalType": "address",
          "name": "newOwner",
          "type": "address"
        }
      ],
      "name": "transferOwnership",
      "outputs": [],
      "stateMutability": "nonpayable",
      "type": "function"
    },
    {
      "inputs": [],
      "name": "usdc",
      "outputs": [
        {
          "internalType": "contract USDC",
          "name": "",
          "type": "address"
        }
      ],
      "stateMutability": "view",
      "type": "function"
    },
    {
      "inputs": [],
      "name": "wrappedNativeToken",
      "outputs": [
        {
          "internalType": "address",
          "name": "",
          "type": "address"
        }
      ],
      "stateMutability": "view",
      "type": "function"
    }
  ],
  "transactionHash": "0xf08205a3906892c80e5aaca8fc0667a56e3d02fc40fd7280df0e37f01555cc8a",
  "args": [
    "0x19E75c24e67dc3161A2659E1D6D1bd50D255E536",
    "0x67BF1EeBbCB7994703A1827261493083D1233Cd0",
    "0x5425890298aed601595a70ab815c96711a31bc65",
    "0x0fC1103927AF27aF808D03135214718bCEDbE9ad",
    "0xd00ae08403B9bbb9124bB305C09058E32C39A48c"
  ],
  "numDeployments": 5,
  "solcInputHash": "e78aacc11b45add371c3599b76e88b89",
  "bytecode": "0x60a06040523480156200001157600080fd5b5060405162004d2d38038062004d2d8339818101604052810190620000379190620002d3565b84806000806101000a81548173ffffffffffffffffffffffffffffffffffffffff021916908373ffffffffffffffffffffffffffffffffffffffff16021790555050620000996200008d6200019b60201b60201c565b620001a360201b60201c565b8373ffffffffffffffffffffffffffffffffffffffff1660808173ffffffffffffffffffffffffffffffffffffffff168152505082600360006101000a81548173ffffffffffffffffffffffffffffffffffffffff021916908373ffffffffffffffffffffffffffffffffffffffff16021790555081600560006101000a81548173ffffffffffffffffffffffffffffffffffffffff021916908373ffffffffffffffffffffffffffffffffffffffff16021790555080600460006101000a81548173ffffffffffffffffffffffffffffffffffffffff021916908373ffffffffffffffffffffffffffffffffffffffff16021790555050505050506200035b565b600033905090565b6000600260009054906101000a900473ffffffffffffffffffffffffffffffffffffffff16905081600260006101000a81548173ffffffffffffffffffffffffffffffffffffffff021916908373ffffffffffffffffffffffffffffffffffffffff1602179055508173ffffffffffffffffffffffffffffffffffffffff168173ffffffffffffffffffffffffffffffffffffffff167f8be0079c531659141344cd1fd0a4f28419497f9722a3daafe3b4186f6b6457e060405160405180910390a35050565b600080fd5b600073ffffffffffffffffffffffffffffffffffffffff82169050919050565b60006200029b826200026e565b9050919050565b620002ad816200028e565b8114620002b957600080fd5b50565b600081519050620002cd81620002a2565b92915050565b600080600080600060a08688031215620002f257620002f162000269565b5b60006200030288828901620002bc565b95505060206200031588828901620002bc565b94505060406200032888828901620002bc565b93505060606200033b88828901620002bc565b92505060806200034e88828901620002bc565b9150509295509295909350565b6080516149b6620003776000396000611cdc01526149b66000f3fe6080604052600436106101095760003560e01c8063713a987611610095578063bb288a0311610064578063bb288a0314610357578063d3e488d514610380578063daa0c9171461039c578063e7fb058b146103b8578063f2fde38b146103e157610109565b8063713a98761461029b578063715018a6146102d85780638da5cb5b146102ef578063a7798b691461031a57610109565b80633913c080116100dc5780633913c080146101b85780633ca2fd8e146101e15780633da2a4b51461021e5780633e413bee14610247578063491606581461027257610109565b806301a67b6b1461010e578063116191b61461013957806317fcb39b146101645780631a98b2e01461018f575b600080fd5b34801561011a57600080fd5b5061012361040a565b6040516101309190612dcd565b60405180910390f35b34801561014557600080fd5b5061014e610430565b60405161015b9190612e09565b60405180910390f35b34801561017057600080fd5b50610179610454565b6040516101869190612e45565b60405180910390f35b34801561019b57600080fd5b506101b660048036038101906101b19190612f9b565b61047a565b005b3480156101c457600080fd5b506101df60048036038101906101da91906131ec565b61085c565b005b3480156101ed57600080fd5b5061020860048036038101906102039190613298565b610896565b6040516102159190613307565b60405180910390f35b34801561022a57600080fd5b506102456004803603810190610240919061338a565b6108a2565b005b34801561025357600080fd5b5061025c610949565b604051610269919061341a565b60405180910390f35b34801561027e57600080fd5b5061029960048036038101906102949190613435565b61096f565b005b3480156102a757600080fd5b506102c260048036038101906102bd91906134fe565b610c3a565b6040516102cf9190613556565b60405180910390f35b3480156102e457600080fd5b506102ed610c73565b005b3480156102fb57600080fd5b50610304610c75565b6040516103119190612e45565b60405180910390f35b34801561032657600080fd5b50610341600480360381019061033c91906134fe565b610c9f565b60405161034e9190612e45565b60405180910390f35b34801561036357600080fd5b5061037e60048036038101906103799190613571565b610ce8565b005b61039a60048036038101906103959190613715565b610edf565b005b6103b660048036038101906103b191906137da565b61125b565b005b3480156103c457600080fd5b506103df60048036038101906103da91906138bb565b611614565b005b3480156103ed57600080fd5b50610408600480360381019061040391906139cb565b61192f565b005b600560009054906101000a900473ffffffffffffffffffffffffffffffffffffffff1681565b60008054906101000a900473ffffffffffffffffffffffffffffffffffffffff1681565b600460009054906101000a900473ffffffffffffffffffffffffffffffffffffffff1681565b6000858560405161048c929190613a28565b6040518091039020905060008054906101000a900473ffffffffffffffffffffffffffffffffffffffff1673ffffffffffffffffffffffffffffffffffffffff16631876eed98c8c8c8c8c878b8b8b6040518a63ffffffff1660e01b81526004016104ff99989796959493929190613a8e565b602060405180830381600087803b15801561051957600080fd5b505af115801561052d573d6000803e3d6000fd5b505050506040513d601f19601f820116820180604052508101906105519190613b42565b610587576040517f500c44b400000000000000000000000000000000000000000000000000000000815260040160405180910390fd5b6000600160008c8c8c8c8c8c8c8c8c6040516020016105ae99989796959493929190613bad565b60405160208183030381529060405280519060200120815260200190815260200160002060009054906101000a900473ffffffffffffffffffffffffffffffffffffffff169050600073ffffffffffffffffffffffffffffffffffffffff168173ffffffffffffffffffffffffffffffffffffffff1614610773576000600160008d8d8d8d8d8d8d8d8d60405160200161065099989796959493929190613bad565b60405160208183030381529060405280519060200120815260200190815260200160002060006101000a81548173ffffffffffffffffffffffffffffffffffffffff021916908373ffffffffffffffffffffffffffffffffffffffff16021790555060008060009054906101000a900473ffffffffffffffffffffffffffffffffffffffff1673ffffffffffffffffffffffffffffffffffffffff1663935b13f687876040518363ffffffff1660e01b8152600401610710929190613c24565b60206040518083038186803b15801561072857600080fd5b505afa15801561073c573d6000803e3d6000fd5b505050506040513d601f19601f820116820180604052508101906107609190613c5d565b905061076d8183866119b3565b5061084e565b61084d8b8b8080601f016020809104026020016040519081016040528093929190818152602001838380828437600081840152601f19601f820116905080830192505050505050508a8a8080601f016020809104026020016040519081016040528093929190818152602001838380828437600081840152601f19601f82011690508083019250505050505050898989898080601f016020809104026020016040519081016040528093929190818152602001838380828437600081840152601f19601f8201169050808301925050505050505088611b29565b5b505050505050505050505050565b600080600080600086868101906108739190613cc8565b9450945094509450945061088a8486858585611b31565b50505050505050505050565b60008390509392505050565b6108aa611c21565b806006846040516108bb9190613dd9565b908152602001604051809103902060006101000a81548173ffffffffffffffffffffffffffffffffffffffff021916908373ffffffffffffffffffffffffffffffffffffffff160217905550816007846040516109189190613dd9565b908152602001604051809103902060006101000a81548163ffffffff021916908363ffffffff160217905550505050565b600360009054906101000a900473ffffffffffffffffffffffffffffffffffffffff1681565b60008282604051610981929190613a28565b6040518091039020905060008054906101000a900473ffffffffffffffffffffffffffffffffffffffff1673ffffffffffffffffffffffffffffffffffffffff16635f6970c38989898989876040518763ffffffff1660e01b81526004016109ee96959493929190613df0565b602060405180830381600087803b158015610a0857600080fd5b505af1158015610a1c573d6000803e3d6000fd5b505050506040513d601f19601f82011682018060405250810190610a409190613b42565b610a76576040517f500c44b400000000000000000000000000000000000000000000000000000000815260040160405180910390fd5b600060016000898989898989604051602001610a9796959493929190613e47565b60405160208183030381529060405280519060200120815260200190815260200160002060009054906101000a900473ffffffffffffffffffffffffffffffffffffffff169050600073ffffffffffffffffffffffffffffffffffffffff168173ffffffffffffffffffffffffffffffffffffffff1614610b9a576000600160008a8a8a8a8a8a604051602001610b3396959493929190613e47565b60405160208183030381529060405280519060200120815260200190815260200160002060006101000a81548173ffffffffffffffffffffffffffffffffffffffff021916908373ffffffffffffffffffffffffffffffffffffffff160217905550610c2f565b610c2e88888080601f016020809104026020016040519081016040528093929190818152602001838380828437600081840152601f19601f8201169050808301925050505050505087878080601f016020809104026020016040519081016040528093929190818152602001838380828437600081840152601f19601f820116905080830192505050505050508686611c9f565b5b505050505050505050565b6007818051602081018201805184825260208301602085012081835280955050505050506000915054906101000a900463ffffffff1681565b565b6000600260009054906101000a900473ffffffffffffffffffffffffffffffffffffffff16905090565b6006818051602081018201805184825260208301602085012081835280955050505050506000915054906101000a900473ffffffffffffffffffffffffffffffffffffffff1681565b610cf787878787878787611ca5565b600073ffffffffffffffffffffffffffffffffffffffff1660016000898989898989604051602001610d2e96959493929190613e47565b60405160208183030381529060405280519060200120815260200190815260200160002060009054906101000a900473ffffffffffffffffffffffffffffffffffffffff1673ffffffffffffffffffffffffffffffffffffffff1614610dc0576040517f35b7d55000000000000000000000000000000000000000000000000000000000815260040160405180910390fd5b8060016000898989898989604051602001610de096959493929190613e47565b60405160208183030381529060405280519060200120815260200190815260200160002060006101000a81548173ffffffffffffffffffffffffffffffffffffffff021916908373ffffffffffffffffffffffffffffffffffffffff160217905550610ed687878080601f016020809104026020016040519081016040528093929190818152602001838380828437600081840152601f19601f8201169050808301925050505050505086868080601f016020809104026020016040519081016040528093929190818152602001838380828437600081840152601f19601f820116905080830192505050505050508585611c9f565b50505050505050565b85600073ffffffffffffffffffffffffffffffffffffffff16600682604051610f089190613dd9565b908152602001604051809103902060009054906101000a900473ffffffffffffffffffffffffffffffffffffffff1673ffffffffffffffffffffffffffffffffffffffff161415610f8e576040517f08c379a0000000000000000000000000000000000000000000000000000000008152600401610f8590613f0b565b60405180910390fd5b600360009054906101000a900473ffffffffffffffffffffffffffffffffffffffff1673ffffffffffffffffffffffffffffffffffffffff166323b872dd3330896040518463ffffffff1660e01b8152600401610fed93929190613f2b565b602060405180830381600087803b15801561100757600080fd5b505af115801561101b573d6000803e3d6000fd5b505050506040513d601f19601f8201168201806040525081019061103f9190613b42565b506000600560009054906101000a900473ffffffffffffffffffffffffffffffffffffffff1673ffffffffffffffffffffffffffffffffffffffff16636fd3504e883073ffffffffffffffffffffffffffffffffffffffff1663713a98768c6040518263ffffffff1660e01b81526004016110ba9190613f9b565b60206040518083038186803b1580156110d257600080fd5b505afa1580156110e6573d6000803e3d6000fd5b505050506040513d601f19601f8201168201806040525081019061110a9190613fd2565b3073ffffffffffffffffffffffffffffffffffffffff1663a7798b698d6040518263ffffffff1660e01b81526004016111439190613f9b565b60206040518083038186803b15801561115b57600080fd5b505afa15801561116f573d6000803e3d6000fd5b505050506040513d601f19601f820116820180604052508101906111939190613c5d565b73ffffffffffffffffffffffffffffffffffffffff1660001b600360009054906101000a900473ffffffffffffffffffffffffffffffffffffffff166040518563ffffffff1660e01b81526004016111ee9493929190613fff565b602060405180830381600087803b15801561120857600080fd5b505af115801561121c573d6000803e3d6000fd5b505050506040513d601f19601f820116820180604052508101906112409190614084565b905061125188878934898989611cae565b5050505050505050565b85600073ffffffffffffffffffffffffffffffffffffffff166006826040516112849190613dd9565b908152602001604051809103902060009054906101000a900473ffffffffffffffffffffffffffffffffffffffff1673ffffffffffffffffffffffffffffffffffffffff16141561130a576040517f08c379a000000000000000000000000000000000000000000000000000000000815260040161130190613f0b565b60405180910390fd5b60008061131688611f6b565b91509150600360009054906101000a900473ffffffffffffffffffffffffffffffffffffffff1673ffffffffffffffffffffffffffffffffffffffff1663095ea7b3600560009054906101000a900473ffffffffffffffffffffffffffffffffffffffff16836040518363ffffffff1660e01b81526004016113999291906140b1565b602060405180830381600087803b1580156113b357600080fd5b505af11580156113c7573d6000803e3d6000fd5b505050506040513d601f19601f820116820180604052508101906113eb9190613b42565b506000600560009054906101000a900473ffffffffffffffffffffffffffffffffffffffff1673ffffffffffffffffffffffffffffffffffffffff16636fd3504e833073ffffffffffffffffffffffffffffffffffffffff1663713a98768e6040518263ffffffff1660e01b81526004016114669190613f9b565b60206040518083038186803b15801561147e57600080fd5b505afa158015611492573d6000803e3d6000fd5b505050506040513d601f19601f820116820180604052508101906114b69190613fd2565b3073ffffffffffffffffffffffffffffffffffffffff1663a7798b698f6040518263ffffffff1660e01b81526004016114ef9190613f9b565b60206040518083038186803b15801561150757600080fd5b505afa15801561151b573d6000803e3d6000fd5b505050506040513d601f19601f8201168201806040525081019061153f9190613c5d565b73ffffffffffffffffffffffffffffffffffffffff1660001b600360009054906101000a900473ffffffffffffffffffffffffffffffffffffffff166040518563ffffffff1660e01b815260040161159a9493929190613fff565b602060405180830381600087803b1580156115b457600080fd5b505af11580156115c8573d6000803e3d6000fd5b505050506040513d601f19601f820116820180604052508101906115ec9190614084565b90506116088a898486346116009190614109565b8b8b8b611cae565b50505050505050505050565b60008060009054906101000a900473ffffffffffffffffffffffffffffffffffffffff1673ffffffffffffffffffffffffffffffffffffffff1663935b13f686866040518363ffffffff1660e01b8152600401611672929190613c24565b60206040518083038186803b15801561168a57600080fd5b505afa15801561169e573d6000803e3d6000fd5b505050506040513d601f19601f820116820180604052508101906116c29190613c5d565b905060006116d1848989610896565b90506116de823383612036565b6116f08c8c8c8c8c8c8c8c8c8c6121ae565b600073ffffffffffffffffffffffffffffffffffffffff16600160008e8e8e8e8e8e8e8e8e60405160200161172d99989796959493929190613bad565b60405160208183030381529060405280519060200120815260200190815260200160002060009054906101000a900473ffffffffffffffffffffffffffffffffffffffff1673ffffffffffffffffffffffffffffffffffffffff16146117bf576040517f35b7d55000000000000000000000000000000000000000000000000000000000815260040160405180910390fd5b82600160008e8e8e8e8e8e8e8e8e6040516020016117e599989796959493929190613bad565b60405160208183030381529060405280519060200120815260200190815260200160002060006101000a81548173ffffffffffffffffffffffffffffffffffffffff021916908373ffffffffffffffffffffffffffffffffffffffff1602179055506119218c8c8080601f016020809104026020016040519081016040528093929190818152602001838380828437600081840152601f19601f820116905080830192505050505050508b8b8080601f016020809104026020016040519081016040528093929190818152602001838380828437600081840152601f19601f820116905080830192505050505050508a8a8a8a8080601f016020809104026020016040519081016040528093929190818152602001838380828437600081840152601f19601f8201169050808301925050505050505086611b29565b505050505050505050505050565b611937611c21565b600073ffffffffffffffffffffffffffffffffffffffff168173ffffffffffffffffffffffffffffffffffffffff1614156119a7576040517f08c379a000000000000000000000000000000000000000000000000000000000815260040161199e906141af565b60405180910390fd5b6119b0816121ba565b50565b6000808473ffffffffffffffffffffffffffffffffffffffff1663a9059cbb60e01b85856040516024016119e89291906140b1565b604051602081830303815290604052907bffffffffffffffffffffffffffffffffffffffffffffffffffffffff19166020820180517bffffffffffffffffffffffffffffffffffffffffffffffffffffffff8381831617835250505050604051611a52919061420b565b6000604051808303816000865af19150503d8060008114611a8f576040519150601f19603f3d011682016040523d82523d6000602084013e611a94565b606091505b50915091506000828015611ac45750600082511480611ac3575081806020019051810190611ac29190613b42565b5b5b9050801580611aea575060008673ffffffffffffffffffffffffffffffffffffffff163b145b15611b21576040517f90b8ec1800000000000000000000000000000000000000000000000000000000815260040160405180910390fd5b505050505050565b505050505050565b60008085806020019051810190611b489190614237565b9050600360009054906101000a900473ffffffffffffffffffffffffffffffffffffffff1673ffffffffffffffffffffffffffffffffffffffff168173ffffffffffffffffffffffffffffffffffffffff1614611bb257611baa858886612280565b915050611c18565b8683870152611bc186886122d1565b611bd857611bd0858886612280565b915050611c18565b847f2eee7242b494decec975364a3a68cc2983c8c343618698e44ca690103af761758888604051611c0a92919061429d565b60405180910390a260019150505b95945050505050565b611c296123f6565b73ffffffffffffffffffffffffffffffffffffffff16611c47610c75565b73ffffffffffffffffffffffffffffffffffffffff1614611c9d576040517f08c379a0000000000000000000000000000000000000000000000000000000008152600401611c9490614319565b60405180910390fd5b565b50505050565b50505050505050565b60008686858585604051602001611cc9959493929190614348565b60405160208183030381529060405290507f000000000000000000000000000000000000000000000000000000000000000073ffffffffffffffffffffffffffffffffffffffff16630c93e3bb86308b611daa3073ffffffffffffffffffffffffffffffffffffffff1663a7798b698f6040518263ffffffff1660e01b8152600401611d559190613f9b565b60206040518083038186803b158015611d6d57600080fd5b505afa158015611d81573d6000803e3d6000fd5b505050506040513d601f19601f82011682018060405250810190611da59190613c5d565b6123fe565b86336040518763ffffffff1660e01b8152600401611dcc9594939291906143a2565b6000604051808303818588803b158015611de557600080fd5b505af1158015611df9573d6000803e3d6000fd5b505050505060008054906101000a900473ffffffffffffffffffffffffffffffffffffffff1673ffffffffffffffffffffffffffffffffffffffff16631c92115f89611ecc3073ffffffffffffffffffffffffffffffffffffffff1663a7798b698d6040518263ffffffff1660e01b8152600401611e779190613f9b565b60206040518083038186803b158015611e8f57600080fd5b505afa158015611ea3573d6000803e3d6000fd5b505050506040513d601f19601f82011682018060405250810190611ec79190613c5d565b6123fe565b846040518463ffffffff1660e01b8152600401611eeb9392919061440a565b600060405180830381600087803b158015611f0557600080fd5b505af1158015611f19573d6000803e3d6000fd5b505050508080519060200120847f603f384676075b3ec165d26daed675db50dfd83d03f3d12e2eecad1a52da8221888b85604051611f5993929190614456565b60405180910390a35050505050505050565b6000806000611f9b600360009054906101000a900473ffffffffffffffffffffffffffffffffffffffff1661271b565b9050600080611fa9866127ad565b9150915081611fed576040517f08c379a0000000000000000000000000000000000000000000000000000000008152600401611fe4906144e7565b60405180910390fd5b60008361201b600360009054906101000a900473ffffffffffffffffffffffffffffffffffffffff1661271b565b6120259190614109565b905081819550955050505050915091565b6000808473ffffffffffffffffffffffffffffffffffffffff166323b872dd60e01b85308660405160240161206d93929190613f2b565b604051602081830303815290604052907bffffffffffffffffffffffffffffffffffffffffffffffffffffffff19166020820180517bffffffffffffffffffffffffffffffffffffffffffffffffffffffff83818316178352505050506040516120d7919061420b565b6000604051808303816000865af19150503d8060008114612114576040519150601f19603f3d011682016040523d82523d6000602084013e612119565b606091505b5091509150600082801561214957506000825114806121485750818060200190518101906121479190613b42565b5b5b905080158061216f575060008673ffffffffffffffffffffffffffffffffffffffff163b145b156121a6576040517f90b8ec1800000000000000000000000000000000000000000000000000000000815260040160405180910390fd5b505050505050565b50505050505050505050565b6000600260009054906101000a900473ffffffffffffffffffffffffffffffffffffffff16905081600260006101000a81548173ffffffffffffffffffffffffffffffffffffffff021916908373ffffffffffffffffffffffffffffffffffffffff1602179055508173ffffffffffffffffffffffffffffffffffffffff168173ffffffffffffffffffffffffffffffffffffffff167f8be0079c531659141344cd1fd0a4f28419497f9722a3daafe3b4186f6b6457e060405160405180910390a35050565b600061228c8383612991565b837f558c0ee8c786238cf77a23150b8f030420c53c82aa0488213ace44ee1cfc92f484846040516122be929190614507565b60405180910390a2600090509392505050565b600080600080858060200190518101906122eb91906145b5565b935093505092508273ffffffffffffffffffffffffffffffffffffffff1663095ea7b383876040518363ffffffff1660e01b815260040161232d9291906140b1565b602060405180830381600087803b15801561234757600080fd5b505af115801561235b573d6000803e3d6000fd5b505050506040513d601f19601f8201168201806040525081019061237f9190613b42565b508173ffffffffffffffffffffffffffffffffffffffff16816040516123a5919061420b565b6000604051808303816000865af19150503d80600081146123e2576040519150601f19603f3d011682016040523d82523d6000602084013e6123e7565b606091505b50508094505050505092915050565b600033905090565b60606000826040516020016124139190614680565b604051602081830303815290604052905060006040518060400160405280601081526020017f3031323334353637383961626364656600000000000000000000000000000000815250905060006002835161246e919061469b565b600261247a91906146f5565b67ffffffffffffffff811115612493576124926130c1565b5b6040519080825280601f01601f1916602001820160405280156124c55781602001600182028036833780820191505090505b5090507f3000000000000000000000000000000000000000000000000000000000000000816000815181106124fd576124fc61474b565b5b60200101907effffffffffffffffffffffffffffffffffffffffffffffffffffffffffffff1916908160001a9053507f7800000000000000000000000000000000000000000000000000000000000000816001815181106125615761256061474b565b5b60200101907effffffffffffffffffffffffffffffffffffffffffffffffffffffffffffff1916908160001a90535060005b835181101561270f578260048583815181106125b2576125b161474b565b5b602001015160f81c60f81b7effffffffffffffffffffffffffffffffffffffffffffffffffffffffffffff1916901c60f81c60ff16815181106125f8576125f761474b565b5b602001015160f81c60f81b82600283612611919061469b565b600261261d91906146f5565b8151811061262e5761262d61474b565b5b60200101907effffffffffffffffffffffffffffffffffffffffffffffffffffffffffffff1916908160001a90535082600f60f81b8583815181106126765761267561474b565b5b602001015160f81c60f81b1660f81c60ff16815181106126995761269861474b565b5b602001015160f81c60f81b826002836126b2919061469b565b60036126be91906146f5565b815181106126cf576126ce61474b565b5b60200101907effffffffffffffffffffffffffffffffffffffffffffffffffffffffffffff1916908160001a905350806127089061477a565b9050612593565b50809350505050919050565b60008173ffffffffffffffffffffffffffffffffffffffff166370a08231306040518263ffffffff1660e01b81526004016127569190612e45565b60206040518083038186803b15801561276e57600080fd5b505afa158015612782573d6000803e3d6000fd5b505050506040513d601f19601f820116820180604052508101906127a691906147c3565b9050919050565b600080600080600080868060200190518101906127ca91906145b5565b9350935093509350600073ffffffffffffffffffffffffffffffffffffffff168473ffffffffffffffffffffffffffffffffffffffff16141561287a578173ffffffffffffffffffffffffffffffffffffffff16838260405161282d919061420b565b60006040518083038185875af1925050503d806000811461286a576040519150601f19603f3d011682016040523d82523d6000602084013e61286f565b606091505b505080965050612982565b612886843330866129c2565b8373ffffffffffffffffffffffffffffffffffffffff1663095ea7b383856040518363ffffffff1660e01b81526004016128c19291906140b1565b602060405180830381600087803b1580156128db57600080fd5b505af11580156128ef573d6000803e3d6000fd5b505050506040513d601f19601f820116820180604052508101906129139190613b42565b508173ffffffffffffffffffffffffffffffffffffffff1681604051612939919061420b565b6000604051808303816000865af19150503d8060008114612976576040519150601f19603f3d011682016040523d82523d6000602084013e61297b565b606091505b5050809650505b85839550955050505050915091565b6129be600360009054906101000a900473ffffffffffffffffffffffffffffffffffffffff168284612a4b565b5050565b612a45846323b872dd60e01b8585856040516024016129e393929190613f2b565b604051602081830303815290604052907bffffffffffffffffffffffffffffffffffffffffffffffffffffffff19166020820180517bffffffffffffffffffffffffffffffffffffffffffffffffffffffff8381831617835250505050612ad1565b50505050565b612acc8363a9059cbb60e01b8484604051602401612a6a9291906140b1565b604051602081830303815290604052907bffffffffffffffffffffffffffffffffffffffffffffffffffffffff19166020820180517bffffffffffffffffffffffffffffffffffffffffffffffffffffffff8381831617835250505050612ad1565b505050565b6000612b33826040518060400160405280602081526020017f5361666545524332303a206c6f772d6c6576656c2063616c6c206661696c65648152508573ffffffffffffffffffffffffffffffffffffffff16612b989092919063ffffffff16565b9050600081511115612b935780806020019051810190612b539190613b42565b612b92576040517f08c379a0000000000000000000000000000000000000000000000000000000008152600401612b8990614862565b60405180910390fd5b5b505050565b6060612ba78484600085612bb0565b90509392505050565b606082471015612bf5576040517f08c379a0000000000000000000000000000000000000000000000000000000008152600401612bec906148f4565b60405180910390fd5b612bfe85612cc4565b612c3d576040517f08c379a0000000000000000000000000000000000000000000000000000000008152600401612c3490614960565b60405180910390fd5b6000808673ffffffffffffffffffffffffffffffffffffffff168587604051612c66919061420b565b60006040518083038185875af1925050503d8060008114612ca3576040519150601f19603f3d011682016040523d82523d6000602084013e612ca8565b606091505b5091509150612cb8828286612ce7565b92505050949350505050565b6000808273ffffffffffffffffffffffffffffffffffffffff163b119050919050565b60608315612cf757829050612d47565b600083511115612d0a5782518084602001fd5b816040517f08c379a0000000000000000000000000000000000000000000000000000000008152600401612d3e9190613f9b565b60405180910390fd5b9392505050565b600073ffffffffffffffffffffffffffffffffffffffff82169050919050565b6000819050919050565b6000612d93612d8e612d8984612d4e565b612d6e565b612d4e565b9050919050565b6000612da582612d78565b9050919050565b6000612db782612d9a565b9050919050565b612dc781612dac565b82525050565b6000602082019050612de26000830184612dbe565b92915050565b6000612df382612d9a565b9050919050565b612e0381612de8565b82525050565b6000602082019050612e1e6000830184612dfa565b92915050565b6000612e2f82612d4e565b9050919050565b612e3f81612e24565b82525050565b6000602082019050612e5a6000830184612e36565b92915050565b6000604051905090565b600080fd5b600080fd5b6000819050919050565b612e8781612e74565b8114612e9257600080fd5b50565b600081359050612ea481612e7e565b92915050565b600080fd5b600080fd5b600080fd5b60008083601f840112612ecf57612ece612eaa565b5b8235905067ffffffffffffffff811115612eec57612eeb612eaf565b5b602083019150836001820283011115612f0857612f07612eb4565b5b9250929050565b60008083601f840112612f2557612f24612eaa565b5b8235905067ffffffffffffffff811115612f4257612f41612eaf565b5b602083019150836001820283011115612f5e57612f5d612eb4565b5b9250929050565b6000819050919050565b612f7881612f65565b8114612f8357600080fd5b50565b600081359050612f9581612f6f565b92915050565b60008060008060008060008060008060c08b8d031215612fbe57612fbd612e6a565b5b6000612fcc8d828e01612e95565b9a505060208b013567ffffffffffffffff811115612fed57612fec612e6f565b5b612ff98d828e01612eb9565b995099505060408b013567ffffffffffffffff81111561301c5761301b612e6f565b5b6130288d828e01612eb9565b975097505060608b013567ffffffffffffffff81111561304b5761304a612e6f565b5b6130578d828e01612f0f565b955095505060808b013567ffffffffffffffff81111561307a57613079612e6f565b5b6130868d828e01612eb9565b935093505060a06130998d828e01612f86565b9150509295989b9194979a5092959850565b600080fd5b6000601f19601f8301169050919050565b7f4e487b7100000000000000000000000000000000000000000000000000000000600052604160045260246000fd5b6130f9826130b0565b810181811067ffffffffffffffff82111715613118576131176130c1565b5b80604052505050565b600061312b612e60565b905061313782826130f0565b919050565b600067ffffffffffffffff821115613157576131566130c1565b5b613160826130b0565b9050602081019050919050565b82818337600083830152505050565b600061318f61318a8461313c565b613121565b9050828152602081018484840111156131ab576131aa6130ab565b5b6131b684828561316d565b509392505050565b600082601f8301126131d3576131d2612eaa565b5b81356131e384826020860161317c565b91505092915050565b6000806000806060858703121561320657613205612e6a565b5b600085013567ffffffffffffffff81111561322457613223612e6f565b5b613230878288016131be565b945050602085013567ffffffffffffffff81111561325157613250612e6f565b5b61325d878288016131be565b935050604085013567ffffffffffffffff81111561327e5761327d612e6f565b5b61328a87828801612f0f565b925092505092959194509250565b6000806000604084860312156132b1576132b0612e6a565b5b60006132bf86828701612f86565b935050602084013567ffffffffffffffff8111156132e0576132df612e6f565b5b6132ec86828701612f0f565b92509250509250925092565b61330181612f65565b82525050565b600060208201905061331c60008301846132f8565b92915050565b600063ffffffff82169050919050565b61333b81613322565b811461334657600080fd5b50565b60008135905061335881613332565b92915050565b61336781612e24565b811461337257600080fd5b50565b6000813590506133848161335e565b92915050565b6000806000606084860312156133a3576133a2612e6a565b5b600084013567ffffffffffffffff8111156133c1576133c0612e6f565b5b6133cd868287016131be565b93505060206133de86828701613349565b92505060406133ef86828701613375565b9150509250925092565b600061340482612d9a565b9050919050565b613414816133f9565b82525050565b600060208201905061342f600083018461340b565b92915050565b60008060008060008060006080888a03121561345457613453612e6a565b5b60006134628a828b01612e95565b975050602088013567ffffffffffffffff81111561348357613482612e6f565b5b61348f8a828b01612eb9565b9650965050604088013567ffffffffffffffff8111156134b2576134b1612e6f565b5b6134be8a828b01612eb9565b9450945050606088013567ffffffffffffffff8111156134e1576134e0612e6f565b5b6134ed8a828b01612f0f565b925092505092959891949750929550565b60006020828403121561351457613513612e6a565b5b600082013567ffffffffffffffff81111561353257613531612e6f565b5b61353e848285016131be565b91505092915050565b61355081613322565b82525050565b600060208201905061356b6000830184613547565b92915050565b60008060008060008060006080888a0312156135905761358f612e6a565b5b600088013567ffffffffffffffff8111156135ae576135ad612e6f565b5b6135ba8a828b01612eb9565b9750975050602088013567ffffffffffffffff8111156135dd576135dc612e6f565b5b6135e98a828b01612eb9565b9550955050604088013567ffffffffffffffff81111561360c5761360b612e6f565b5b6136188a828b01612f0f565b9350935050606061362b8a828b01613375565b91505092959891949750929550565b600067ffffffffffffffff821115613655576136546130c1565b5b61365e826130b0565b9050602081019050919050565b600061367e6136798461363a565b613121565b90508281526020810184848401111561369a576136996130ab565b5b6136a584828561316d565b509392505050565b600082601f8301126136c2576136c1612eaa565b5b81356136d284826020860161366b565b91505092915050565b600061ffff82169050919050565b6136f2816136db565b81146136fd57600080fd5b50565b60008135905061370f816136e9565b92915050565b60008060008060008060c0878903121561373257613731612e6a565b5b600087013567ffffffffffffffff8111156137505761374f612e6f565b5b61375c89828a016131be565b965050602061376d89828a01612f86565b955050604087013567ffffffffffffffff81111561378e5761378d612e6f565b5b61379a89828a016136ad565b94505060606137ab89828a01612e95565b93505060806137bc89828a01613375565b92505060a06137cd89828a01613700565b9150509295509295509295565b60008060008060008060c087890312156137f7576137f6612e6a565b5b600087013567ffffffffffffffff81111561381557613814612e6f565b5b61382189828a016131be565b965050602087013567ffffffffffffffff81111561384257613841612e6f565b5b61384e89828a016136ad565b955050604087013567ffffffffffffffff81111561386f5761386e612e6f565b5b61387b89828a016136ad565b945050606061388c89828a01612e95565b935050608061389d89828a01613375565b92505060a06138ae89828a01613700565b9150509295509295509295565b60008060008060008060008060008060c08b8d0312156138de576138dd612e6a565b5b60008b013567ffffffffffffffff8111156138fc576138fb612e6f565b5b6139088d828e01612eb9565b9a509a505060208b013567ffffffffffffffff81111561392b5761392a612e6f565b5b6139378d828e01612eb9565b985098505060408b013567ffffffffffffffff81111561395a57613959612e6f565b5b6139668d828e01612f0f565b965096505060608b013567ffffffffffffffff81111561398957613988612e6f565b5b6139958d828e01612eb9565b945094505060806139a88d828e01612f86565b92505060a06139b98d828e01613375565b9150509295989b9194979a5092959850565b6000602082840312156139e1576139e0612e6a565b5b60006139ef84828501613375565b91505092915050565b600081905092915050565b6000613a0f83856139f8565b9350613a1c83858461316d565b82840190509392505050565b6000613a35828486613a03565b91508190509392505050565b613a4a81612e74565b82525050565b600082825260208201905092915050565b6000613a6d8385613a50565b9350613a7a83858461316d565b613a83836130b0565b840190509392505050565b600060c082019050613aa3600083018c613a41565b8181036020830152613ab6818a8c613a61565b90508181036040830152613acb81888a613a61565b9050613ada6060830187613a41565b8181036080830152613aed818587613a61565b9050613afc60a08301846132f8565b9a9950505050505050505050565b60008115159050919050565b613b1f81613b0a565b8114613b2a57600080fd5b50565b600081519050613b3c81613b16565b92915050565b600060208284031215613b5857613b57612e6a565b5b6000613b6684828501613b2d565b91505092915050565b600082825260208201905092915050565b6000613b8c8385613b6f565b9350613b9983858461316d565b613ba2836130b0565b840190509392505050565b600060a0820190508181036000830152613bc8818b8d613a61565b90508181036020830152613bdd81898b613a61565b90508181036040830152613bf2818789613b80565b90508181036060830152613c07818587613a61565b9050613c1660808301846132f8565b9a9950505050505050505050565b60006020820190508181036000830152613c3f818486613a61565b90509392505050565b600081519050613c578161335e565b92915050565b600060208284031215613c7357613c72612e6a565b5b6000613c8184828501613c48565b91505092915050565b6000613c9582612d4e565b9050919050565b613ca581613c8a565b8114613cb057600080fd5b50565b600081359050613cc281613c9c565b92915050565b600080600080600060a08688031215613ce457613ce3612e6a565b5b600086013567ffffffffffffffff811115613d0257613d01612e6f565b5b613d0e888289016136ad565b9550506020613d1f88828901612f86565b9450506040613d3088828901612e95565b9350506060613d4188828901613cb3565b9250506080613d5288828901613700565b9150509295509295909350565b600081519050919050565b600081905092915050565b60005b83811015613d93578082015181840152602081019050613d78565b83811115613da2576000848401525b50505050565b6000613db382613d5f565b613dbd8185613d6a565b9350613dcd818560208601613d75565b80840191505092915050565b6000613de58284613da8565b915081905092915050565b6000608082019050613e056000830189613a41565b8181036020830152613e18818789613a61565b90508181036040830152613e2d818587613a61565b9050613e3c6060830184613a41565b979650505050505050565b60006060820190508181036000830152613e6281888a613a61565b90508181036020830152613e77818688613a61565b90508181036040830152613e8c818486613b80565b9050979650505050505050565b7f436972636c655377617045786563757461626c653a20696e76616c696420646560008201527f7374696e6174696f6e20636861696e0000000000000000000000000000000000602082015250565b6000613ef5602f83613a50565b9150613f0082613e99565b604082019050919050565b60006020820190508181036000830152613f2481613ee8565b9050919050565b6000606082019050613f406000830186612e36565b613f4d6020830185612e36565b613f5a60408301846132f8565b949350505050565b6000613f6d82613d5f565b613f778185613a50565b9350613f87818560208601613d75565b613f90816130b0565b840191505092915050565b60006020820190508181036000830152613fb58184613f62565b905092915050565b600081519050613fcc81613332565b92915050565b600060208284031215613fe857613fe7612e6a565b5b6000613ff684828501613fbd565b91505092915050565b600060808201905061401460008301876132f8565b6140216020830186613547565b61402e6040830185613a41565b61403b6060830184612e36565b95945050505050565b600067ffffffffffffffff82169050919050565b61406181614044565b811461406c57600080fd5b50565b60008151905061407e81614058565b92915050565b60006020828403121561409a57614099612e6a565b5b60006140a88482850161406f565b91505092915050565b60006040820190506140c66000830185612e36565b6140d360208301846132f8565b9392505050565b7f4e487b7100000000000000000000000000000000000000000000000000000000600052601160045260246000fd5b600061411482612f65565b915061411f83612f65565b925082821015614132576141316140da565b5b828203905092915050565b7f4f776e61626c653a206e6577206f776e657220697320746865207a65726f206160008201527f6464726573730000000000000000000000000000000000000000000000000000602082015250565b6000614199602683613a50565b91506141a48261413d565b604082019050919050565b600060208201905081810360008301526141c88161418c565b9050919050565b600081519050919050565b60006141e5826141cf565b6141ef81856139f8565b93506141ff818560208601613d75565b80840191505092915050565b600061421782846141da565b915081905092915050565b60008151905061423181613c9c565b92915050565b60006020828403121561424d5761424c612e6a565b5b600061425b84828501614222565b91505092915050565b600061426f826141cf565b6142798185613b6f565b9350614289818560208601613d75565b614292816130b0565b840191505092915050565b60006040820190506142b260008301856132f8565b81810360208301526142c48184614264565b90509392505050565b7f4f776e61626c653a2063616c6c6572206973206e6f7420746865206f776e6572600082015250565b6000614303602083613a50565b915061430e826142cd565b602082019050919050565b60006020820190508181036000830152614332816142f6565b9050919050565b614342816136db565b82525050565b600060a08201905081810360008301526143628188614264565b905061437160208301876132f8565b61437e6040830186613a41565b61438b6060830185612e36565b6143986080830184614339565b9695505050505050565b600060a0820190506143b76000830188612e36565b81810360208301526143c98187613f62565b905081810360408301526143dd8186613f62565b905081810360608301526143f18185614264565b90506144006080830184612e36565b9695505050505050565b600060608201905081810360008301526144248186613f62565b905081810360208301526144388185613f62565b9050818103604083015261444c8184614264565b9050949350505050565b600060608201905061446b60008301866132f8565b818103602083015261447d8185613f62565b905081810360408301526144918184614264565b9050949350505050565b7f54524144455f4641494c45440000000000000000000000000000000000000000600082015250565b60006144d1600c83613a50565b91506144dc8261449b565b602082019050919050565b60006020820190508181036000830152614500816144c4565b9050919050565b600060408201905061451c60008301856132f8565b6145296020830184612e36565b9392505050565b60008151905061453f81612f6f565b92915050565b60006145586145538461363a565b613121565b905082815260208101848484011115614574576145736130ab565b5b61457f848285613d75565b509392505050565b600082601f83011261459c5761459b612eaa565b5b81516145ac848260208601614545565b91505092915050565b600080600080608085870312156145cf576145ce612e6a565b5b60006145dd87828801614222565b94505060206145ee87828801614530565b93505060406145ff87828801614222565b925050606085015167ffffffffffffffff8111156146205761461f612e6f565b5b61462c87828801614587565b91505092959194509250565b60008160601b9050919050565b600061465082614638565b9050919050565b600061466282614645565b9050919050565b61467a61467582612e24565b614657565b82525050565b600061468c8284614669565b60148201915081905092915050565b60006146a682612f65565b91506146b183612f65565b9250817fffffffffffffffffffffffffffffffffffffffffffffffffffffffffffffffff04831182151516156146ea576146e96140da565b5b828202905092915050565b600061470082612f65565b915061470b83612f65565b9250827fffffffffffffffffffffffffffffffffffffffffffffffffffffffffffffffff038211156147405761473f6140da565b5b828201905092915050565b7f4e487b7100000000000000000000000000000000000000000000000000000000600052603260045260246000fd5b600061478582612f65565b91507fffffffffffffffffffffffffffffffffffffffffffffffffffffffffffffffff8214156147b8576147b76140da565b5b600182019050919050565b6000602082840312156147d9576147d8612e6a565b5b60006147e784828501614530565b91505092915050565b7f5361666545524332303a204552433230206f7065726174696f6e20646964206e60008201527f6f74207375636365656400000000000000000000000000000000000000000000602082015250565b600061484c602a83613a50565b9150614857826147f0565b604082019050919050565b6000602082019050818103600083015261487b8161483f565b9050919050565b7f416464726573733a20696e73756666696369656e742062616c616e636520666f60008201527f722063616c6c0000000000000000000000000000000000000000000000000000602082015250565b60006148de602683613a50565b91506148e982614882565b604082019050919050565b6000602082019050818103600083015261490d816148d1565b9050919050565b7f416464726573733a2063616c6c20746f206e6f6e2d636f6e7472616374000000600082015250565b600061494a601d83613a50565b915061495582614914565b602082019050919050565b600060208201905081810360008301526149798161493d565b905091905056fea2646970667358221220bd0b13498209e27ff2024337cd5e731153404bf61ffdd62d61d0a8640cd6970264736f6c63430008090033",
  "devdoc": {
    "kind": "dev",
    "methods": {
      "owner()": {
        "details": "Returns the address of the current owner."
      },
      "renounceOwnership()": {
        "details": "Leaves the contract without owner. It will not be possible to call `onlyOwner` functions anymore. Can only be called by the current owner. NOTE: Renouncing ownership will leave the contract without an owner, thereby removing any functionality that is only available to the owner."
      },
      "transferOwnership(address)": {
        "details": "Transfers ownership of the contract to a new account (`newOwner`). Can only be called by the current owner."
      }
    },
    "version": 1
  },
  "userdoc": {
    "kind": "user",
    "methods": {},
    "version": 1
  },
  "storageLayout": {
    "storage": [
      {
        "astId": 14,
        "contract": "contracts/CircleSwapExecutable.sol:CircleSwapExecutable",
        "label": "gateway",
        "offset": 0,
        "slot": "0",
        "type": "t_contract(IAxelarGateway)1097"
      },
      {
        "astId": 18,
        "contract": "contracts/CircleSwapExecutable.sol:CircleSwapExecutable",
        "label": "forecallers",
        "offset": 0,
        "slot": "1",
        "type": "t_mapping(t_bytes32,t_address)"
      },
      {
        "astId": 1630,
        "contract": "contracts/CircleSwapExecutable.sol:CircleSwapExecutable",
        "label": "_owner",
        "offset": 0,
        "slot": "2",
        "type": "t_address"
      },
      {
        "astId": 3562,
        "contract": "contracts/CircleSwapExecutable.sol:CircleSwapExecutable",
        "label": "usdc",
        "offset": 0,
        "slot": "3",
        "type": "t_contract(USDC)5342"
      },
      {
        "astId": 3564,
        "contract": "contracts/CircleSwapExecutable.sol:CircleSwapExecutable",
        "label": "wrappedNativeToken",
        "offset": 0,
        "slot": "4",
        "type": "t_address"
      },
      {
        "astId": 3567,
        "contract": "contracts/CircleSwapExecutable.sol:CircleSwapExecutable",
        "label": "circleBridge",
        "offset": 0,
        "slot": "5",
        "type": "t_contract(CircleBridge)3501"
      },
      {
        "astId": 3571,
        "contract": "contracts/CircleSwapExecutable.sol:CircleSwapExecutable",
        "label": "siblings",
        "offset": 0,
        "slot": "6",
        "type": "t_mapping(t_string_memory_ptr,t_address)"
      },
      {
        "astId": 3575,
        "contract": "contracts/CircleSwapExecutable.sol:CircleSwapExecutable",
        "label": "destinationDomains",
        "offset": 0,
        "slot": "7",
        "type": "t_mapping(t_string_memory_ptr,t_uint32)"
      }
    ],
    "types": {
      "t_address": {
        "encoding": "inplace",
        "label": "address",
        "numberOfBytes": "20"
      },
      "t_bytes32": {
        "encoding": "inplace",
        "label": "bytes32",
        "numberOfBytes": "32"
      },
      "t_contract(CircleBridge)3501": {
        "encoding": "inplace",
        "label": "contract CircleBridge",
        "numberOfBytes": "20"
      },
      "t_contract(IAxelarGateway)1097": {
        "encoding": "inplace",
        "label": "contract IAxelarGateway",
        "numberOfBytes": "20"
      },
      "t_contract(USDC)5342": {
        "encoding": "inplace",
        "label": "contract USDC",
        "numberOfBytes": "20"
      },
      "t_mapping(t_bytes32,t_address)": {
        "encoding": "mapping",
        "key": "t_bytes32",
        "label": "mapping(bytes32 => address)",
        "numberOfBytes": "32",
        "value": "t_address"
      },
      "t_mapping(t_string_memory_ptr,t_address)": {
        "encoding": "mapping",
        "key": "t_string_memory_ptr",
        "label": "mapping(string => address)",
        "numberOfBytes": "32",
        "value": "t_address"
      },
      "t_mapping(t_string_memory_ptr,t_uint32)": {
        "encoding": "mapping",
        "key": "t_string_memory_ptr",
        "label": "mapping(string => uint32)",
        "numberOfBytes": "32",
        "value": "t_uint32"
      },
      "t_string_memory_ptr": {
        "encoding": "bytes",
        "label": "string",
        "numberOfBytes": "32"
      },
      "t_uint32": {
        "encoding": "inplace",
        "label": "uint32",
        "numberOfBytes": "4"
      }
    }
  }
}