{
  "address": "0x18573F9EA647A1ec87456D99978A94C2431347BE",
  "abi": [
    {
      "inputs": [
        {
          "internalType": "address",
          "name": "_gateway",
          "type": "address"
        },
        {
          "internalType": "address",
          "name": "_gasReceiver",
          "type": "address"
        },
        {
          "internalType": "address",
          "name": "_usdc",
          "type": "address"
        },
        {
          "internalType": "address",
          "name": "_circleBridge",
          "type": "address"
        },
        {
          "internalType": "address",
          "name": "_wrappedNativeAddress",
          "type": "address"
        }
      ],
      "stateMutability": "nonpayable",
      "type": "constructor"
    },
    {
      "inputs": [],
      "name": "AlreadyForecalled",
      "type": "error"
    },
    {
      "inputs": [],
      "name": "InsufficientInput",
      "type": "error"
    },
    {
      "inputs": [],
      "name": "InvalidTrade",
      "type": "error"
    },
    {
      "inputs": [],
      "name": "NotApprovedByGateway",
      "type": "error"
    },
    {
      "inputs": [],
      "name": "TradeFailed",
      "type": "error"
    },
    {
      "inputs": [],
      "name": "TransferFailed",
      "type": "error"
    },
    {
      "anonymous": false,
      "inputs": [
        {
          "indexed": true,
          "internalType": "address",
          "name": "previousOwner",
          "type": "address"
        },
        {
          "indexed": true,
          "internalType": "address",
          "name": "newOwner",
          "type": "address"
        }
      ],
      "name": "OwnershipTransferred",
      "type": "event"
    },
    {
      "anonymous": false,
      "inputs": [
        {
          "indexed": true,
          "internalType": "bytes32",
          "name": "traceId",
          "type": "bytes32"
        },
        {
          "indexed": false,
          "internalType": "uint256",
          "name": "amount",
          "type": "uint256"
        },
        {
          "indexed": false,
          "internalType": "address",
          "name": "refundAddress",
          "type": "address"
        }
      ],
      "name": "SwapFailed",
      "type": "event"
    },
    {
      "anonymous": false,
      "inputs": [
        {
          "indexed": true,
          "internalType": "bytes32",
          "name": "traceId",
          "type": "bytes32"
        },
        {
          "indexed": true,
          "internalType": "bytes32",
          "name": "payloadHash",
          "type": "bytes32"
        },
        {
          "indexed": false,
          "internalType": "uint256",
          "name": "amount",
          "type": "uint256"
        },
        {
          "indexed": false,
          "internalType": "string",
          "name": "destinationChain",
          "type": "string"
        },
        {
          "indexed": false,
          "internalType": "bytes",
          "name": "payload",
          "type": "bytes"
        }
      ],
      "name": "SwapPending",
      "type": "event"
    },
    {
      "anonymous": false,
      "inputs": [
        {
          "indexed": true,
          "internalType": "bytes32",
          "name": "traceId",
          "type": "bytes32"
        },
        {
          "indexed": false,
          "internalType": "uint256",
          "name": "amount",
          "type": "uint256"
        },
        {
          "indexed": false,
          "internalType": "bytes",
          "name": "tradeData",
          "type": "bytes"
        }
      ],
      "name": "SwapSuccess",
      "type": "event"
    },
    {
      "inputs": [
        {
          "internalType": "string",
          "name": "chain_",
          "type": "string"
        },
        {
          "internalType": "uint32",
          "name": "domain",
          "type": "uint32"
        },
        {
          "internalType": "address",
          "name": "address_",
          "type": "address"
        }
      ],
      "name": "addSibling",
      "outputs": [],
      "stateMutability": "nonpayable",
      "type": "function"
    },
    {
      "inputs": [
        {
          "internalType": "uint256",
          "name": "amount",
          "type": "uint256"
        },
        {
          "internalType": "bytes",
          "name": "",
          "type": "bytes"
        }
      ],
      "name": "amountPostFee",
      "outputs": [
        {
          "internalType": "uint256",
          "name": "",
          "type": "uint256"
        }
      ],
      "stateMutability": "nonpayable",
      "type": "function"
    },
    {
      "inputs": [],
      "name": "circleBridge",
      "outputs": [
        {
          "internalType": "contract ICircleBridge",
          "name": "",
          "type": "address"
        }
      ],
      "stateMutability": "view",
      "type": "function"
    },
    {
      "inputs": [
        {
          "internalType": "string",
          "name": "",
          "type": "string"
        }
      ],
      "name": "destinationDomains",
      "outputs": [
        {
          "internalType": "uint32",
          "name": "",
          "type": "uint32"
        }
      ],
      "stateMutability": "view",
      "type": "function"
    },
    {
      "inputs": [
        {
          "internalType": "string",
          "name": "",
          "type": "string"
        },
        {
          "internalType": "string",
          "name": "",
          "type": "string"
        },
        {
          "internalType": "bytes",
          "name": "payload",
          "type": "bytes"
        }
      ],
      "name": "execute",
      "outputs": [],
      "stateMutability": "nonpayable",
      "type": "function"
    },
    {
      "inputs": [
        {
          "internalType": "bytes32",
          "name": "commandId",
          "type": "bytes32"
        },
        {
          "internalType": "string",
          "name": "sourceChain",
          "type": "string"
        },
        {
          "internalType": "string",
          "name": "sourceAddress",
          "type": "string"
        },
        {
          "internalType": "bytes",
          "name": "payload",
          "type": "bytes"
        }
      ],
      "name": "execute",
      "outputs": [],
      "stateMutability": "nonpayable",
      "type": "function"
    },
    {
      "inputs": [
        {
          "internalType": "bytes32",
          "name": "commandId",
          "type": "bytes32"
        },
        {
          "internalType": "string",
          "name": "sourceChain",
          "type": "string"
        },
        {
          "internalType": "string",
          "name": "sourceAddress",
          "type": "string"
        },
        {
          "internalType": "bytes",
          "name": "payload",
          "type": "bytes"
        },
        {
          "internalType": "string",
          "name": "tokenSymbol",
          "type": "string"
        },
        {
          "internalType": "uint256",
          "name": "amount",
          "type": "uint256"
        }
      ],
      "name": "executeWithToken",
      "outputs": [],
      "stateMutability": "nonpayable",
      "type": "function"
    },
    {
      "inputs": [
        {
          "internalType": "string",
          "name": "sourceChain",
          "type": "string"
        },
        {
          "internalType": "string",
          "name": "sourceAddress",
          "type": "string"
        },
        {
          "internalType": "bytes",
          "name": "payload",
          "type": "bytes"
        },
        {
          "internalType": "address",
          "name": "forecaller",
          "type": "address"
        }
      ],
      "name": "forecall",
      "outputs": [],
      "stateMutability": "nonpayable",
      "type": "function"
    },
    {
      "inputs": [
        {
          "internalType": "string",
          "name": "sourceChain",
          "type": "string"
        },
        {
          "internalType": "string",
          "name": "sourceAddress",
          "type": "string"
        },
        {
          "internalType": "bytes",
          "name": "payload",
          "type": "bytes"
        },
        {
          "internalType": "string",
          "name": "tokenSymbol",
          "type": "string"
        },
        {
          "internalType": "uint256",
          "name": "amount",
          "type": "uint256"
        },
        {
          "internalType": "address",
          "name": "forecaller",
          "type": "address"
        }
      ],
      "name": "forecallWithToken",
      "outputs": [],
      "stateMutability": "nonpayable",
      "type": "function"
    },
    {
      "inputs": [],
      "name": "gateway",
      "outputs": [
        {
          "internalType": "contract IAxelarGateway",
          "name": "",
          "type": "address"
        }
      ],
      "stateMutability": "view",
      "type": "function"
    },
    {
      "inputs": [
        {
          "internalType": "string",
          "name": "destinationChain",
          "type": "string"
        },
        {
          "internalType": "bytes",
          "name": "tradeData1",
          "type": "bytes"
        },
        {
          "internalType": "bytes",
          "name": "tradeData2",
          "type": "bytes"
        },
        {
          "internalType": "bytes32",
          "name": "traceId",
          "type": "bytes32"
        },
        {
          "internalType": "address",
          "name": "fallbackRecipient",
          "type": "address"
        },
        {
          "internalType": "uint16",
          "name": "inputPos",
          "type": "uint16"
        }
      ],
      "name": "nativeTradeSendTrade",
      "outputs": [],
      "stateMutability": "payable",
      "type": "function"
    },
    {
      "inputs": [],
      "name": "owner",
      "outputs": [
        {
          "internalType": "address",
          "name": "",
          "type": "address"
        }
      ],
      "stateMutability": "view",
      "type": "function"
    },
    {
      "inputs": [],
      "name": "renounceOwnership",
      "outputs": [],
      "stateMutability": "nonpayable",
      "type": "function"
    },
    {
      "inputs": [
        {
          "internalType": "string",
          "name": "",
          "type": "string"
        }
      ],
      "name": "siblings",
      "outputs": [
        {
          "internalType": "address",
          "name": "",
          "type": "address"
        }
      ],
      "stateMutability": "view",
      "type": "function"
    },
    {
      "inputs": [
        {
          "internalType": "address",
          "name": "newOwner",
          "type": "address"
        }
      ],
      "name": "transferOwnership",
      "outputs": [],
      "stateMutability": "nonpayable",
      "type": "function"
    },
    {
      "inputs": [],
      "name": "usdc",
      "outputs": [
        {
          "internalType": "contract IERC20",
          "name": "",
          "type": "address"
        }
      ],
      "stateMutability": "view",
      "type": "function"
    },
    {
      "inputs": [],
      "name": "wrappedNativeToken",
      "outputs": [
        {
          "internalType": "address",
          "name": "",
          "type": "address"
        }
      ],
      "stateMutability": "view",
      "type": "function"
    }
  ],
  "transactionHash": "0xa18bb4b4f54e5a10239aa593c1de7367f3c81ccce5b2fcec4b89ab18c45d176c",
  "args": [
    "0xC249632c2D40b9001FE907806902f63038B737Ab",
    "0xbE406F0189A0B4cf3A05C286473D23791Dd44Cc6",
    "0x5425890298aed601595a70ab815c96711a31bc65",
    "0x0fC1103927AF27aF808D03135214718bCEDbE9ad",
    "0xd00ae08403B9bbb9124bB305C09058E32C39A48c"
  ],
  "numDeployments": 1,
  "solcInputHash": "0a78788b2e1726f5ba657698b0f541e7",
  "bytecode": "0x60a06040523480156200001157600080fd5b50604051620048c1380380620048c18339818101604052810190620000379190620002d3565b84806000806101000a81548173ffffffffffffffffffffffffffffffffffffffff021916908373ffffffffffffffffffffffffffffffffffffffff16021790555050620000996200008d6200019b60201b60201c565b620001a360201b60201c565b8373ffffffffffffffffffffffffffffffffffffffff1660808173ffffffffffffffffffffffffffffffffffffffff168152505082600360006101000a81548173ffffffffffffffffffffffffffffffffffffffff021916908373ffffffffffffffffffffffffffffffffffffffff16021790555081600560006101000a81548173ffffffffffffffffffffffffffffffffffffffff021916908373ffffffffffffffffffffffffffffffffffffffff16021790555080600460006101000a81548173ffffffffffffffffffffffffffffffffffffffff021916908373ffffffffffffffffffffffffffffffffffffffff16021790555050505050506200035b565b600033905090565b6000600260009054906101000a900473ffffffffffffffffffffffffffffffffffffffff16905081600260006101000a81548173ffffffffffffffffffffffffffffffffffffffff021916908373ffffffffffffffffffffffffffffffffffffffff1602179055508173ffffffffffffffffffffffffffffffffffffffff168173ffffffffffffffffffffffffffffffffffffffff167f8be0079c531659141344cd1fd0a4f28419497f9722a3daafe3b4186f6b6457e060405160405180910390a35050565b600080fd5b600073ffffffffffffffffffffffffffffffffffffffff82169050919050565b60006200029b826200026e565b9050919050565b620002ad816200028e565b8114620002b957600080fd5b50565b600081519050620002cd81620002a2565b92915050565b600080600080600060a08688031215620002f257620002f162000269565b5b60006200030288828901620002bc565b95505060206200031588828901620002bc565b94505060406200032888828901620002bc565b93505060606200033b88828901620002bc565b92505060806200034e88828901620002bc565b9150509295509295909350565b60805161454a620003776000396000611a00015261454a6000f3fe6080604052600436106100fe5760003560e01c80634916065811610095578063a7798b6911610064578063a7798b691461030f578063bb288a031461034c578063daa0c91714610375578063e7fb058b14610391578063f2fde38b146103ba576100fe565b80634916065814610267578063713a987614610290578063715018a6146102cd5780638da5cb5b146102e4576100fe565b80633913c080116100d15780633913c080146101ad5780633ca2fd8e146101d65780633da2a4b5146102135780633e413bee1461023c576100fe565b806301a67b6b14610103578063116191b61461012e57806317fcb39b146101595780631a98b2e014610184575b600080fd5b34801561010f57600080fd5b506101186103e3565b6040516101259190612a26565b60405180910390f35b34801561013a57600080fd5b50610143610409565b6040516101509190612a62565b60405180910390f35b34801561016557600080fd5b5061016e61042d565b60405161017b9190612a9e565b60405180910390f35b34801561019057600080fd5b506101ab60048036038101906101a69190612bf4565b610453565b005b3480156101b957600080fd5b506101d460048036038101906101cf9190612e45565b610835565b005b3480156101e257600080fd5b506101fd60048036038101906101f89190612ef1565b61086f565b60405161020a9190612f60565b60405180910390f35b34801561021f57600080fd5b5061023a60048036038101906102359190612fe3565b61087b565b005b34801561024857600080fd5b50610251610922565b60405161025e9190613073565b60405180910390f35b34801561027357600080fd5b5061028e6004803603810190610289919061308e565b610948565b005b34801561029c57600080fd5b506102b760048036038101906102b29190613157565b610c13565b6040516102c491906131af565b60405180910390f35b3480156102d957600080fd5b506102e2610c4c565b005b3480156102f057600080fd5b506102f9610c4e565b6040516103069190612a9e565b60405180910390f35b34801561031b57600080fd5b5061033660048036038101906103319190613157565b610c78565b6040516103439190612a9e565b60405180910390f35b34801561035857600080fd5b50610373600480360381019061036e91906131ca565b610cc1565b005b61038f600480360381019061038a919061336e565b610eb8565b005b34801561039d57600080fd5b506103b860048036038101906103b3919061344f565b61126d565b005b3480156103c657600080fd5b506103e160048036038101906103dc919061355f565b611588565b005b600560009054906101000a900473ffffffffffffffffffffffffffffffffffffffff1681565b60008054906101000a900473ffffffffffffffffffffffffffffffffffffffff1681565b600460009054906101000a900473ffffffffffffffffffffffffffffffffffffffff1681565b600085856040516104659291906135bc565b6040518091039020905060008054906101000a900473ffffffffffffffffffffffffffffffffffffffff1673ffffffffffffffffffffffffffffffffffffffff16631876eed98c8c8c8c8c878b8b8b6040518a63ffffffff1660e01b81526004016104d899989796959493929190613622565b602060405180830381600087803b1580156104f257600080fd5b505af1158015610506573d6000803e3d6000fd5b505050506040513d601f19601f8201168201806040525081019061052a91906136d6565b610560576040517f500c44b400000000000000000000000000000000000000000000000000000000815260040160405180910390fd5b6000600160008c8c8c8c8c8c8c8c8c60405160200161058799989796959493929190613741565b60405160208183030381529060405280519060200120815260200190815260200160002060009054906101000a900473ffffffffffffffffffffffffffffffffffffffff169050600073ffffffffffffffffffffffffffffffffffffffff168173ffffffffffffffffffffffffffffffffffffffff161461074c576000600160008d8d8d8d8d8d8d8d8d60405160200161062999989796959493929190613741565b60405160208183030381529060405280519060200120815260200190815260200160002060006101000a81548173ffffffffffffffffffffffffffffffffffffffff021916908373ffffffffffffffffffffffffffffffffffffffff16021790555060008060009054906101000a900473ffffffffffffffffffffffffffffffffffffffff1673ffffffffffffffffffffffffffffffffffffffff1663935b13f687876040518363ffffffff1660e01b81526004016106e99291906137b8565b60206040518083038186803b15801561070157600080fd5b505afa158015610715573d6000803e3d6000fd5b505050506040513d601f19601f8201168201806040525081019061073991906137f1565b905061074681838661160c565b50610827565b6108268b8b8080601f016020809104026020016040519081016040528093929190818152602001838380828437600081840152601f19601f820116905080830192505050505050508a8a8080601f016020809104026020016040519081016040528093929190818152602001838380828437600081840152601f19601f82011690508083019250505050505050898989898080601f016020809104026020016040519081016040528093929190818152602001838380828437600081840152601f19601f8201169050808301925050505050505088611782565b5b505050505050505050505050565b6000806000806000868681019061084c919061385c565b94509450945094509450610863848685858561178a565b50505050505050505050565b60008390509392505050565b61088361187a565b80600684604051610894919061396d565b908152602001604051809103902060006101000a81548173ffffffffffffffffffffffffffffffffffffffff021916908373ffffffffffffffffffffffffffffffffffffffff160217905550816007846040516108f1919061396d565b908152602001604051809103902060006101000a81548163ffffffff021916908363ffffffff160217905550505050565b600360009054906101000a900473ffffffffffffffffffffffffffffffffffffffff1681565b6000828260405161095a9291906135bc565b6040518091039020905060008054906101000a900473ffffffffffffffffffffffffffffffffffffffff1673ffffffffffffffffffffffffffffffffffffffff16635f6970c38989898989876040518763ffffffff1660e01b81526004016109c796959493929190613984565b602060405180830381600087803b1580156109e157600080fd5b505af11580156109f5573d6000803e3d6000fd5b505050506040513d601f19601f82011682018060405250810190610a1991906136d6565b610a4f576040517f500c44b400000000000000000000000000000000000000000000000000000000815260040160405180910390fd5b600060016000898989898989604051602001610a70969594939291906139db565b60405160208183030381529060405280519060200120815260200190815260200160002060009054906101000a900473ffffffffffffffffffffffffffffffffffffffff169050600073ffffffffffffffffffffffffffffffffffffffff168173ffffffffffffffffffffffffffffffffffffffff1614610b73576000600160008a8a8a8a8a8a604051602001610b0c969594939291906139db565b60405160208183030381529060405280519060200120815260200190815260200160002060006101000a81548173ffffffffffffffffffffffffffffffffffffffff021916908373ffffffffffffffffffffffffffffffffffffffff160217905550610c08565b610c0788888080601f016020809104026020016040519081016040528093929190818152602001838380828437600081840152601f19601f8201169050808301925050505050505087878080601f016020809104026020016040519081016040528093929190818152602001838380828437600081840152601f19601f8201169050808301925050505050505086866118f8565b5b505050505050505050565b6007818051602081018201805184825260208301602085012081835280955050505050506000915054906101000a900463ffffffff1681565b565b6000600260009054906101000a900473ffffffffffffffffffffffffffffffffffffffff16905090565b6006818051602081018201805184825260208301602085012081835280955050505050506000915054906101000a900473ffffffffffffffffffffffffffffffffffffffff1681565b610cd0878787878787876118fe565b600073ffffffffffffffffffffffffffffffffffffffff1660016000898989898989604051602001610d07969594939291906139db565b60405160208183030381529060405280519060200120815260200190815260200160002060009054906101000a900473ffffffffffffffffffffffffffffffffffffffff1673ffffffffffffffffffffffffffffffffffffffff1614610d99576040517f35b7d55000000000000000000000000000000000000000000000000000000000815260040160405180910390fd5b8060016000898989898989604051602001610db9969594939291906139db565b60405160208183030381529060405280519060200120815260200190815260200160002060006101000a81548173ffffffffffffffffffffffffffffffffffffffff021916908373ffffffffffffffffffffffffffffffffffffffff160217905550610eaf87878080601f016020809104026020016040519081016040528093929190818152602001838380828437600081840152601f19601f8201169050808301925050505050505086868080601f016020809104026020016040519081016040528093929190818152602001838380828437600081840152601f19601f8201169050808301925050505050505085856118f8565b50505050505050565b85600073ffffffffffffffffffffffffffffffffffffffff16600682604051610ee1919061396d565b908152602001604051809103902060009054906101000a900473ffffffffffffffffffffffffffffffffffffffff1673ffffffffffffffffffffffffffffffffffffffff161415610f67576040517f08c379a0000000000000000000000000000000000000000000000000000000008152600401610f5e90613a9f565b60405180910390fd5b600080610f7388611907565b91509150600360009054906101000a900473ffffffffffffffffffffffffffffffffffffffff1673ffffffffffffffffffffffffffffffffffffffff1663095ea7b3600560009054906101000a900473ffffffffffffffffffffffffffffffffffffffff16836040518363ffffffff1660e01b8152600401610ff6929190613abf565b602060405180830381600087803b15801561101057600080fd5b505af1158015611024573d6000803e3d6000fd5b505050506040513d601f19601f8201168201806040525081019061104891906136d6565b50600560009054906101000a900473ffffffffffffffffffffffffffffffffffffffff1673ffffffffffffffffffffffffffffffffffffffff16636fd3504e823073ffffffffffffffffffffffffffffffffffffffff1663713a98768d6040518263ffffffff1660e01b81526004016110c19190613b21565b60206040518083038186803b1580156110d957600080fd5b505afa1580156110ed573d6000803e3d6000fd5b505050506040513d601f19601f820116820180604052508101906111119190613b58565b3073ffffffffffffffffffffffffffffffffffffffff1663a7798b698e6040518263ffffffff1660e01b815260040161114a9190613b21565b60206040518083038186803b15801561116257600080fd5b505afa158015611176573d6000803e3d6000fd5b505050506040513d601f19601f8201168201806040525081019061119a91906137f1565b73ffffffffffffffffffffffffffffffffffffffff1660001b600360009054906101000a900473ffffffffffffffffffffffffffffffffffffffff166040518563ffffffff1660e01b81526004016111f59493929190613b85565b602060405180830381600087803b15801561120f57600080fd5b505af1158015611223573d6000803e3d6000fd5b505050506040513d601f19601f820116820180604052508101906112479190613c0a565b50611262898883853461125a9190613c66565b8a8a8a6119d2565b505050505050505050565b60008060009054906101000a900473ffffffffffffffffffffffffffffffffffffffff1673ffffffffffffffffffffffffffffffffffffffff1663935b13f686866040518363ffffffff1660e01b81526004016112cb9291906137b8565b60206040518083038186803b1580156112e357600080fd5b505afa1580156112f7573d6000803e3d6000fd5b505050506040513d601f19601f8201168201806040525081019061131b91906137f1565b9050600061132a84898961086f565b9050611337823383611c8f565b6113498c8c8c8c8c8c8c8c8c8c611e07565b600073ffffffffffffffffffffffffffffffffffffffff16600160008e8e8e8e8e8e8e8e8e60405160200161138699989796959493929190613741565b60405160208183030381529060405280519060200120815260200190815260200160002060009054906101000a900473ffffffffffffffffffffffffffffffffffffffff1673ffffffffffffffffffffffffffffffffffffffff1614611418576040517f35b7d55000000000000000000000000000000000000000000000000000000000815260040160405180910390fd5b82600160008e8e8e8e8e8e8e8e8e60405160200161143e99989796959493929190613741565b60405160208183030381529060405280519060200120815260200190815260200160002060006101000a81548173ffffffffffffffffffffffffffffffffffffffff021916908373ffffffffffffffffffffffffffffffffffffffff16021790555061157a8c8c8080601f016020809104026020016040519081016040528093929190818152602001838380828437600081840152601f19601f820116905080830192505050505050508b8b8080601f016020809104026020016040519081016040528093929190818152602001838380828437600081840152601f19601f820116905080830192505050505050508a8a8a8a8080601f016020809104026020016040519081016040528093929190818152602001838380828437600081840152601f19601f8201169050808301925050505050505086611782565b505050505050505050505050565b61159061187a565b600073ffffffffffffffffffffffffffffffffffffffff168173ffffffffffffffffffffffffffffffffffffffff161415611600576040517f08c379a00000000000000000000000000000000000000000000000000000000081526004016115f790613d0c565b60405180910390fd5b61160981611e13565b50565b6000808473ffffffffffffffffffffffffffffffffffffffff1663a9059cbb60e01b8585604051602401611641929190613abf565b604051602081830303815290604052907bffffffffffffffffffffffffffffffffffffffffffffffffffffffff19166020820180517bffffffffffffffffffffffffffffffffffffffffffffffffffffffff83818316178352505050506040516116ab9190613d68565b6000604051808303816000865af19150503d80600081146116e8576040519150601f19603f3d011682016040523d82523d6000602084013e6116ed565b606091505b5091509150600082801561171d575060008251148061171c57508180602001905181019061171b91906136d6565b5b5b9050801580611743575060008673ffffffffffffffffffffffffffffffffffffffff163b145b1561177a576040517f90b8ec1800000000000000000000000000000000000000000000000000000000815260040160405180910390fd5b505050505050565b505050505050565b600080858060200190518101906117a19190613d94565b9050600360009054906101000a900473ffffffffffffffffffffffffffffffffffffffff1673ffffffffffffffffffffffffffffffffffffffff168173ffffffffffffffffffffffffffffffffffffffff161461180b57611803858886611ed9565b915050611871565b868387015261181a8688611f2a565b61183157611829858886611ed9565b915050611871565b847f2eee7242b494decec975364a3a68cc2983c8c343618698e44ca690103af761758888604051611863929190613dfa565b60405180910390a260019150505b95945050505050565b61188261204f565b73ffffffffffffffffffffffffffffffffffffffff166118a0610c4e565b73ffffffffffffffffffffffffffffffffffffffff16146118f6576040517f08c379a00000000000000000000000000000000000000000000000000000000081526004016118ed90613e76565b60405180910390fd5b565b50505050565b50505050505050565b6000806000611937600360009054906101000a900473ffffffffffffffffffffffffffffffffffffffff16612057565b9050600080611945866120e9565b9150915081611989576040517f08c379a000000000000000000000000000000000000000000000000000000000815260040161198090613ee2565b60405180910390fd5b6000836119b7600360009054906101000a900473ffffffffffffffffffffffffffffffffffffffff16612057565b6119c19190613c66565b905081819550955050505050915091565b600086868585856040516020016119ed959493929190613f11565b60405160208183030381529060405290507f000000000000000000000000000000000000000000000000000000000000000073ffffffffffffffffffffffffffffffffffffffff16630c93e3bb86308b611ace3073ffffffffffffffffffffffffffffffffffffffff1663a7798b698f6040518263ffffffff1660e01b8152600401611a799190613b21565b60206040518083038186803b158015611a9157600080fd5b505afa158015611aa5573d6000803e3d6000fd5b505050506040513d601f19601f82011682018060405250810190611ac991906137f1565b6122cd565b86336040518763ffffffff1660e01b8152600401611af0959493929190613f6b565b6000604051808303818588803b158015611b0957600080fd5b505af1158015611b1d573d6000803e3d6000fd5b505050505060008054906101000a900473ffffffffffffffffffffffffffffffffffffffff1673ffffffffffffffffffffffffffffffffffffffff16631c92115f89611bf03073ffffffffffffffffffffffffffffffffffffffff1663a7798b698d6040518263ffffffff1660e01b8152600401611b9b9190613b21565b60206040518083038186803b158015611bb357600080fd5b505afa158015611bc7573d6000803e3d6000fd5b505050506040513d601f19601f82011682018060405250810190611beb91906137f1565b6122cd565b846040518463ffffffff1660e01b8152600401611c0f93929190613fd3565b600060405180830381600087803b158015611c2957600080fd5b505af1158015611c3d573d6000803e3d6000fd5b505050508080519060200120847f603f384676075b3ec165d26daed675db50dfd83d03f3d12e2eecad1a52da8221888b85604051611c7d9392919061401f565b60405180910390a35050505050505050565b6000808473ffffffffffffffffffffffffffffffffffffffff166323b872dd60e01b853086604051602401611cc693929190614064565b604051602081830303815290604052907bffffffffffffffffffffffffffffffffffffffffffffffffffffffff19166020820180517bffffffffffffffffffffffffffffffffffffffffffffffffffffffff8381831617835250505050604051611d309190613d68565b6000604051808303816000865af19150503d8060008114611d6d576040519150601f19603f3d011682016040523d82523d6000602084013e611d72565b606091505b50915091506000828015611da25750600082511480611da1575081806020019051810190611da091906136d6565b5b5b9050801580611dc8575060008673ffffffffffffffffffffffffffffffffffffffff163b145b15611dff576040517f90b8ec1800000000000000000000000000000000000000000000000000000000815260040160405180910390fd5b505050505050565b50505050505050505050565b6000600260009054906101000a900473ffffffffffffffffffffffffffffffffffffffff16905081600260006101000a81548173ffffffffffffffffffffffffffffffffffffffff021916908373ffffffffffffffffffffffffffffffffffffffff1602179055508173ffffffffffffffffffffffffffffffffffffffff168173ffffffffffffffffffffffffffffffffffffffff167f8be0079c531659141344cd1fd0a4f28419497f9722a3daafe3b4186f6b6457e060405160405180910390a35050565b6000611ee583836125ea565b837f558c0ee8c786238cf77a23150b8f030420c53c82aa0488213ace44ee1cfc92f48484604051611f1792919061409b565b60405180910390a2600090509392505050565b60008060008085806020019051810190611f449190614149565b935093505092508273ffffffffffffffffffffffffffffffffffffffff1663095ea7b383876040518363ffffffff1660e01b8152600401611f86929190613abf565b602060405180830381600087803b158015611fa057600080fd5b505af1158015611fb4573d6000803e3d6000fd5b505050506040513d601f19601f82011682018060405250810190611fd891906136d6565b508173ffffffffffffffffffffffffffffffffffffffff1681604051611ffe9190613d68565b6000604051808303816000865af19150503d806000811461203b576040519150601f19603f3d011682016040523d82523d6000602084013e612040565b606091505b50508094505050505092915050565b600033905090565b60008173ffffffffffffffffffffffffffffffffffffffff166370a08231306040518263ffffffff1660e01b81526004016120929190612a9e565b60206040518083038186803b1580156120aa57600080fd5b505afa1580156120be573d6000803e3d6000fd5b505050506040513d601f19601f820116820180604052508101906120e291906141cc565b9050919050565b600080600080600080868060200190518101906121069190614149565b9350935093509350600073ffffffffffffffffffffffffffffffffffffffff168473ffffffffffffffffffffffffffffffffffffffff1614156121b6578173ffffffffffffffffffffffffffffffffffffffff1683826040516121699190613d68565b60006040518083038185875af1925050503d80600081146121a6576040519150601f19603f3d011682016040523d82523d6000602084013e6121ab565b606091505b5050809650506122be565b6121c28433308661261b565b8373ffffffffffffffffffffffffffffffffffffffff1663095ea7b383856040518363ffffffff1660e01b81526004016121fd929190613abf565b602060405180830381600087803b15801561221757600080fd5b505af115801561222b573d6000803e3d6000fd5b505050506040513d601f19601f8201168201806040525081019061224f91906136d6565b508173ffffffffffffffffffffffffffffffffffffffff16816040516122759190613d68565b6000604051808303816000865af19150503d80600081146122b2576040519150601f19603f3d011682016040523d82523d6000602084013e6122b7565b606091505b5050809650505b85839550955050505050915091565b60606000826040516020016122e29190614241565b604051602081830303815290604052905060006040518060400160405280601081526020017f3031323334353637383961626364656600000000000000000000000000000000815250905060006002835161233d919061425c565b600261234991906142b6565b67ffffffffffffffff81111561236257612361612d1a565b5b6040519080825280601f01601f1916602001820160405280156123945781602001600182028036833780820191505090505b5090507f3000000000000000000000000000000000000000000000000000000000000000816000815181106123cc576123cb61430c565b5b60200101907effffffffffffffffffffffffffffffffffffffffffffffffffffffffffffff1916908160001a9053507f7800000000000000000000000000000000000000000000000000000000000000816001815181106124305761242f61430c565b5b60200101907effffffffffffffffffffffffffffffffffffffffffffffffffffffffffffff1916908160001a90535060005b83518110156125de578260048583815181106124815761248061430c565b5b602001015160f81c60f81b7effffffffffffffffffffffffffffffffffffffffffffffffffffffffffffff1916901c60f81c60ff16815181106124c7576124c661430c565b5b602001015160f81c60f81b826002836124e0919061425c565b60026124ec91906142b6565b815181106124fd576124fc61430c565b5b60200101907effffffffffffffffffffffffffffffffffffffffffffffffffffffffffffff1916908160001a90535082600f60f81b8583815181106125455761254461430c565b5b602001015160f81c60f81b1660f81c60ff16815181106125685761256761430c565b5b602001015160f81c60f81b82600283612581919061425c565b600361258d91906142b6565b8151811061259e5761259d61430c565b5b60200101907effffffffffffffffffffffffffffffffffffffffffffffffffffffffffffff1916908160001a905350806125d79061433b565b9050612462565b50809350505050919050565b612617600360009054906101000a900473ffffffffffffffffffffffffffffffffffffffff1682846126a4565b5050565b61269e846323b872dd60e01b85858560405160240161263c93929190614064565b604051602081830303815290604052907bffffffffffffffffffffffffffffffffffffffffffffffffffffffff19166020820180517bffffffffffffffffffffffffffffffffffffffffffffffffffffffff838183161783525050505061272a565b50505050565b6127258363a9059cbb60e01b84846040516024016126c3929190613abf565b604051602081830303815290604052907bffffffffffffffffffffffffffffffffffffffffffffffffffffffff19166020820180517bffffffffffffffffffffffffffffffffffffffffffffffffffffffff838183161783525050505061272a565b505050565b600061278c826040518060400160405280602081526020017f5361666545524332303a206c6f772d6c6576656c2063616c6c206661696c65648152508573ffffffffffffffffffffffffffffffffffffffff166127f19092919063ffffffff16565b90506000815111156127ec57808060200190518101906127ac91906136d6565b6127eb576040517f08c379a00000000000000000000000000000000000000000000000000000000081526004016127e2906143f6565b60405180910390fd5b5b505050565b60606128008484600085612809565b90509392505050565b60608247101561284e576040517f08c379a000000000000000000000000000000000000000000000000000000000815260040161284590614488565b60405180910390fd5b6128578561291d565b612896576040517f08c379a000000000000000000000000000000000000000000000000000000000815260040161288d906144f4565b60405180910390fd5b6000808673ffffffffffffffffffffffffffffffffffffffff1685876040516128bf9190613d68565b60006040518083038185875af1925050503d80600081146128fc576040519150601f19603f3d011682016040523d82523d6000602084013e612901565b606091505b5091509150612911828286612940565b92505050949350505050565b6000808273ffffffffffffffffffffffffffffffffffffffff163b119050919050565b60608315612950578290506129a0565b6000835111156129635782518084602001fd5b816040517f08c379a00000000000000000000000000000000000000000000000000000000081526004016129979190613b21565b60405180910390fd5b9392505050565b600073ffffffffffffffffffffffffffffffffffffffff82169050919050565b6000819050919050565b60006129ec6129e76129e2846129a7565b6129c7565b6129a7565b9050919050565b60006129fe826129d1565b9050919050565b6000612a10826129f3565b9050919050565b612a2081612a05565b82525050565b6000602082019050612a3b6000830184612a17565b92915050565b6000612a4c826129f3565b9050919050565b612a5c81612a41565b82525050565b6000602082019050612a776000830184612a53565b92915050565b6000612a88826129a7565b9050919050565b612a9881612a7d565b82525050565b6000602082019050612ab36000830184612a8f565b92915050565b6000604051905090565b600080fd5b600080fd5b6000819050919050565b612ae081612acd565b8114612aeb57600080fd5b50565b600081359050612afd81612ad7565b92915050565b600080fd5b600080fd5b600080fd5b60008083601f840112612b2857612b27612b03565b5b8235905067ffffffffffffffff811115612b4557612b44612b08565b5b602083019150836001820283011115612b6157612b60612b0d565b5b9250929050565b60008083601f840112612b7e57612b7d612b03565b5b8235905067ffffffffffffffff811115612b9b57612b9a612b08565b5b602083019150836001820283011115612bb757612bb6612b0d565b5b9250929050565b6000819050919050565b612bd181612bbe565b8114612bdc57600080fd5b50565b600081359050612bee81612bc8565b92915050565b60008060008060008060008060008060c08b8d031215612c1757612c16612ac3565b5b6000612c258d828e01612aee565b9a505060208b013567ffffffffffffffff811115612c4657612c45612ac8565b5b612c528d828e01612b12565b995099505060408b013567ffffffffffffffff811115612c7557612c74612ac8565b5b612c818d828e01612b12565b975097505060608b013567ffffffffffffffff811115612ca457612ca3612ac8565b5b612cb08d828e01612b68565b955095505060808b013567ffffffffffffffff811115612cd357612cd2612ac8565b5b612cdf8d828e01612b12565b935093505060a0612cf28d828e01612bdf565b9150509295989b9194979a5092959850565b600080fd5b6000601f19601f8301169050919050565b7f4e487b7100000000000000000000000000000000000000000000000000000000600052604160045260246000fd5b612d5282612d09565b810181811067ffffffffffffffff82111715612d7157612d70612d1a565b5b80604052505050565b6000612d84612ab9565b9050612d908282612d49565b919050565b600067ffffffffffffffff821115612db057612daf612d1a565b5b612db982612d09565b9050602081019050919050565b82818337600083830152505050565b6000612de8612de384612d95565b612d7a565b905082815260208101848484011115612e0457612e03612d04565b5b612e0f848285612dc6565b509392505050565b600082601f830112612e2c57612e2b612b03565b5b8135612e3c848260208601612dd5565b91505092915050565b60008060008060608587031215612e5f57612e5e612ac3565b5b600085013567ffffffffffffffff811115612e7d57612e7c612ac8565b5b612e8987828801612e17565b945050602085013567ffffffffffffffff811115612eaa57612ea9612ac8565b5b612eb687828801612e17565b935050604085013567ffffffffffffffff811115612ed757612ed6612ac8565b5b612ee387828801612b68565b925092505092959194509250565b600080600060408486031215612f0a57612f09612ac3565b5b6000612f1886828701612bdf565b935050602084013567ffffffffffffffff811115612f3957612f38612ac8565b5b612f4586828701612b68565b92509250509250925092565b612f5a81612bbe565b82525050565b6000602082019050612f756000830184612f51565b92915050565b600063ffffffff82169050919050565b612f9481612f7b565b8114612f9f57600080fd5b50565b600081359050612fb181612f8b565b92915050565b612fc081612a7d565b8114612fcb57600080fd5b50565b600081359050612fdd81612fb7565b92915050565b600080600060608486031215612ffc57612ffb612ac3565b5b600084013567ffffffffffffffff81111561301a57613019612ac8565b5b61302686828701612e17565b935050602061303786828701612fa2565b925050604061304886828701612fce565b9150509250925092565b600061305d826129f3565b9050919050565b61306d81613052565b82525050565b60006020820190506130886000830184613064565b92915050565b60008060008060008060006080888a0312156130ad576130ac612ac3565b5b60006130bb8a828b01612aee565b975050602088013567ffffffffffffffff8111156130dc576130db612ac8565b5b6130e88a828b01612b12565b9650965050604088013567ffffffffffffffff81111561310b5761310a612ac8565b5b6131178a828b01612b12565b9450945050606088013567ffffffffffffffff81111561313a57613139612ac8565b5b6131468a828b01612b68565b925092505092959891949750929550565b60006020828403121561316d5761316c612ac3565b5b600082013567ffffffffffffffff81111561318b5761318a612ac8565b5b61319784828501612e17565b91505092915050565b6131a981612f7b565b82525050565b60006020820190506131c460008301846131a0565b92915050565b60008060008060008060006080888a0312156131e9576131e8612ac3565b5b600088013567ffffffffffffffff81111561320757613206612ac8565b5b6132138a828b01612b12565b9750975050602088013567ffffffffffffffff81111561323657613235612ac8565b5b6132428a828b01612b12565b9550955050604088013567ffffffffffffffff81111561326557613264612ac8565b5b6132718a828b01612b68565b935093505060606132848a828b01612fce565b91505092959891949750929550565b600067ffffffffffffffff8211156132ae576132ad612d1a565b5b6132b782612d09565b9050602081019050919050565b60006132d76132d284613293565b612d7a565b9050828152602081018484840111156132f3576132f2612d04565b5b6132fe848285612dc6565b509392505050565b600082601f83011261331b5761331a612b03565b5b813561332b8482602086016132c4565b91505092915050565b600061ffff82169050919050565b61334b81613334565b811461335657600080fd5b50565b60008135905061336881613342565b92915050565b60008060008060008060c0878903121561338b5761338a612ac3565b5b600087013567ffffffffffffffff8111156133a9576133a8612ac8565b5b6133b589828a01612e17565b965050602087013567ffffffffffffffff8111156133d6576133d5612ac8565b5b6133e289828a01613306565b955050604087013567ffffffffffffffff81111561340357613402612ac8565b5b61340f89828a01613306565b945050606061342089828a01612aee565b935050608061343189828a01612fce565b92505060a061344289828a01613359565b9150509295509295509295565b60008060008060008060008060008060c08b8d03121561347257613471612ac3565b5b60008b013567ffffffffffffffff8111156134905761348f612ac8565b5b61349c8d828e01612b12565b9a509a505060208b013567ffffffffffffffff8111156134bf576134be612ac8565b5b6134cb8d828e01612b12565b985098505060408b013567ffffffffffffffff8111156134ee576134ed612ac8565b5b6134fa8d828e01612b68565b965096505060608b013567ffffffffffffffff81111561351d5761351c612ac8565b5b6135298d828e01612b12565b9450945050608061353c8d828e01612bdf565b92505060a061354d8d828e01612fce565b9150509295989b9194979a5092959850565b60006020828403121561357557613574612ac3565b5b600061358384828501612fce565b91505092915050565b600081905092915050565b60006135a3838561358c565b93506135b0838584612dc6565b82840190509392505050565b60006135c9828486613597565b91508190509392505050565b6135de81612acd565b82525050565b600082825260208201905092915050565b600061360183856135e4565b935061360e838584612dc6565b61361783612d09565b840190509392505050565b600060c082019050613637600083018c6135d5565b818103602083015261364a818a8c6135f5565b9050818103604083015261365f81888a6135f5565b905061366e60608301876135d5565b81810360808301526136818185876135f5565b905061369060a0830184612f51565b9a9950505050505050505050565b60008115159050919050565b6136b38161369e565b81146136be57600080fd5b50565b6000815190506136d0816136aa565b92915050565b6000602082840312156136ec576136eb612ac3565b5b60006136fa848285016136c1565b91505092915050565b600082825260208201905092915050565b60006137208385613703565b935061372d838584612dc6565b61373683612d09565b840190509392505050565b600060a082019050818103600083015261375c818b8d6135f5565b9050818103602083015261377181898b6135f5565b90508181036040830152613786818789613714565b9050818103606083015261379b8185876135f5565b90506137aa6080830184612f51565b9a9950505050505050505050565b600060208201905081810360008301526137d38184866135f5565b90509392505050565b6000815190506137eb81612fb7565b92915050565b60006020828403121561380757613806612ac3565b5b6000613815848285016137dc565b91505092915050565b6000613829826129a7565b9050919050565b6138398161381e565b811461384457600080fd5b50565b60008135905061385681613830565b92915050565b600080600080600060a0868803121561387857613877612ac3565b5b600086013567ffffffffffffffff81111561389657613895612ac8565b5b6138a288828901613306565b95505060206138b388828901612bdf565b94505060406138c488828901612aee565b93505060606138d588828901613847565b92505060806138e688828901613359565b9150509295509295909350565b600081519050919050565b600081905092915050565b60005b8381101561392757808201518184015260208101905061390c565b83811115613936576000848401525b50505050565b6000613947826138f3565b61395181856138fe565b9350613961818560208601613909565b80840191505092915050565b6000613979828461393c565b915081905092915050565b600060808201905061399960008301896135d5565b81810360208301526139ac8187896135f5565b905081810360408301526139c18185876135f5565b90506139d060608301846135d5565b979650505050505050565b600060608201905081810360008301526139f681888a6135f5565b90508181036020830152613a0b8186886135f5565b90508181036040830152613a20818486613714565b9050979650505050505050565b7f436972636c655377617045786563757461626c653a20696e76616c696420646560008201527f7374696e6174696f6e20636861696e0000000000000000000000000000000000602082015250565b6000613a89602f836135e4565b9150613a9482613a2d565b604082019050919050565b60006020820190508181036000830152613ab881613a7c565b9050919050565b6000604082019050613ad46000830185612a8f565b613ae16020830184612f51565b9392505050565b6000613af3826138f3565b613afd81856135e4565b9350613b0d818560208601613909565b613b1681612d09565b840191505092915050565b60006020820190508181036000830152613b3b8184613ae8565b905092915050565b600081519050613b5281612f8b565b92915050565b600060208284031215613b6e57613b6d612ac3565b5b6000613b7c84828501613b43565b91505092915050565b6000608082019050613b9a6000830187612f51565b613ba760208301866131a0565b613bb460408301856135d5565b613bc16060830184612a8f565b95945050505050565b600067ffffffffffffffff82169050919050565b613be781613bca565b8114613bf257600080fd5b50565b600081519050613c0481613bde565b92915050565b600060208284031215613c2057613c1f612ac3565b5b6000613c2e84828501613bf5565b91505092915050565b7f4e487b7100000000000000000000000000000000000000000000000000000000600052601160045260246000fd5b6000613c7182612bbe565b9150613c7c83612bbe565b925082821015613c8f57613c8e613c37565b5b828203905092915050565b7f4f776e61626c653a206e6577206f776e657220697320746865207a65726f206160008201527f6464726573730000000000000000000000000000000000000000000000000000602082015250565b6000613cf66026836135e4565b9150613d0182613c9a565b604082019050919050565b60006020820190508181036000830152613d2581613ce9565b9050919050565b600081519050919050565b6000613d4282613d2c565b613d4c818561358c565b9350613d5c818560208601613909565b80840191505092915050565b6000613d748284613d37565b915081905092915050565b600081519050613d8e81613830565b92915050565b600060208284031215613daa57613da9612ac3565b5b6000613db884828501613d7f565b91505092915050565b6000613dcc82613d2c565b613dd68185613703565b9350613de6818560208601613909565b613def81612d09565b840191505092915050565b6000604082019050613e0f6000830185612f51565b8181036020830152613e218184613dc1565b90509392505050565b7f4f776e61626c653a2063616c6c6572206973206e6f7420746865206f776e6572600082015250565b6000613e606020836135e4565b9150613e6b82613e2a565b602082019050919050565b60006020820190508181036000830152613e8f81613e53565b9050919050565b7f54524144455f4641494c45440000000000000000000000000000000000000000600082015250565b6000613ecc600c836135e4565b9150613ed782613e96565b602082019050919050565b60006020820190508181036000830152613efb81613ebf565b9050919050565b613f0b81613334565b82525050565b600060a0820190508181036000830152613f2b8188613dc1565b9050613f3a6020830187612f51565b613f4760408301866135d5565b613f546060830185612a8f565b613f616080830184613f02565b9695505050505050565b600060a082019050613f806000830188612a8f565b8181036020830152613f928187613ae8565b90508181036040830152613fa68186613ae8565b90508181036060830152613fba8185613dc1565b9050613fc96080830184612a8f565b9695505050505050565b60006060820190508181036000830152613fed8186613ae8565b905081810360208301526140018185613ae8565b905081810360408301526140158184613dc1565b9050949350505050565b60006060820190506140346000830186612f51565b81810360208301526140468185613ae8565b9050818103604083015261405a8184613dc1565b9050949350505050565b60006060820190506140796000830186612a8f565b6140866020830185612a8f565b6140936040830184612f51565b949350505050565b60006040820190506140b06000830185612f51565b6140bd6020830184612a8f565b9392505050565b6000815190506140d381612bc8565b92915050565b60006140ec6140e784613293565b612d7a565b90508281526020810184848401111561410857614107612d04565b5b614113848285613909565b509392505050565b600082601f8301126141305761412f612b03565b5b81516141408482602086016140d9565b91505092915050565b6000806000806080858703121561416357614162612ac3565b5b600061417187828801613d7f565b9450506020614182878288016140c4565b935050604061419387828801613d7f565b925050606085015167ffffffffffffffff8111156141b4576141b3612ac8565b5b6141c08782880161411b565b91505092959194509250565b6000602082840312156141e2576141e1612ac3565b5b60006141f0848285016140c4565b91505092915050565b60008160601b9050919050565b6000614211826141f9565b9050919050565b600061422382614206565b9050919050565b61423b61423682612a7d565b614218565b82525050565b600061424d828461422a565b60148201915081905092915050565b600061426782612bbe565b915061427283612bbe565b9250817fffffffffffffffffffffffffffffffffffffffffffffffffffffffffffffffff04831182151516156142ab576142aa613c37565b5b828202905092915050565b60006142c182612bbe565b91506142cc83612bbe565b9250827fffffffffffffffffffffffffffffffffffffffffffffffffffffffffffffffff0382111561430157614300613c37565b5b828201905092915050565b7f4e487b7100000000000000000000000000000000000000000000000000000000600052603260045260246000fd5b600061434682612bbe565b91507fffffffffffffffffffffffffffffffffffffffffffffffffffffffffffffffff82141561437957614378613c37565b5b600182019050919050565b7f5361666545524332303a204552433230206f7065726174696f6e20646964206e60008201527f6f74207375636365656400000000000000000000000000000000000000000000602082015250565b60006143e0602a836135e4565b91506143eb82614384565b604082019050919050565b6000602082019050818103600083015261440f816143d3565b9050919050565b7f416464726573733a20696e73756666696369656e742062616c616e636520666f60008201527f722063616c6c0000000000000000000000000000000000000000000000000000602082015250565b60006144726026836135e4565b915061447d82614416565b604082019050919050565b600060208201905081810360008301526144a181614465565b9050919050565b7f416464726573733a2063616c6c20746f206e6f6e2d636f6e7472616374000000600082015250565b60006144de601d836135e4565b91506144e9826144a8565b602082019050919050565b6000602082019050818103600083015261450d816144d1565b905091905056fea26469706673582212206f2d5eb9364905f06c150b2ae212b6f82c07e78c40280a3ae362f42ccc146b2964736f6c63430008090033",
  "devdoc": {
    "kind": "dev",
    "methods": {
      "owner()": {
        "details": "Returns the address of the current owner."
      },
      "renounceOwnership()": {
        "details": "Leaves the contract without owner. It will not be possible to call `onlyOwner` functions anymore. Can only be called by the current owner. NOTE: Renouncing ownership will leave the contract without an owner, thereby removing any functionality that is only available to the owner."
      },
      "transferOwnership(address)": {
        "details": "Transfers ownership of the contract to a new account (`newOwner`). Can only be called by the current owner."
      }
    },
    "version": 1
  },
  "userdoc": {
    "kind": "user",
    "methods": {},
    "version": 1
  },
  "storageLayout": {
    "storage": [
      {
        "astId": 14,
        "contract": "contracts/CircleSwapExecutable.sol:CircleSwapExecutable",
        "label": "gateway",
        "offset": 0,
        "slot": "0",
        "type": "t_contract(IAxelarGateway)1097"
      },
      {
        "astId": 18,
        "contract": "contracts/CircleSwapExecutable.sol:CircleSwapExecutable",
        "label": "forecallers",
        "offset": 0,
        "slot": "1",
        "type": "t_mapping(t_bytes32,t_address)"
      },
      {
        "astId": 1237,
        "contract": "contracts/CircleSwapExecutable.sol:CircleSwapExecutable",
        "label": "_owner",
        "offset": 0,
        "slot": "2",
        "type": "t_address"
      },
      {
        "astId": 2113,
        "contract": "contracts/CircleSwapExecutable.sol:CircleSwapExecutable",
        "label": "usdc",
        "offset": 0,
        "slot": "3",
        "type": "t_contract(IERC20)1420"
      },
      {
        "astId": 2115,
        "contract": "contracts/CircleSwapExecutable.sol:CircleSwapExecutable",
        "label": "wrappedNativeToken",
        "offset": 0,
        "slot": "4",
        "type": "t_address"
      },
      {
        "astId": 2118,
        "contract": "contracts/CircleSwapExecutable.sol:CircleSwapExecutable",
        "label": "circleBridge",
        "offset": 0,
        "slot": "5",
        "type": "t_contract(ICircleBridge)3086"
      },
      {
        "astId": 2122,
        "contract": "contracts/CircleSwapExecutable.sol:CircleSwapExecutable",
        "label": "siblings",
        "offset": 0,
        "slot": "6",
        "type": "t_mapping(t_string_memory_ptr,t_address)"
      },
      {
        "astId": 2126,
        "contract": "contracts/CircleSwapExecutable.sol:CircleSwapExecutable",
        "label": "destinationDomains",
        "offset": 0,
        "slot": "7",
        "type": "t_mapping(t_string_memory_ptr,t_uint32)"
      }
    ],
    "types": {
      "t_address": {
        "encoding": "inplace",
        "label": "address",
        "numberOfBytes": "20"
      },
      "t_bytes32": {
        "encoding": "inplace",
        "label": "bytes32",
        "numberOfBytes": "32"
      },
      "t_contract(IAxelarGateway)1097": {
        "encoding": "inplace",
        "label": "contract IAxelarGateway",
        "numberOfBytes": "20"
      },
      "t_contract(ICircleBridge)3086": {
        "encoding": "inplace",
        "label": "contract ICircleBridge",
        "numberOfBytes": "20"
      },
      "t_contract(IERC20)1420": {
        "encoding": "inplace",
        "label": "contract IERC20",
        "numberOfBytes": "20"
      },
      "t_mapping(t_bytes32,t_address)": {
        "encoding": "mapping",
        "key": "t_bytes32",
        "label": "mapping(bytes32 => address)",
        "numberOfBytes": "32",
        "value": "t_address"
      },
      "t_mapping(t_string_memory_ptr,t_address)": {
        "encoding": "mapping",
        "key": "t_string_memory_ptr",
        "label": "mapping(string => address)",
        "numberOfBytes": "32",
        "value": "t_address"
      },
      "t_mapping(t_string_memory_ptr,t_uint32)": {
        "encoding": "mapping",
        "key": "t_string_memory_ptr",
        "label": "mapping(string => uint32)",
        "numberOfBytes": "32",
        "value": "t_uint32"
      },
      "t_string_memory_ptr": {
        "encoding": "bytes",
        "label": "string",
        "numberOfBytes": "32"
      },
      "t_uint32": {
        "encoding": "inplace",
        "label": "uint32",
        "numberOfBytes": "4"
      }
    }
  }
}