{
  "address": "0x0395767FAf6546A560168a9F1892763B58e4851a",
  "abi": [
    {
      "inputs": [],
      "stateMutability": "nonpayable",
      "type": "constructor"
    },
    {
      "anonymous": false,
      "inputs": [
        {
          "indexed": true,
          "internalType": "address",
          "name": "owner",
          "type": "address"
        },
        {
          "indexed": true,
          "internalType": "address",
          "name": "spender",
          "type": "address"
        },
        {
          "indexed": false,
          "internalType": "uint256",
          "name": "value",
          "type": "uint256"
        }
      ],
      "name": "Approval",
      "type": "event"
    },
    {
      "anonymous": false,
      "inputs": [
        {
          "indexed": true,
          "internalType": "bytes32",
          "name": "role",
          "type": "bytes32"
        },
        {
          "indexed": true,
          "internalType": "bytes32",
          "name": "previousAdminRole",
          "type": "bytes32"
        },
        {
          "indexed": true,
          "internalType": "bytes32",
          "name": "newAdminRole",
          "type": "bytes32"
        }
      ],
      "name": "RoleAdminChanged",
      "type": "event"
    },
    {
      "anonymous": false,
      "inputs": [
        {
          "indexed": true,
          "internalType": "bytes32",
          "name": "role",
          "type": "bytes32"
        },
        {
          "indexed": true,
          "internalType": "address",
          "name": "account",
          "type": "address"
        },
        {
          "indexed": true,
          "internalType": "address",
          "name": "sender",
          "type": "address"
        }
      ],
      "name": "RoleGranted",
      "type": "event"
    },
    {
      "anonymous": false,
      "inputs": [
        {
          "indexed": true,
          "internalType": "bytes32",
          "name": "role",
          "type": "bytes32"
        },
        {
          "indexed": true,
          "internalType": "address",
          "name": "account",
          "type": "address"
        },
        {
          "indexed": true,
          "internalType": "address",
          "name": "sender",
          "type": "address"
        }
      ],
      "name": "RoleRevoked",
      "type": "event"
    },
    {
      "anonymous": false,
      "inputs": [
        {
          "indexed": true,
          "internalType": "address",
          "name": "from",
          "type": "address"
        },
        {
          "indexed": true,
          "internalType": "address",
          "name": "to",
          "type": "address"
        },
        {
          "indexed": false,
          "internalType": "uint256",
          "name": "value",
          "type": "uint256"
        }
      ],
      "name": "Transfer",
      "type": "event"
    },
    {
      "inputs": [],
      "name": "ADMIN_ROLE",
      "outputs": [
        {
          "internalType": "bytes32",
          "name": "",
          "type": "bytes32"
        }
      ],
      "stateMutability": "view",
      "type": "function"
    },
    {
      "inputs": [],
      "name": "BURNER_ROLE",
      "outputs": [
        {
          "internalType": "bytes32",
          "name": "",
          "type": "bytes32"
        }
      ],
      "stateMutability": "view",
      "type": "function"
    },
    {
      "inputs": [],
      "name": "DEFAULT_ADMIN_ROLE",
      "outputs": [
        {
          "internalType": "bytes32",
          "name": "",
          "type": "bytes32"
        }
      ],
      "stateMutability": "view",
      "type": "function"
    },
    {
      "inputs": [],
      "name": "MINTER_ROLE",
      "outputs": [
        {
          "internalType": "bytes32",
          "name": "",
          "type": "bytes32"
        }
      ],
      "stateMutability": "view",
      "type": "function"
    },
    {
      "inputs": [
        {
          "internalType": "address",
          "name": "owner",
          "type": "address"
        },
        {
          "internalType": "address",
          "name": "spender",
          "type": "address"
        }
      ],
      "name": "allowance",
      "outputs": [
        {
          "internalType": "uint256",
          "name": "",
          "type": "uint256"
        }
      ],
      "stateMutability": "view",
      "type": "function"
    },
    {
      "inputs": [
        {
          "internalType": "address",
          "name": "spender",
          "type": "address"
        },
        {
          "internalType": "uint256",
          "name": "amount",
          "type": "uint256"
        }
      ],
      "name": "approve",
      "outputs": [
        {
          "internalType": "bool",
          "name": "",
          "type": "bool"
        }
      ],
      "stateMutability": "nonpayable",
      "type": "function"
    },
    {
      "inputs": [
        {
          "internalType": "address",
          "name": "account",
          "type": "address"
        }
      ],
      "name": "balanceOf",
      "outputs": [
        {
          "internalType": "uint256",
          "name": "",
          "type": "uint256"
        }
      ],
      "stateMutability": "view",
      "type": "function"
    },
    {
      "inputs": [
        {
          "internalType": "uint256",
          "name": "amount",
          "type": "uint256"
        }
      ],
      "name": "burn",
      "outputs": [],
      "stateMutability": "nonpayable",
      "type": "function"
    },
    {
      "inputs": [
        {
          "internalType": "address",
          "name": "from",
          "type": "address"
        },
        {
          "internalType": "uint256",
          "name": "amount",
          "type": "uint256"
        }
      ],
      "name": "burn",
      "outputs": [],
      "stateMutability": "nonpayable",
      "type": "function"
    },
    {
      "inputs": [
        {
          "internalType": "address",
          "name": "account",
          "type": "address"
        },
        {
          "internalType": "uint256",
          "name": "amount",
          "type": "uint256"
        }
      ],
      "name": "burnFrom",
      "outputs": [],
      "stateMutability": "nonpayable",
      "type": "function"
    },
    {
      "inputs": [],
      "name": "decimals",
      "outputs": [
        {
          "internalType": "uint8",
          "name": "",
          "type": "uint8"
        }
      ],
      "stateMutability": "view",
      "type": "function"
    },
    {
      "inputs": [
        {
          "internalType": "address",
          "name": "spender",
          "type": "address"
        },
        {
          "internalType": "uint256",
          "name": "subtractedValue",
          "type": "uint256"
        }
      ],
      "name": "decreaseAllowance",
      "outputs": [
        {
          "internalType": "bool",
          "name": "",
          "type": "bool"
        }
      ],
      "stateMutability": "nonpayable",
      "type": "function"
    },
    {
      "inputs": [
        {
          "internalType": "bytes32",
          "name": "role",
          "type": "bytes32"
        }
      ],
      "name": "getRoleAdmin",
      "outputs": [
        {
          "internalType": "bytes32",
          "name": "",
          "type": "bytes32"
        }
      ],
      "stateMutability": "view",
      "type": "function"
    },
    {
      "inputs": [
        {
          "internalType": "bytes32",
          "name": "role",
          "type": "bytes32"
        },
        {
          "internalType": "address",
          "name": "account",
          "type": "address"
        }
      ],
      "name": "grantRole",
      "outputs": [],
      "stateMutability": "nonpayable",
      "type": "function"
    },
    {
      "inputs": [
        {
          "internalType": "bytes32",
          "name": "role",
          "type": "bytes32"
        },
        {
          "internalType": "address",
          "name": "account",
          "type": "address"
        }
      ],
      "name": "hasRole",
      "outputs": [
        {
          "internalType": "bool",
          "name": "",
          "type": "bool"
        }
      ],
      "stateMutability": "view",
      "type": "function"
    },
    {
      "inputs": [
        {
          "internalType": "address",
          "name": "spender",
          "type": "address"
        },
        {
          "internalType": "uint256",
          "name": "addedValue",
          "type": "uint256"
        }
      ],
      "name": "increaseAllowance",
      "outputs": [
        {
          "internalType": "bool",
          "name": "",
          "type": "bool"
        }
      ],
      "stateMutability": "nonpayable",
      "type": "function"
    },
    {
      "inputs": [
        {
          "internalType": "address",
          "name": "to",
          "type": "address"
        },
        {
          "internalType": "uint256",
          "name": "amount",
          "type": "uint256"
        }
      ],
      "name": "mint",
      "outputs": [],
      "stateMutability": "nonpayable",
      "type": "function"
    },
    {
      "inputs": [],
      "name": "name",
      "outputs": [
        {
          "internalType": "string",
          "name": "",
          "type": "string"
        }
      ],
      "stateMutability": "view",
      "type": "function"
    },
    {
      "inputs": [
        {
          "internalType": "bytes32",
          "name": "role",
          "type": "bytes32"
        },
        {
          "internalType": "address",
          "name": "account",
          "type": "address"
        }
      ],
      "name": "renounceRole",
      "outputs": [],
      "stateMutability": "nonpayable",
      "type": "function"
    },
    {
      "inputs": [
        {
          "internalType": "bytes32",
          "name": "role",
          "type": "bytes32"
        },
        {
          "internalType": "address",
          "name": "account",
          "type": "address"
        }
      ],
      "name": "revokeRole",
      "outputs": [],
      "stateMutability": "nonpayable",
      "type": "function"
    },
    {
      "inputs": [
        {
          "internalType": "address",
          "name": "burner",
          "type": "address"
        }
      ],
      "name": "setBurnerRole",
      "outputs": [],
      "stateMutability": "nonpayable",
      "type": "function"
    },
    {
      "inputs": [
        {
          "internalType": "address",
          "name": "minter",
          "type": "address"
        }
      ],
      "name": "setMinterRole",
      "outputs": [],
      "stateMutability": "nonpayable",
      "type": "function"
    },
    {
      "inputs": [
        {
          "internalType": "bytes4",
          "name": "interfaceId",
          "type": "bytes4"
        }
      ],
      "name": "supportsInterface",
      "outputs": [
        {
          "internalType": "bool",
          "name": "",
          "type": "bool"
        }
      ],
      "stateMutability": "view",
      "type": "function"
    },
    {
      "inputs": [],
      "name": "symbol",
      "outputs": [
        {
          "internalType": "string",
          "name": "",
          "type": "string"
        }
      ],
      "stateMutability": "view",
      "type": "function"
    },
    {
      "inputs": [],
      "name": "totalSupply",
      "outputs": [
        {
          "internalType": "uint256",
          "name": "",
          "type": "uint256"
        }
      ],
      "stateMutability": "view",
      "type": "function"
    },
    {
      "inputs": [
        {
          "internalType": "address",
          "name": "to",
          "type": "address"
        },
        {
          "internalType": "uint256",
          "name": "amount",
          "type": "uint256"
        }
      ],
      "name": "transfer",
      "outputs": [
        {
          "internalType": "bool",
          "name": "",
          "type": "bool"
        }
      ],
      "stateMutability": "nonpayable",
      "type": "function"
    },
    {
      "inputs": [
        {
          "internalType": "address",
          "name": "from",
          "type": "address"
        },
        {
          "internalType": "address",
          "name": "to",
          "type": "address"
        },
        {
          "internalType": "uint256",
          "name": "amount",
          "type": "uint256"
        }
      ],
      "name": "transferFrom",
      "outputs": [
        {
          "internalType": "bool",
          "name": "",
          "type": "bool"
        }
      ],
      "stateMutability": "nonpayable",
      "type": "function"
    }
  ],
  "transactionHash": "0x405cb6143fa53905823a5e11873fee0617a4f3037d8766b8e80950ecb0528744",
  "args": [],
  "numDeployments": 1,
  "solcInputHash": "e60f767813d0632f19f95e013adda774",
  "bytecode": "0x60806040523480156200001157600080fd5b506040518060400160405280600b81526020017f436972636c6520555344430000000000000000000000000000000000000000008152506040518060400160405280600481526020017f555344430000000000000000000000000000000000000000000000000000000081525081600390805190602001906200009692919062000404565b508060049080519060200190620000af92919062000404565b505050620000ce3369d3c21bcecceda10000006200010660201b60201c565b620001007fa49807205ce4d355092ef5a8a18f56e8913cf4a201fbe287825b095693c21775336200027f60201b60201c565b62000660565b600073ffffffffffffffffffffffffffffffffffffffff168273ffffffffffffffffffffffffffffffffffffffff16141562000179576040517f08c379a0000000000000000000000000000000000000000000000000000000008152600401620001709062000515565b60405180910390fd5b6200018d600083836200029560201b60201c565b8060026000828254620001a1919062000570565b92505081905550806000808473ffffffffffffffffffffffffffffffffffffffff1673ffffffffffffffffffffffffffffffffffffffff1681526020019081526020016000206000828254620001f8919062000570565b925050819055508173ffffffffffffffffffffffffffffffffffffffff16600073ffffffffffffffffffffffffffffffffffffffff167fddf252ad1be2c89b69c2b068fc378daa952ba7f163c4a11628f55a4df523b3ef836040516200025f9190620005de565b60405180910390a36200027b600083836200029a60201b60201c565b5050565b6200029182826200029f60201b60201c565b5050565b505050565b505050565b620002b182826200039160201b60201c565b6200038d5760016005600084815260200190815260200160002060000160008373ffffffffffffffffffffffffffffffffffffffff1673ffffffffffffffffffffffffffffffffffffffff16815260200190815260200160002060006101000a81548160ff02191690831515021790555062000332620003fc60201b60201c565b73ffffffffffffffffffffffffffffffffffffffff168173ffffffffffffffffffffffffffffffffffffffff16837f2f8788117e7eff1d82e926ec794901d17c78024a50270940304540a733656f0d60405160405180910390a45b5050565b60006005600084815260200190815260200160002060000160008373ffffffffffffffffffffffffffffffffffffffff1673ffffffffffffffffffffffffffffffffffffffff16815260200190815260200160002060009054906101000a900460ff16905092915050565b600033905090565b82805462000412906200062a565b90600052602060002090601f01602090048101928262000436576000855562000482565b82601f106200045157805160ff191683800117855562000482565b8280016001018555821562000482579182015b828111156200048157825182559160200191906001019062000464565b5b50905062000491919062000495565b5090565b5b80821115620004b057600081600090555060010162000496565b5090565b600082825260208201905092915050565b7f45524332303a206d696e7420746f20746865207a65726f206164647265737300600082015250565b6000620004fd601f83620004b4565b91506200050a82620004c5565b602082019050919050565b600060208201905081810360008301526200053081620004ee565b9050919050565b6000819050919050565b7f4e487b7100000000000000000000000000000000000000000000000000000000600052601160045260246000fd5b60006200057d8262000537565b91506200058a8362000537565b9250827fffffffffffffffffffffffffffffffffffffffffffffffffffffffffffffffff03821115620005c257620005c162000541565b5b828201905092915050565b620005d88162000537565b82525050565b6000602082019050620005f56000830184620005cd565b92915050565b7f4e487b7100000000000000000000000000000000000000000000000000000000600052602260045260246000fd5b600060028204905060018216806200064357607f821691505b602082108114156200065a5762000659620005fb565b5b50919050565b6129cb80620006706000396000f3fe608060405234801561001057600080fd5b50600436106101a95760003560e01c806370a08231116100f9578063a217fddf11610097578063d539139311610071578063d5391393146104f4578063d547741f14610512578063dd62ed3e1461052e578063fed62da51461055e576101a9565b8063a217fddf14610476578063a457c2d714610494578063a9059cbb146104c4576101a9565b806391d14854116100d357806391d14854146103f0578063945d12291461042057806395d89b411461043c5780639dc29fac1461045a576101a9565b806370a082311461038657806375b238fc146103b657806379cc6790146103d4576101a9565b8063282c51f31161016657806336568abe1161014057806336568abe14610302578063395093511461031e57806340c10f191461034e57806342966c681461036a576101a9565b8063282c51f3146102aa5780632f2ff15d146102c8578063313ce567146102e4576101a9565b806301ffc9a7146101ae57806306fdde03146101de578063095ea7b3146101fc57806318160ddd1461022c57806323b872dd1461024a578063248a9ca31461027a575b600080fd5b6101c860048036038101906101c39190611ad4565b61057a565b6040516101d59190611b1c565b60405180910390f35b6101e66105f4565b6040516101f39190611bd0565b60405180910390f35b61021660048036038101906102119190611c86565b610686565b6040516102239190611b1c565b60405180910390f35b6102346106a9565b6040516102419190611cd5565b60405180910390f35b610264600480360381019061025f9190611cf0565b6106b3565b6040516102719190611b1c565b60405180910390f35b610294600480360381019061028f9190611d79565b6106e2565b6040516102a19190611db5565b60405180910390f35b6102b2610702565b6040516102bf9190611db5565b60405180910390f35b6102e260048036038101906102dd9190611dd0565b610726565b005b6102ec610747565b6040516102f99190611e2c565b60405180910390f35b61031c60048036038101906103179190611dd0565b610750565b005b61033860048036038101906103339190611c86565b6107d3565b6040516103459190611b1c565b60405180910390f35b61036860048036038101906103639190611c86565b61080a565b005b610384600480360381019061037f9190611e47565b610881565b005b6103a0600480360381019061039b9190611e74565b610895565b6040516103ad9190611cd5565b60405180910390f35b6103be6108dd565b6040516103cb9190611db5565b60405180910390f35b6103ee60048036038101906103e99190611c86565b610901565b005b61040a60048036038101906104059190611dd0565b610921565b6040516104179190611b1c565b60405180910390f35b61043a60048036038101906104359190611e74565b61098c565b005b610444610a22565b6040516104519190611bd0565b60405180910390f35b610474600480360381019061046f9190611c86565b610ab4565b005b61047e610b2b565b60405161048b9190611db5565b60405180910390f35b6104ae60048036038101906104a99190611c86565b610b32565b6040516104bb9190611b1c565b60405180910390f35b6104de60048036038101906104d99190611c86565b610ba9565b6040516104eb9190611b1c565b60405180910390f35b6104fc610bcc565b6040516105099190611db5565b60405180910390f35b61052c60048036038101906105279190611dd0565b610bf0565b005b61054860048036038101906105439190611ea1565b610c11565b6040516105559190611cd5565b60405180910390f35b61057860048036038101906105739190611e74565b610c98565b005b60007f7965db0b000000000000000000000000000000000000000000000000000000007bffffffffffffffffffffffffffffffffffffffffffffffffffffffff1916827bffffffffffffffffffffffffffffffffffffffffffffffffffffffff191614806105ed57506105ec82610d2e565b5b9050919050565b60606003805461060390611f10565b80601f016020809104026020016040519081016040528092919081815260200182805461062f90611f10565b801561067c5780601f106106515761010080835404028352916020019161067c565b820191906000526020600020905b81548152906001019060200180831161065f57829003601f168201915b5050505050905090565b600080610691610d98565b905061069e818585610da0565b600191505092915050565b6000600254905090565b6000806106be610d98565b90506106cb858285610f6b565b6106d6858585610ff7565b60019150509392505050565b600060056000838152602001908152602001600020600101549050919050565b7f3c11d16cbaffd01df69ce1c404f6340ee057498f5f00246190ea54220576a84881565b61072f826106e2565b61073881611278565b610742838361128c565b505050565b60006006905090565b610758610d98565b73ffffffffffffffffffffffffffffffffffffffff168173ffffffffffffffffffffffffffffffffffffffff16146107c5576040517f08c379a00000000000000000000000000000000000000000000000000000000081526004016107bc90611fb4565b60405180910390fd5b6107cf828261136d565b5050565b6000806107de610d98565b90506107ff8185856107f08589610c11565b6107fa9190612003565b610da0565b600191505092915050565b6108347f9f2df0fed2c77648de5860a4cc508cd0818c85b8b8a1ab4ceeef8d981c8956a633610921565b610873576040517f08c379a000000000000000000000000000000000000000000000000000000000815260040161086a906120a5565b60405180910390fd5b61087d828261144f565b5050565b61089261088c610d98565b826115af565b50565b60008060008373ffffffffffffffffffffffffffffffffffffffff1673ffffffffffffffffffffffffffffffffffffffff168152602001908152602001600020549050919050565b7fa49807205ce4d355092ef5a8a18f56e8913cf4a201fbe287825b095693c2177581565b6109138261090d610d98565b83610f6b565b61091d82826115af565b5050565b60006005600084815260200190815260200160002060000160008373ffffffffffffffffffffffffffffffffffffffff1673ffffffffffffffffffffffffffffffffffffffff16815260200190815260200160002060009054906101000a900460ff16905092915050565b6109b67fa49807205ce4d355092ef5a8a18f56e8913cf4a201fbe287825b095693c2177533610921565b6109f5576040517f08c379a00000000000000000000000000000000000000000000000000000000081526004016109ec90612111565b60405180910390fd5b610a1f7f9f2df0fed2c77648de5860a4cc508cd0818c85b8b8a1ab4ceeef8d981c8956a682611786565b50565b606060048054610a3190611f10565b80601f0160208091040260200160405190810160405280929190818152602001828054610a5d90611f10565b8015610aaa5780601f10610a7f57610100808354040283529160200191610aaa565b820191906000526020600020905b815481529060010190602001808311610a8d57829003601f168201915b5050505050905090565b610ade7f3c11d16cbaffd01df69ce1c404f6340ee057498f5f00246190ea54220576a84833610921565b610b1d576040517f08c379a0000000000000000000000000000000000000000000000000000000008152600401610b149061217d565b60405180910390fd5b610b2782826115af565b5050565b6000801b81565b600080610b3d610d98565b90506000610b4b8286610c11565b905083811015610b90576040517f08c379a0000000000000000000000000000000000000000000000000000000008152600401610b879061220f565b60405180910390fd5b610b9d8286868403610da0565b60019250505092915050565b600080610bb4610d98565b9050610bc1818585610ff7565b600191505092915050565b7f9f2df0fed2c77648de5860a4cc508cd0818c85b8b8a1ab4ceeef8d981c8956a681565b610bf9826106e2565b610c0281611278565b610c0c838361136d565b505050565b6000600160008473ffffffffffffffffffffffffffffffffffffffff1673ffffffffffffffffffffffffffffffffffffffff16815260200190815260200160002060008373ffffffffffffffffffffffffffffffffffffffff1673ffffffffffffffffffffffffffffffffffffffff16815260200190815260200160002054905092915050565b610cc27fa49807205ce4d355092ef5a8a18f56e8913cf4a201fbe287825b095693c2177533610921565b610d01576040517f08c379a0000000000000000000000000000000000000000000000000000000008152600401610cf890612111565b60405180910390fd5b610d2b7f3c11d16cbaffd01df69ce1c404f6340ee057498f5f00246190ea54220576a84882611786565b50565b60007f01ffc9a7000000000000000000000000000000000000000000000000000000007bffffffffffffffffffffffffffffffffffffffffffffffffffffffff1916827bffffffffffffffffffffffffffffffffffffffffffffffffffffffff1916149050919050565b600033905090565b600073ffffffffffffffffffffffffffffffffffffffff168373ffffffffffffffffffffffffffffffffffffffff161415610e10576040517f08c379a0000000000000000000000000000000000000000000000000000000008152600401610e07906122a1565b60405180910390fd5b600073ffffffffffffffffffffffffffffffffffffffff168273ffffffffffffffffffffffffffffffffffffffff161415610e80576040517f08c379a0000000000000000000000000000000000000000000000000000000008152600401610e7790612333565b60405180910390fd5b80600160008573ffffffffffffffffffffffffffffffffffffffff1673ffffffffffffffffffffffffffffffffffffffff16815260200190815260200160002060008473ffffffffffffffffffffffffffffffffffffffff1673ffffffffffffffffffffffffffffffffffffffff168152602001908152602001600020819055508173ffffffffffffffffffffffffffffffffffffffff168373ffffffffffffffffffffffffffffffffffffffff167f8c5be1e5ebec7d5bd14f71427d1e84f3dd0314c0f7b2291e5b200ac8c7c3b92583604051610f5e9190611cd5565b60405180910390a3505050565b6000610f778484610c11565b90507fffffffffffffffffffffffffffffffffffffffffffffffffffffffffffffffff8114610ff15781811015610fe3576040517f08c379a0000000000000000000000000000000000000000000000000000000008152600401610fda9061239f565b60405180910390fd5b610ff08484848403610da0565b5b50505050565b600073ffffffffffffffffffffffffffffffffffffffff168373ffffffffffffffffffffffffffffffffffffffff161415611067576040517f08c379a000000000000000000000000000000000000000000000000000000000815260040161105e90612431565b60405180910390fd5b600073ffffffffffffffffffffffffffffffffffffffff168273ffffffffffffffffffffffffffffffffffffffff1614156110d7576040517f08c379a00000000000000000000000000000000000000000000000000000000081526004016110ce906124c3565b60405180910390fd5b6110e2838383611794565b60008060008573ffffffffffffffffffffffffffffffffffffffff1673ffffffffffffffffffffffffffffffffffffffff16815260200190815260200160002054905081811015611168576040517f08c379a000000000000000000000000000000000000000000000000000000000815260040161115f90612555565b60405180910390fd5b8181036000808673ffffffffffffffffffffffffffffffffffffffff1673ffffffffffffffffffffffffffffffffffffffff16815260200190815260200160002081905550816000808573ffffffffffffffffffffffffffffffffffffffff1673ffffffffffffffffffffffffffffffffffffffff16815260200190815260200160002060008282546111fb9190612003565b925050819055508273ffffffffffffffffffffffffffffffffffffffff168473ffffffffffffffffffffffffffffffffffffffff167fddf252ad1be2c89b69c2b068fc378daa952ba7f163c4a11628f55a4df523b3ef8460405161125f9190611cd5565b60405180910390a3611272848484611799565b50505050565b61128981611284610d98565b61179e565b50565b6112968282610921565b6113695760016005600084815260200190815260200160002060000160008373ffffffffffffffffffffffffffffffffffffffff1673ffffffffffffffffffffffffffffffffffffffff16815260200190815260200160002060006101000a81548160ff02191690831515021790555061130e610d98565b73ffffffffffffffffffffffffffffffffffffffff168173ffffffffffffffffffffffffffffffffffffffff16837f2f8788117e7eff1d82e926ec794901d17c78024a50270940304540a733656f0d60405160405180910390a45b5050565b6113778282610921565b1561144b5760006005600084815260200190815260200160002060000160008373ffffffffffffffffffffffffffffffffffffffff1673ffffffffffffffffffffffffffffffffffffffff16815260200190815260200160002060006101000a81548160ff0219169083151502179055506113f0610d98565b73ffffffffffffffffffffffffffffffffffffffff168173ffffffffffffffffffffffffffffffffffffffff16837ff6391f5c32d9c69d2a47ea670b442974b53935d1edc7fd64eb21e047a839171b60405160405180910390a45b5050565b600073ffffffffffffffffffffffffffffffffffffffff168273ffffffffffffffffffffffffffffffffffffffff1614156114bf576040517f08c379a00000000000000000000000000000000000000000000000000000000081526004016114b6906125c1565b60405180910390fd5b6114cb60008383611794565b80600260008282546114dd9190612003565b92505081905550806000808473ffffffffffffffffffffffffffffffffffffffff1673ffffffffffffffffffffffffffffffffffffffff16815260200190815260200160002060008282546115329190612003565b925050819055508173ffffffffffffffffffffffffffffffffffffffff16600073ffffffffffffffffffffffffffffffffffffffff167fddf252ad1be2c89b69c2b068fc378daa952ba7f163c4a11628f55a4df523b3ef836040516115979190611cd5565b60405180910390a36115ab60008383611799565b5050565b600073ffffffffffffffffffffffffffffffffffffffff168273ffffffffffffffffffffffffffffffffffffffff16141561161f576040517f08c379a000000000000000000000000000000000000000000000000000000000815260040161161690612653565b60405180910390fd5b61162b82600083611794565b60008060008473ffffffffffffffffffffffffffffffffffffffff1673ffffffffffffffffffffffffffffffffffffffff168152602001908152602001600020549050818110156116b1576040517f08c379a00000000000000000000000000000000000000000000000000000000081526004016116a8906126e5565b60405180910390fd5b8181036000808573ffffffffffffffffffffffffffffffffffffffff1673ffffffffffffffffffffffffffffffffffffffff1681526020019081526020016000208190555081600260008282546117089190612705565b92505081905550600073ffffffffffffffffffffffffffffffffffffffff168373ffffffffffffffffffffffffffffffffffffffff167fddf252ad1be2c89b69c2b068fc378daa952ba7f163c4a11628f55a4df523b3ef8460405161176d9190611cd5565b60405180910390a361178183600084611799565b505050565b611790828261128c565b5050565b505050565b505050565b6117a88282610921565b611837576117cd8173ffffffffffffffffffffffffffffffffffffffff16601461183b565b6117db8360001c602061183b565b6040516020016117ec92919061280d565b6040516020818303038152906040526040517f08c379a000000000000000000000000000000000000000000000000000000000815260040161182e9190611bd0565b60405180910390fd5b5050565b60606000600283600261184e9190612847565b6118589190612003565b67ffffffffffffffff811115611871576118706128a1565b5b6040519080825280601f01601f1916602001820160405280156118a35781602001600182028036833780820191505090505b5090507f3000000000000000000000000000000000000000000000000000000000000000816000815181106118db576118da6128d0565b5b60200101907effffffffffffffffffffffffffffffffffffffffffffffffffffffffffffff1916908160001a9053507f78000000000000000000000000000000000000000000000000000000000000008160018151811061193f5761193e6128d0565b5b60200101907effffffffffffffffffffffffffffffffffffffffffffffffffffffffffffff1916908160001a9053506000600184600261197f9190612847565b6119899190612003565b90505b6001811115611a29577f3031323334353637383961626364656600000000000000000000000000000000600f8616601081106119cb576119ca6128d0565b5b1a60f81b8282815181106119e2576119e16128d0565b5b60200101907effffffffffffffffffffffffffffffffffffffffffffffffffffffffffffff1916908160001a905350600485901c945080611a22906128ff565b905061198c565b5060008414611a6d576040517f08c379a0000000000000000000000000000000000000000000000000000000008152600401611a6490612975565b60405180910390fd5b8091505092915050565b600080fd5b60007fffffffff0000000000000000000000000000000000000000000000000000000082169050919050565b611ab181611a7c565b8114611abc57600080fd5b50565b600081359050611ace81611aa8565b92915050565b600060208284031215611aea57611ae9611a77565b5b6000611af884828501611abf565b91505092915050565b60008115159050919050565b611b1681611b01565b82525050565b6000602082019050611b316000830184611b0d565b92915050565b600081519050919050565b600082825260208201905092915050565b60005b83811015611b71578082015181840152602081019050611b56565b83811115611b80576000848401525b50505050565b6000601f19601f8301169050919050565b6000611ba282611b37565b611bac8185611b42565b9350611bbc818560208601611b53565b611bc581611b86565b840191505092915050565b60006020820190508181036000830152611bea8184611b97565b905092915050565b600073ffffffffffffffffffffffffffffffffffffffff82169050919050565b6000611c1d82611bf2565b9050919050565b611c2d81611c12565b8114611c3857600080fd5b50565b600081359050611c4a81611c24565b92915050565b6000819050919050565b611c6381611c50565b8114611c6e57600080fd5b50565b600081359050611c8081611c5a565b92915050565b60008060408385031215611c9d57611c9c611a77565b5b6000611cab85828601611c3b565b9250506020611cbc85828601611c71565b9150509250929050565b611ccf81611c50565b82525050565b6000602082019050611cea6000830184611cc6565b92915050565b600080600060608486031215611d0957611d08611a77565b5b6000611d1786828701611c3b565b9350506020611d2886828701611c3b565b9250506040611d3986828701611c71565b9150509250925092565b6000819050919050565b611d5681611d43565b8114611d6157600080fd5b50565b600081359050611d7381611d4d565b92915050565b600060208284031215611d8f57611d8e611a77565b5b6000611d9d84828501611d64565b91505092915050565b611daf81611d43565b82525050565b6000602082019050611dca6000830184611da6565b92915050565b60008060408385031215611de757611de6611a77565b5b6000611df585828601611d64565b9250506020611e0685828601611c3b565b9150509250929050565b600060ff82169050919050565b611e2681611e10565b82525050565b6000602082019050611e416000830184611e1d565b92915050565b600060208284031215611e5d57611e5c611a77565b5b6000611e6b84828501611c71565b91505092915050565b600060208284031215611e8a57611e89611a77565b5b6000611e9884828501611c3b565b91505092915050565b60008060408385031215611eb857611eb7611a77565b5b6000611ec685828601611c3b565b9250506020611ed785828601611c3b565b9150509250929050565b7f4e487b7100000000000000000000000000000000000000000000000000000000600052602260045260246000fd5b60006002820490506001821680611f2857607f821691505b60208210811415611f3c57611f3b611ee1565b5b50919050565b7f416363657373436f6e74726f6c3a2063616e206f6e6c792072656e6f756e636560008201527f20726f6c657320666f722073656c660000000000000000000000000000000000602082015250565b6000611f9e602f83611b42565b9150611fa982611f42565b604082019050919050565b60006020820190508181036000830152611fcd81611f91565b9050919050565b7f4e487b7100000000000000000000000000000000000000000000000000000000600052601160045260246000fd5b600061200e82611c50565b915061201983611c50565b9250827fffffffffffffffffffffffffffffffffffffffffffffffffffffffffffffffff0382111561204e5761204d611fd4565b5b828201905092915050565b7f43616c6c6572206973206e6f742061206d696e74657200000000000000000000600082015250565b600061208f601683611b42565b915061209a82612059565b602082019050919050565b600060208201905081810360008301526120be81612082565b9050919050565b7f43616c6c6572206973206e6f7420616e2061646d696e00000000000000000000600082015250565b60006120fb601683611b42565b9150612106826120c5565b602082019050919050565b6000602082019050818103600083015261212a816120ee565b9050919050565b7f43616c6c6572206973206e6f742061206275726e657200000000000000000000600082015250565b6000612167601683611b42565b915061217282612131565b602082019050919050565b600060208201905081810360008301526121968161215a565b9050919050565b7f45524332303a2064656372656173656420616c6c6f77616e63652062656c6f7760008201527f207a65726f000000000000000000000000000000000000000000000000000000602082015250565b60006121f9602583611b42565b91506122048261219d565b604082019050919050565b60006020820190508181036000830152612228816121ec565b9050919050565b7f45524332303a20617070726f76652066726f6d20746865207a65726f2061646460008201527f7265737300000000000000000000000000000000000000000000000000000000602082015250565b600061228b602483611b42565b91506122968261222f565b604082019050919050565b600060208201905081810360008301526122ba8161227e565b9050919050565b7f45524332303a20617070726f766520746f20746865207a65726f20616464726560008201527f7373000000000000000000000000000000000000000000000000000000000000602082015250565b600061231d602283611b42565b9150612328826122c1565b604082019050919050565b6000602082019050818103600083015261234c81612310565b9050919050565b7f45524332303a20696e73756666696369656e7420616c6c6f77616e6365000000600082015250565b6000612389601d83611b42565b915061239482612353565b602082019050919050565b600060208201905081810360008301526123b88161237c565b9050919050565b7f45524332303a207472616e736665722066726f6d20746865207a65726f20616460008201527f6472657373000000000000000000000000000000000000000000000000000000602082015250565b600061241b602583611b42565b9150612426826123bf565b604082019050919050565b6000602082019050818103600083015261244a8161240e565b9050919050565b7f45524332303a207472616e7366657220746f20746865207a65726f206164647260008201527f6573730000000000000000000000000000000000000000000000000000000000602082015250565b60006124ad602383611b42565b91506124b882612451565b604082019050919050565b600060208201905081810360008301526124dc816124a0565b9050919050565b7f45524332303a207472616e7366657220616d6f756e742065786365656473206260008201527f616c616e63650000000000000000000000000000000000000000000000000000602082015250565b600061253f602683611b42565b915061254a826124e3565b604082019050919050565b6000602082019050818103600083015261256e81612532565b9050919050565b7f45524332303a206d696e7420746f20746865207a65726f206164647265737300600082015250565b60006125ab601f83611b42565b91506125b682612575565b602082019050919050565b600060208201905081810360008301526125da8161259e565b9050919050565b7f45524332303a206275726e2066726f6d20746865207a65726f2061646472657360008201527f7300000000000000000000000000000000000000000000000000000000000000602082015250565b600061263d602183611b42565b9150612648826125e1565b604082019050919050565b6000602082019050818103600083015261266c81612630565b9050919050565b7f45524332303a206275726e20616d6f756e7420657863656564732062616c616e60008201527f6365000000000000000000000000000000000000000000000000000000000000602082015250565b60006126cf602283611b42565b91506126da82612673565b604082019050919050565b600060208201905081810360008301526126fe816126c2565b9050919050565b600061271082611c50565b915061271b83611c50565b92508282101561272e5761272d611fd4565b5b828203905092915050565b600081905092915050565b7f416363657373436f6e74726f6c3a206163636f756e7420000000000000000000600082015250565b600061277a601783612739565b915061278582612744565b601782019050919050565b600061279b82611b37565b6127a58185612739565b93506127b5818560208601611b53565b80840191505092915050565b7f206973206d697373696e6720726f6c6520000000000000000000000000000000600082015250565b60006127f7601183612739565b9150612802826127c1565b601182019050919050565b60006128188261276d565b91506128248285612790565b915061282f826127ea565b915061283b8284612790565b91508190509392505050565b600061285282611c50565b915061285d83611c50565b9250817fffffffffffffffffffffffffffffffffffffffffffffffffffffffffffffffff048311821515161561289657612895611fd4565b5b828202905092915050565b7f4e487b7100000000000000000000000000000000000000000000000000000000600052604160045260246000fd5b7f4e487b7100000000000000000000000000000000000000000000000000000000600052603260045260246000fd5b600061290a82611c50565b9150600082141561291e5761291d611fd4565b5b600182039050919050565b7f537472696e67733a20686578206c656e67746820696e73756666696369656e74600082015250565b600061295f602083611b42565b915061296a82612929565b602082019050919050565b6000602082019050818103600083015261298e81612952565b905091905056fea26469706673582212203104c9bf0c5e61096021520f253281d296f7174d0df4371a762ce8584e44956b64736f6c63430008090033",
  "devdoc": {
    "kind": "dev",
    "methods": {
      "allowance(address,address)": {
        "details": "See {IERC20-allowance}."
      },
      "approve(address,uint256)": {
        "details": "See {IERC20-approve}. NOTE: If `amount` is the maximum `uint256`, the allowance is not updated on `transferFrom`. This is semantically equivalent to an infinite approval. Requirements: - `spender` cannot be the zero address."
      },
      "balanceOf(address)": {
        "details": "See {IERC20-balanceOf}."
      },
      "burn(uint256)": {
        "details": "Destroys `amount` tokens from the caller. See {ERC20-_burn}."
      },
      "burnFrom(address,uint256)": {
        "details": "Destroys `amount` tokens from `account`, deducting from the caller's allowance. See {ERC20-_burn} and {ERC20-allowance}. Requirements: - the caller must have allowance for ``accounts``'s tokens of at least `amount`."
      },
      "decimals()": {
        "details": "Returns the number of decimals used to get its user representation. For example, if `decimals` equals `2`, a balance of `505` tokens should be displayed to a user as `5.05` (`505 / 10 ** 2`). Tokens usually opt for a value of 18, imitating the relationship between Ether and Wei. This is the value {ERC20} uses, unless this function is overridden; NOTE: This information is only used for _display_ purposes: it in no way affects any of the arithmetic of the contract, including {IERC20-balanceOf} and {IERC20-transfer}."
      },
      "decreaseAllowance(address,uint256)": {
        "details": "Atomically decreases the allowance granted to `spender` by the caller. This is an alternative to {approve} that can be used as a mitigation for problems described in {IERC20-approve}. Emits an {Approval} event indicating the updated allowance. Requirements: - `spender` cannot be the zero address. - `spender` must have allowance for the caller of at least `subtractedValue`."
      },
      "getRoleAdmin(bytes32)": {
        "details": "Returns the admin role that controls `role`. See {grantRole} and {revokeRole}. To change a role's admin, use {_setRoleAdmin}."
      },
      "grantRole(bytes32,address)": {
        "details": "Grants `role` to `account`. If `account` had not been already granted `role`, emits a {RoleGranted} event. Requirements: - the caller must have ``role``'s admin role. May emit a {RoleGranted} event."
      },
      "hasRole(bytes32,address)": {
        "details": "Returns `true` if `account` has been granted `role`."
      },
      "increaseAllowance(address,uint256)": {
        "details": "Atomically increases the allowance granted to `spender` by the caller. This is an alternative to {approve} that can be used as a mitigation for problems described in {IERC20-approve}. Emits an {Approval} event indicating the updated allowance. Requirements: - `spender` cannot be the zero address."
      },
      "name()": {
        "details": "Returns the name of the token."
      },
      "renounceRole(bytes32,address)": {
        "details": "Revokes `role` from the calling account. Roles are often managed via {grantRole} and {revokeRole}: this function's purpose is to provide a mechanism for accounts to lose their privileges if they are compromised (such as when a trusted device is misplaced). If the calling account had been revoked `role`, emits a {RoleRevoked} event. Requirements: - the caller must be `account`. May emit a {RoleRevoked} event."
      },
      "revokeRole(bytes32,address)": {
        "details": "Revokes `role` from `account`. If `account` had been granted `role`, emits a {RoleRevoked} event. Requirements: - the caller must have ``role``'s admin role. May emit a {RoleRevoked} event."
      },
      "supportsInterface(bytes4)": {
        "details": "See {IERC165-supportsInterface}."
      },
      "symbol()": {
        "details": "Returns the symbol of the token, usually a shorter version of the name."
      },
      "totalSupply()": {
        "details": "See {IERC20-totalSupply}."
      },
      "transfer(address,uint256)": {
        "details": "See {IERC20-transfer}. Requirements: - `to` cannot be the zero address. - the caller must have a balance of at least `amount`."
      },
      "transferFrom(address,address,uint256)": {
        "details": "See {IERC20-transferFrom}. Emits an {Approval} event indicating the updated allowance. This is not required by the EIP. See the note at the beginning of {ERC20}. NOTE: Does not update the allowance if the current allowance is the maximum `uint256`. Requirements: - `from` and `to` cannot be the zero address. - `from` must have a balance of at least `amount`. - the caller must have allowance for ``from``'s tokens of at least `amount`."
      }
    },
    "version": 1
  },
  "userdoc": {
    "kind": "user",
    "methods": {},
    "version": 1
  },
  "storageLayout": {
    "storage": [
      {
        "astId": 1751,
        "contract": "contracts/USDC.sol:USDC",
        "label": "_balances",
        "offset": 0,
        "slot": "0",
        "type": "t_mapping(t_address,t_uint256)"
      },
      {
        "astId": 1757,
        "contract": "contracts/USDC.sol:USDC",
        "label": "_allowances",
        "offset": 0,
        "slot": "1",
        "type": "t_mapping(t_address,t_mapping(t_address,t_uint256))"
      },
      {
        "astId": 1759,
        "contract": "contracts/USDC.sol:USDC",
        "label": "_totalSupply",
        "offset": 0,
        "slot": "2",
        "type": "t_uint256"
      },
      {
        "astId": 1761,
        "contract": "contracts/USDC.sol:USDC",
        "label": "_name",
        "offset": 0,
        "slot": "3",
        "type": "t_string_storage"
      },
      {
        "astId": 1763,
        "contract": "contracts/USDC.sol:USDC",
        "label": "_symbol",
        "offset": 0,
        "slot": "4",
        "type": "t_string_storage"
      },
      {
        "astId": 1254,
        "contract": "contracts/USDC.sol:USDC",
        "label": "_roles",
        "offset": 0,
        "slot": "5",
        "type": "t_mapping(t_bytes32,t_struct(RoleData)1249_storage)"
      }
    ],
    "types": {
      "t_address": {
        "encoding": "inplace",
        "label": "address",
        "numberOfBytes": "20"
      },
      "t_bool": {
        "encoding": "inplace",
        "label": "bool",
        "numberOfBytes": "1"
      },
      "t_bytes32": {
        "encoding": "inplace",
        "label": "bytes32",
        "numberOfBytes": "32"
      },
      "t_mapping(t_address,t_bool)": {
        "encoding": "mapping",
        "key": "t_address",
        "label": "mapping(address => bool)",
        "numberOfBytes": "32",
        "value": "t_bool"
      },
      "t_mapping(t_address,t_mapping(t_address,t_uint256))": {
        "encoding": "mapping",
        "key": "t_address",
        "label": "mapping(address => mapping(address => uint256))",
        "numberOfBytes": "32",
        "value": "t_mapping(t_address,t_uint256)"
      },
      "t_mapping(t_address,t_uint256)": {
        "encoding": "mapping",
        "key": "t_address",
        "label": "mapping(address => uint256)",
        "numberOfBytes": "32",
        "value": "t_uint256"
      },
      "t_mapping(t_bytes32,t_struct(RoleData)1249_storage)": {
        "encoding": "mapping",
        "key": "t_bytes32",
        "label": "mapping(bytes32 => struct AccessControl.RoleData)",
        "numberOfBytes": "32",
        "value": "t_struct(RoleData)1249_storage"
      },
      "t_string_storage": {
        "encoding": "bytes",
        "label": "string",
        "numberOfBytes": "32"
      },
      "t_struct(RoleData)1249_storage": {
        "encoding": "inplace",
        "label": "struct AccessControl.RoleData",
        "members": [
          {
            "astId": 1246,
            "contract": "contracts/USDC.sol:USDC",
            "label": "members",
            "offset": 0,
            "slot": "0",
            "type": "t_mapping(t_address,t_bool)"
          },
          {
            "astId": 1248,
            "contract": "contracts/USDC.sol:USDC",
            "label": "adminRole",
            "offset": 0,
            "slot": "1",
            "type": "t_bytes32"
          }
        ],
        "numberOfBytes": "64"
      },
      "t_uint256": {
        "encoding": "inplace",
        "label": "uint256",
        "numberOfBytes": "32"
      }
    }
  }
}