{
  "address": "0x20BD2DDceBbb53B8Aa84C141A40A8995ac5Ab250",
  "abi": [
    {
      "inputs": [
        {
          "internalType": "address",
          "name": "_gateway",
          "type": "address"
        },
        {
          "internalType": "address",
          "name": "_gasReceiver",
          "type": "address"
        },
        {
          "internalType": "address",
          "name": "_usdc",
          "type": "address"
        },
        {
          "internalType": "address",
          "name": "_circleBridge",
          "type": "address"
        },
        {
          "internalType": "address",
          "name": "_wrappedNativeAddress",
          "type": "address"
        }
      ],
      "stateMutability": "nonpayable",
      "type": "constructor"
    },
    {
      "inputs": [],
      "name": "AlreadyForecalled",
      "type": "error"
    },
    {
      "inputs": [],
      "name": "InsufficientInput",
      "type": "error"
    },
    {
      "inputs": [],
      "name": "InvalidTrade",
      "type": "error"
    },
    {
      "inputs": [],
      "name": "NotApprovedByGateway",
      "type": "error"
    },
    {
      "inputs": [],
      "name": "TradeFailed",
      "type": "error"
    },
    {
      "inputs": [],
      "name": "TransferFailed",
      "type": "error"
    },
    {
      "anonymous": false,
      "inputs": [
        {
          "indexed": true,
          "internalType": "address",
          "name": "previousOwner",
          "type": "address"
        },
        {
          "indexed": true,
          "internalType": "address",
          "name": "newOwner",
          "type": "address"
        }
      ],
      "name": "OwnershipTransferred",
      "type": "event"
    },
    {
      "anonymous": false,
      "inputs": [
        {
          "indexed": true,
          "internalType": "bytes32",
          "name": "traceId",
          "type": "bytes32"
        },
        {
          "indexed": false,
          "internalType": "uint256",
          "name": "amount",
          "type": "uint256"
        },
        {
          "indexed": false,
          "internalType": "address",
          "name": "refundAddress",
          "type": "address"
        }
      ],
      "name": "SwapFailed",
      "type": "event"
    },
    {
      "anonymous": false,
      "inputs": [
        {
          "indexed": true,
          "internalType": "bytes32",
          "name": "traceId",
          "type": "bytes32"
        },
        {
          "indexed": true,
          "internalType": "bytes32",
          "name": "payloadHash",
          "type": "bytes32"
        },
        {
          "indexed": false,
          "internalType": "uint256",
          "name": "amount",
          "type": "uint256"
        },
        {
          "indexed": false,
          "internalType": "string",
          "name": "destinationChain",
          "type": "string"
        },
        {
          "indexed": false,
          "internalType": "bytes",
          "name": "payload",
          "type": "bytes"
        }
      ],
      "name": "SwapPending",
      "type": "event"
    },
    {
      "anonymous": false,
      "inputs": [
        {
          "indexed": true,
          "internalType": "bytes32",
          "name": "traceId",
          "type": "bytes32"
        },
        {
          "indexed": false,
          "internalType": "uint256",
          "name": "amount",
          "type": "uint256"
        },
        {
          "indexed": false,
          "internalType": "bytes",
          "name": "tradeData",
          "type": "bytes"
        }
      ],
      "name": "SwapSuccess",
      "type": "event"
    },
    {
      "inputs": [
        {
          "internalType": "string",
          "name": "chain_",
          "type": "string"
        },
        {
          "internalType": "uint32",
          "name": "domain",
          "type": "uint32"
        },
        {
          "internalType": "address",
          "name": "address_",
          "type": "address"
        }
      ],
      "name": "addSibling",
      "outputs": [],
      "stateMutability": "nonpayable",
      "type": "function"
    },
    {
      "inputs": [
        {
          "internalType": "uint256",
          "name": "amount",
          "type": "uint256"
        },
        {
          "internalType": "bytes",
          "name": "",
          "type": "bytes"
        }
      ],
      "name": "amountPostFee",
      "outputs": [
        {
          "internalType": "uint256",
          "name": "",
          "type": "uint256"
        }
      ],
      "stateMutability": "nonpayable",
      "type": "function"
    },
    {
      "inputs": [],
      "name": "circleBridge",
      "outputs": [
        {
          "internalType": "contract CircleBridge",
          "name": "",
          "type": "address"
        }
      ],
      "stateMutability": "view",
      "type": "function"
    },
    {
      "inputs": [
        {
          "internalType": "string",
          "name": "",
          "type": "string"
        }
      ],
      "name": "destinationDomains",
      "outputs": [
        {
          "internalType": "uint32",
          "name": "",
          "type": "uint32"
        }
      ],
      "stateMutability": "view",
      "type": "function"
    },
    {
      "inputs": [
        {
          "internalType": "string",
          "name": "",
          "type": "string"
        },
        {
          "internalType": "string",
          "name": "",
          "type": "string"
        },
        {
          "internalType": "bytes",
          "name": "payload",
          "type": "bytes"
        }
      ],
      "name": "execute",
      "outputs": [],
      "stateMutability": "nonpayable",
      "type": "function"
    },
    {
      "inputs": [
        {
          "internalType": "bytes32",
          "name": "commandId",
          "type": "bytes32"
        },
        {
          "internalType": "string",
          "name": "sourceChain",
          "type": "string"
        },
        {
          "internalType": "string",
          "name": "sourceAddress",
          "type": "string"
        },
        {
          "internalType": "bytes",
          "name": "payload",
          "type": "bytes"
        }
      ],
      "name": "execute",
      "outputs": [],
      "stateMutability": "nonpayable",
      "type": "function"
    },
    {
      "inputs": [
        {
          "internalType": "bytes32",
          "name": "commandId",
          "type": "bytes32"
        },
        {
          "internalType": "string",
          "name": "sourceChain",
          "type": "string"
        },
        {
          "internalType": "string",
          "name": "sourceAddress",
          "type": "string"
        },
        {
          "internalType": "bytes",
          "name": "payload",
          "type": "bytes"
        },
        {
          "internalType": "string",
          "name": "tokenSymbol",
          "type": "string"
        },
        {
          "internalType": "uint256",
          "name": "amount",
          "type": "uint256"
        }
      ],
      "name": "executeWithToken",
      "outputs": [],
      "stateMutability": "nonpayable",
      "type": "function"
    },
    {
      "inputs": [
        {
          "internalType": "string",
          "name": "sourceChain",
          "type": "string"
        },
        {
          "internalType": "string",
          "name": "sourceAddress",
          "type": "string"
        },
        {
          "internalType": "bytes",
          "name": "payload",
          "type": "bytes"
        },
        {
          "internalType": "address",
          "name": "forecaller",
          "type": "address"
        }
      ],
      "name": "forecall",
      "outputs": [],
      "stateMutability": "nonpayable",
      "type": "function"
    },
    {
      "inputs": [
        {
          "internalType": "string",
          "name": "sourceChain",
          "type": "string"
        },
        {
          "internalType": "string",
          "name": "sourceAddress",
          "type": "string"
        },
        {
          "internalType": "bytes",
          "name": "payload",
          "type": "bytes"
        },
        {
          "internalType": "string",
          "name": "tokenSymbol",
          "type": "string"
        },
        {
          "internalType": "uint256",
          "name": "amount",
          "type": "uint256"
        },
        {
          "internalType": "address",
          "name": "forecaller",
          "type": "address"
        }
      ],
      "name": "forecallWithToken",
      "outputs": [],
      "stateMutability": "nonpayable",
      "type": "function"
    },
    {
      "inputs": [],
      "name": "gateway",
      "outputs": [
        {
          "internalType": "contract IAxelarGateway",
          "name": "",
          "type": "address"
        }
      ],
      "stateMutability": "view",
      "type": "function"
    },
    {
      "inputs": [
        {
          "internalType": "string",
          "name": "destinationChain",
          "type": "string"
        },
        {
          "internalType": "uint256",
          "name": "amount",
          "type": "uint256"
        },
        {
          "internalType": "bytes",
          "name": "tradeData",
          "type": "bytes"
        },
        {
          "internalType": "bytes32",
          "name": "traceId",
          "type": "bytes32"
        },
        {
          "internalType": "address",
          "name": "fallbackRecipient",
          "type": "address"
        },
        {
          "internalType": "uint16",
          "name": "inputPos",
          "type": "uint16"
        }
      ],
      "name": "nativeSendTrade",
      "outputs": [],
      "stateMutability": "payable",
      "type": "function"
    },
    {
      "inputs": [
        {
          "internalType": "string",
          "name": "destinationChain",
          "type": "string"
        },
        {
          "internalType": "bytes",
          "name": "tradeData1",
          "type": "bytes"
        },
        {
          "internalType": "bytes",
          "name": "tradeData2",
          "type": "bytes"
        },
        {
          "internalType": "bytes32",
          "name": "traceId",
          "type": "bytes32"
        },
        {
          "internalType": "address",
          "name": "fallbackRecipient",
          "type": "address"
        },
        {
          "internalType": "uint16",
          "name": "inputPos",
          "type": "uint16"
        }
      ],
      "name": "nativeTradeSendTrade",
      "outputs": [],
      "stateMutability": "payable",
      "type": "function"
    },
    {
      "inputs": [],
      "name": "owner",
      "outputs": [
        {
          "internalType": "address",
          "name": "",
          "type": "address"
        }
      ],
      "stateMutability": "view",
      "type": "function"
    },
    {
      "inputs": [],
      "name": "renounceOwnership",
      "outputs": [],
      "stateMutability": "nonpayable",
      "type": "function"
    },
    {
      "inputs": [
        {
          "internalType": "string",
          "name": "",
          "type": "string"
        }
      ],
      "name": "siblings",
      "outputs": [
        {
          "internalType": "address",
          "name": "",
          "type": "address"
        }
      ],
      "stateMutability": "view",
      "type": "function"
    },
    {
      "inputs": [
        {
          "internalType": "address",
          "name": "newOwner",
          "type": "address"
        }
      ],
      "name": "transferOwnership",
      "outputs": [],
      "stateMutability": "nonpayable",
      "type": "function"
    },
    {
      "inputs": [],
      "name": "usdc",
      "outputs": [
        {
          "internalType": "contract USDC",
          "name": "",
          "type": "address"
        }
      ],
      "stateMutability": "view",
      "type": "function"
    },
    {
      "inputs": [],
      "name": "wrappedNativeToken",
      "outputs": [
        {
          "internalType": "address",
          "name": "",
          "type": "address"
        }
      ],
      "stateMutability": "view",
      "type": "function"
    }
  ],
  "transactionHash": "0x8363c6932224ac42b7fb69e7d80240f7315b9e5ba751c0785a559661727240e3",
  "args": [
    "0xBC6fcce7c5487d43830a219CA6E7B83238B41e71",
    "0xbE406F0189A0B4cf3A05C286473D23791Dd44Cc6",
    "0x07865c6e87b9f70255377e024ace6630c1eaa37f",
    "0xdAbec94B97F7b5FCA28f050cC8EeAc2Dc9920476",
    "0xc778417E063141139Fce010982780140Aa0cD5Ab"
  ],
  "numDeployments": 2,
  "solcInputHash": "f97a53804d11dbfa2bbe72b0927d7c13",
  "bytecode": "0x60a06040523480156200001157600080fd5b5060405162004c1738038062004c178339818101604052810190620000379190620002d3565b84806000806101000a81548173ffffffffffffffffffffffffffffffffffffffff021916908373ffffffffffffffffffffffffffffffffffffffff16021790555050620000996200008d6200019b60201b60201c565b620001a360201b60201c565b8373ffffffffffffffffffffffffffffffffffffffff1660808173ffffffffffffffffffffffffffffffffffffffff168152505082600360006101000a81548173ffffffffffffffffffffffffffffffffffffffff021916908373ffffffffffffffffffffffffffffffffffffffff16021790555081600560006101000a81548173ffffffffffffffffffffffffffffffffffffffff021916908373ffffffffffffffffffffffffffffffffffffffff16021790555080600460006101000a81548173ffffffffffffffffffffffffffffffffffffffff021916908373ffffffffffffffffffffffffffffffffffffffff16021790555050505050506200035b565b600033905090565b6000600260009054906101000a900473ffffffffffffffffffffffffffffffffffffffff16905081600260006101000a81548173ffffffffffffffffffffffffffffffffffffffff021916908373ffffffffffffffffffffffffffffffffffffffff1602179055508173ffffffffffffffffffffffffffffffffffffffff168173ffffffffffffffffffffffffffffffffffffffff167f8be0079c531659141344cd1fd0a4f28419497f9722a3daafe3b4186f6b6457e060405160405180910390a35050565b600080fd5b600073ffffffffffffffffffffffffffffffffffffffff82169050919050565b60006200029b826200026e565b9050919050565b620002ad816200028e565b8114620002b957600080fd5b50565b600081519050620002cd81620002a2565b92915050565b600080600080600060a08688031215620002f257620002f162000269565b5b60006200030288828901620002bc565b95505060206200031588828901620002bc565b94505060406200032888828901620002bc565b93505060606200033b88828901620002bc565b92505060806200034e88828901620002bc565b9150509295509295909350565b6080516148a0620003776000396000611bc601526148a06000f3fe6080604052600436106101095760003560e01c8063713a987611610095578063bb288a0311610064578063bb288a0314610357578063d3e488d514610380578063daa0c9171461039c578063e7fb058b146103b8578063f2fde38b146103e157610109565b8063713a98761461029b578063715018a6146102d85780638da5cb5b146102ef578063a7798b691461031a57610109565b80633913c080116100dc5780633913c080146101b85780633ca2fd8e146101e15780633da2a4b51461021e5780633e413bee14610247578063491606581461027257610109565b806301a67b6b1461010e578063116191b61461013957806317fcb39b146101645780631a98b2e01461018f575b600080fd5b34801561011a57600080fd5b5061012361040a565b6040516101309190612cb7565b60405180910390f35b34801561014557600080fd5b5061014e610430565b60405161015b9190612cf3565b60405180910390f35b34801561017057600080fd5b50610179610454565b6040516101869190612d2f565b60405180910390f35b34801561019b57600080fd5b506101b660048036038101906101b19190612e85565b61047a565b005b3480156101c457600080fd5b506101df60048036038101906101da91906130d6565b61085c565b005b3480156101ed57600080fd5b5061020860048036038101906102039190613182565b610896565b60405161021591906131f1565b60405180910390f35b34801561022a57600080fd5b5061024560048036038101906102409190613274565b6108a2565b005b34801561025357600080fd5b5061025c610949565b6040516102699190613304565b60405180910390f35b34801561027e57600080fd5b506102996004803603810190610294919061331f565b61096f565b005b3480156102a757600080fd5b506102c260048036038101906102bd91906133e8565b610c3a565b6040516102cf9190613440565b60405180910390f35b3480156102e457600080fd5b506102ed610c73565b005b3480156102fb57600080fd5b50610304610c75565b6040516103119190612d2f565b60405180910390f35b34801561032657600080fd5b50610341600480360381019061033c91906133e8565b610c9f565b60405161034e9190612d2f565b60405180910390f35b34801561036357600080fd5b5061037e6004803603810190610379919061345b565b610ce8565b005b61039a600480360381019061039591906135ff565b610edf565b005b6103b660048036038101906103b191906136c4565b611239565b005b3480156103c457600080fd5b506103df60048036038101906103da91906137a5565b6114fe565b005b3480156103ed57600080fd5b50610408600480360381019061040391906138b5565b611819565b005b600560009054906101000a900473ffffffffffffffffffffffffffffffffffffffff1681565b60008054906101000a900473ffffffffffffffffffffffffffffffffffffffff1681565b600460009054906101000a900473ffffffffffffffffffffffffffffffffffffffff1681565b6000858560405161048c929190613912565b6040518091039020905060008054906101000a900473ffffffffffffffffffffffffffffffffffffffff1673ffffffffffffffffffffffffffffffffffffffff16631876eed98c8c8c8c8c878b8b8b6040518a63ffffffff1660e01b81526004016104ff99989796959493929190613978565b602060405180830381600087803b15801561051957600080fd5b505af115801561052d573d6000803e3d6000fd5b505050506040513d601f19601f820116820180604052508101906105519190613a2c565b610587576040517f500c44b400000000000000000000000000000000000000000000000000000000815260040160405180910390fd5b6000600160008c8c8c8c8c8c8c8c8c6040516020016105ae99989796959493929190613a97565b60405160208183030381529060405280519060200120815260200190815260200160002060009054906101000a900473ffffffffffffffffffffffffffffffffffffffff169050600073ffffffffffffffffffffffffffffffffffffffff168173ffffffffffffffffffffffffffffffffffffffff1614610773576000600160008d8d8d8d8d8d8d8d8d60405160200161065099989796959493929190613a97565b60405160208183030381529060405280519060200120815260200190815260200160002060006101000a81548173ffffffffffffffffffffffffffffffffffffffff021916908373ffffffffffffffffffffffffffffffffffffffff16021790555060008060009054906101000a900473ffffffffffffffffffffffffffffffffffffffff1673ffffffffffffffffffffffffffffffffffffffff1663935b13f687876040518363ffffffff1660e01b8152600401610710929190613b0e565b60206040518083038186803b15801561072857600080fd5b505afa15801561073c573d6000803e3d6000fd5b505050506040513d601f19601f820116820180604052508101906107609190613b47565b905061076d81838661189d565b5061084e565b61084d8b8b8080601f016020809104026020016040519081016040528093929190818152602001838380828437600081840152601f19601f820116905080830192505050505050508a8a8080601f016020809104026020016040519081016040528093929190818152602001838380828437600081840152601f19601f82011690508083019250505050505050898989898080601f016020809104026020016040519081016040528093929190818152602001838380828437600081840152601f19601f8201169050808301925050505050505088611a13565b5b505050505050505050505050565b600080600080600086868101906108739190613bb2565b9450945094509450945061088a8486858585611a1b565b50505050505050505050565b60008390509392505050565b6108aa611b0b565b806006846040516108bb9190613cc3565b908152602001604051809103902060006101000a81548173ffffffffffffffffffffffffffffffffffffffff021916908373ffffffffffffffffffffffffffffffffffffffff160217905550816007846040516109189190613cc3565b908152602001604051809103902060006101000a81548163ffffffff021916908363ffffffff160217905550505050565b600360009054906101000a900473ffffffffffffffffffffffffffffffffffffffff1681565b60008282604051610981929190613912565b6040518091039020905060008054906101000a900473ffffffffffffffffffffffffffffffffffffffff1673ffffffffffffffffffffffffffffffffffffffff16635f6970c38989898989876040518763ffffffff1660e01b81526004016109ee96959493929190613cda565b602060405180830381600087803b158015610a0857600080fd5b505af1158015610a1c573d6000803e3d6000fd5b505050506040513d601f19601f82011682018060405250810190610a409190613a2c565b610a76576040517f500c44b400000000000000000000000000000000000000000000000000000000815260040160405180910390fd5b600060016000898989898989604051602001610a9796959493929190613d31565b60405160208183030381529060405280519060200120815260200190815260200160002060009054906101000a900473ffffffffffffffffffffffffffffffffffffffff169050600073ffffffffffffffffffffffffffffffffffffffff168173ffffffffffffffffffffffffffffffffffffffff1614610b9a576000600160008a8a8a8a8a8a604051602001610b3396959493929190613d31565b60405160208183030381529060405280519060200120815260200190815260200160002060006101000a81548173ffffffffffffffffffffffffffffffffffffffff021916908373ffffffffffffffffffffffffffffffffffffffff160217905550610c2f565b610c2e88888080601f016020809104026020016040519081016040528093929190818152602001838380828437600081840152601f19601f8201169050808301925050505050505087878080601f016020809104026020016040519081016040528093929190818152602001838380828437600081840152601f19601f820116905080830192505050505050508686611b89565b5b505050505050505050565b6007818051602081018201805184825260208301602085012081835280955050505050506000915054906101000a900463ffffffff1681565b565b6000600260009054906101000a900473ffffffffffffffffffffffffffffffffffffffff16905090565b6006818051602081018201805184825260208301602085012081835280955050505050506000915054906101000a900473ffffffffffffffffffffffffffffffffffffffff1681565b610cf787878787878787611b8f565b600073ffffffffffffffffffffffffffffffffffffffff1660016000898989898989604051602001610d2e96959493929190613d31565b60405160208183030381529060405280519060200120815260200190815260200160002060009054906101000a900473ffffffffffffffffffffffffffffffffffffffff1673ffffffffffffffffffffffffffffffffffffffff1614610dc0576040517f35b7d55000000000000000000000000000000000000000000000000000000000815260040160405180910390fd5b8060016000898989898989604051602001610de096959493929190613d31565b60405160208183030381529060405280519060200120815260200190815260200160002060006101000a81548173ffffffffffffffffffffffffffffffffffffffff021916908373ffffffffffffffffffffffffffffffffffffffff160217905550610ed687878080601f016020809104026020016040519081016040528093929190818152602001838380828437600081840152601f19601f8201169050808301925050505050505086868080601f016020809104026020016040519081016040528093929190818152602001838380828437600081840152601f19601f820116905080830192505050505050508585611b89565b50505050505050565b85600073ffffffffffffffffffffffffffffffffffffffff16600682604051610f089190613cc3565b908152602001604051809103902060009054906101000a900473ffffffffffffffffffffffffffffffffffffffff1673ffffffffffffffffffffffffffffffffffffffff161415610f8e576040517f08c379a0000000000000000000000000000000000000000000000000000000008152600401610f8590613df5565b60405180910390fd5b600360009054906101000a900473ffffffffffffffffffffffffffffffffffffffff1673ffffffffffffffffffffffffffffffffffffffff166323b872dd3330896040518463ffffffff1660e01b8152600401610fed93929190613e15565b602060405180830381600087803b15801561100757600080fd5b505af115801561101b573d6000803e3d6000fd5b505050506040513d601f19601f8201168201806040525081019061103f9190613a2c565b506000600560009054906101000a900473ffffffffffffffffffffffffffffffffffffffff1673ffffffffffffffffffffffffffffffffffffffff16636fd3504e883073ffffffffffffffffffffffffffffffffffffffff1663713a98768c6040518263ffffffff1660e01b81526004016110ba9190613e85565b60206040518083038186803b1580156110d257600080fd5b505afa1580156110e6573d6000803e3d6000fd5b505050506040513d601f19601f8201168201806040525081019061110a9190613ebc565b3073ffffffffffffffffffffffffffffffffffffffff1663a7798b698d6040518263ffffffff1660e01b81526004016111439190613e85565b60206040518083038186803b15801561115b57600080fd5b505afa15801561116f573d6000803e3d6000fd5b505050506040513d601f19601f820116820180604052508101906111939190613b47565b73ffffffffffffffffffffffffffffffffffffffff1660001b306040518563ffffffff1660e01b81526004016111cc9493929190613ee9565b602060405180830381600087803b1580156111e657600080fd5b505af11580156111fa573d6000803e3d6000fd5b505050506040513d601f19601f8201168201806040525081019061121e9190613f6e565b905061122f88878934898989611b98565b5050505050505050565b85600073ffffffffffffffffffffffffffffffffffffffff166006826040516112629190613cc3565b908152602001604051809103902060009054906101000a900473ffffffffffffffffffffffffffffffffffffffff1673ffffffffffffffffffffffffffffffffffffffff1614156112e8576040517f08c379a00000000000000000000000000000000000000000000000000000000081526004016112df90613df5565b60405180910390fd5b6000806112f488611e55565b915091506000600560009054906101000a900473ffffffffffffffffffffffffffffffffffffffff1673ffffffffffffffffffffffffffffffffffffffff16636fd3504e833073ffffffffffffffffffffffffffffffffffffffff1663713a98768e6040518263ffffffff1660e01b81526004016113729190613e85565b60206040518083038186803b15801561138a57600080fd5b505afa15801561139e573d6000803e3d6000fd5b505050506040513d601f19601f820116820180604052508101906113c29190613ebc565b3073ffffffffffffffffffffffffffffffffffffffff1663a7798b698f6040518263ffffffff1660e01b81526004016113fb9190613e85565b60206040518083038186803b15801561141357600080fd5b505afa158015611427573d6000803e3d6000fd5b505050506040513d601f19601f8201168201806040525081019061144b9190613b47565b73ffffffffffffffffffffffffffffffffffffffff1660001b306040518563ffffffff1660e01b81526004016114849493929190613ee9565b602060405180830381600087803b15801561149e57600080fd5b505af11580156114b2573d6000803e3d6000fd5b505050506040513d601f19601f820116820180604052508101906114d69190613f6e565b90506114f28a898486346114ea9190613fca565b8b8b8b611b98565b50505050505050505050565b60008060009054906101000a900473ffffffffffffffffffffffffffffffffffffffff1673ffffffffffffffffffffffffffffffffffffffff1663935b13f686866040518363ffffffff1660e01b815260040161155c929190613b0e565b60206040518083038186803b15801561157457600080fd5b505afa158015611588573d6000803e3d6000fd5b505050506040513d601f19601f820116820180604052508101906115ac9190613b47565b905060006115bb848989610896565b90506115c8823383611f20565b6115da8c8c8c8c8c8c8c8c8c8c612098565b600073ffffffffffffffffffffffffffffffffffffffff16600160008e8e8e8e8e8e8e8e8e60405160200161161799989796959493929190613a97565b60405160208183030381529060405280519060200120815260200190815260200160002060009054906101000a900473ffffffffffffffffffffffffffffffffffffffff1673ffffffffffffffffffffffffffffffffffffffff16146116a9576040517f35b7d55000000000000000000000000000000000000000000000000000000000815260040160405180910390fd5b82600160008e8e8e8e8e8e8e8e8e6040516020016116cf99989796959493929190613a97565b60405160208183030381529060405280519060200120815260200190815260200160002060006101000a81548173ffffffffffffffffffffffffffffffffffffffff021916908373ffffffffffffffffffffffffffffffffffffffff16021790555061180b8c8c8080601f016020809104026020016040519081016040528093929190818152602001838380828437600081840152601f19601f820116905080830192505050505050508b8b8080601f016020809104026020016040519081016040528093929190818152602001838380828437600081840152601f19601f820116905080830192505050505050508a8a8a8a8080601f016020809104026020016040519081016040528093929190818152602001838380828437600081840152601f19601f8201169050808301925050505050505086611a13565b505050505050505050505050565b611821611b0b565b600073ffffffffffffffffffffffffffffffffffffffff168173ffffffffffffffffffffffffffffffffffffffff161415611891576040517f08c379a000000000000000000000000000000000000000000000000000000000815260040161188890614070565b60405180910390fd5b61189a816120a4565b50565b6000808473ffffffffffffffffffffffffffffffffffffffff1663a9059cbb60e01b85856040516024016118d2929190614090565b604051602081830303815290604052907bffffffffffffffffffffffffffffffffffffffffffffffffffffffff19166020820180517bffffffffffffffffffffffffffffffffffffffffffffffffffffffff838183161783525050505060405161193c91906140f5565b6000604051808303816000865af19150503d8060008114611979576040519150601f19603f3d011682016040523d82523d6000602084013e61197e565b606091505b509150915060008280156119ae57506000825114806119ad5750818060200190518101906119ac9190613a2c565b5b5b90508015806119d4575060008673ffffffffffffffffffffffffffffffffffffffff163b145b15611a0b576040517f90b8ec1800000000000000000000000000000000000000000000000000000000815260040160405180910390fd5b505050505050565b505050505050565b60008085806020019051810190611a329190614121565b9050600360009054906101000a900473ffffffffffffffffffffffffffffffffffffffff1673ffffffffffffffffffffffffffffffffffffffff168173ffffffffffffffffffffffffffffffffffffffff1614611a9c57611a9485888661216a565b915050611b02565b8683870152611aab86886121bb565b611ac257611aba85888661216a565b915050611b02565b847f2eee7242b494decec975364a3a68cc2983c8c343618698e44ca690103af761758888604051611af4929190614187565b60405180910390a260019150505b95945050505050565b611b136122e0565b73ffffffffffffffffffffffffffffffffffffffff16611b31610c75565b73ffffffffffffffffffffffffffffffffffffffff1614611b87576040517f08c379a0000000000000000000000000000000000000000000000000000000008152600401611b7e90614203565b60405180910390fd5b565b50505050565b50505050505050565b60008686858585604051602001611bb3959493929190614232565b60405160208183030381529060405290507f000000000000000000000000000000000000000000000000000000000000000073ffffffffffffffffffffffffffffffffffffffff16630c93e3bb86308b611c943073ffffffffffffffffffffffffffffffffffffffff1663a7798b698f6040518263ffffffff1660e01b8152600401611c3f9190613e85565b60206040518083038186803b158015611c5757600080fd5b505afa158015611c6b573d6000803e3d6000fd5b505050506040513d601f19601f82011682018060405250810190611c8f9190613b47565b6122e8565b86336040518763ffffffff1660e01b8152600401611cb695949392919061428c565b6000604051808303818588803b158015611ccf57600080fd5b505af1158015611ce3573d6000803e3d6000fd5b505050505060008054906101000a900473ffffffffffffffffffffffffffffffffffffffff1673ffffffffffffffffffffffffffffffffffffffff16631c92115f89611db63073ffffffffffffffffffffffffffffffffffffffff1663a7798b698d6040518263ffffffff1660e01b8152600401611d619190613e85565b60206040518083038186803b158015611d7957600080fd5b505afa158015611d8d573d6000803e3d6000fd5b505050506040513d601f19601f82011682018060405250810190611db19190613b47565b6122e8565b846040518463ffffffff1660e01b8152600401611dd5939291906142f4565b600060405180830381600087803b158015611def57600080fd5b505af1158015611e03573d6000803e3d6000fd5b505050508080519060200120847f603f384676075b3ec165d26daed675db50dfd83d03f3d12e2eecad1a52da8221888b85604051611e4393929190614340565b60405180910390a35050505050505050565b6000806000611e85600360009054906101000a900473ffffffffffffffffffffffffffffffffffffffff16612605565b9050600080611e9386612697565b9150915081611ed7576040517f08c379a0000000000000000000000000000000000000000000000000000000008152600401611ece906143d1565b60405180910390fd5b600083611f05600360009054906101000a900473ffffffffffffffffffffffffffffffffffffffff16612605565b611f0f9190613fca565b905081819550955050505050915091565b6000808473ffffffffffffffffffffffffffffffffffffffff166323b872dd60e01b853086604051602401611f5793929190613e15565b604051602081830303815290604052907bffffffffffffffffffffffffffffffffffffffffffffffffffffffff19166020820180517bffffffffffffffffffffffffffffffffffffffffffffffffffffffff8381831617835250505050604051611fc191906140f5565b6000604051808303816000865af19150503d8060008114611ffe576040519150601f19603f3d011682016040523d82523d6000602084013e612003565b606091505b5091509150600082801561203357506000825114806120325750818060200190518101906120319190613a2c565b5b5b9050801580612059575060008673ffffffffffffffffffffffffffffffffffffffff163b145b15612090576040517f90b8ec1800000000000000000000000000000000000000000000000000000000815260040160405180910390fd5b505050505050565b50505050505050505050565b6000600260009054906101000a900473ffffffffffffffffffffffffffffffffffffffff16905081600260006101000a81548173ffffffffffffffffffffffffffffffffffffffff021916908373ffffffffffffffffffffffffffffffffffffffff1602179055508173ffffffffffffffffffffffffffffffffffffffff168173ffffffffffffffffffffffffffffffffffffffff167f8be0079c531659141344cd1fd0a4f28419497f9722a3daafe3b4186f6b6457e060405160405180910390a35050565b6000612176838361287b565b837f558c0ee8c786238cf77a23150b8f030420c53c82aa0488213ace44ee1cfc92f484846040516121a89291906143f1565b60405180910390a2600090509392505050565b600080600080858060200190518101906121d5919061449f565b935093505092508273ffffffffffffffffffffffffffffffffffffffff1663095ea7b383876040518363ffffffff1660e01b8152600401612217929190614090565b602060405180830381600087803b15801561223157600080fd5b505af1158015612245573d6000803e3d6000fd5b505050506040513d601f19601f820116820180604052508101906122699190613a2c565b508173ffffffffffffffffffffffffffffffffffffffff168160405161228f91906140f5565b6000604051808303816000865af19150503d80600081146122cc576040519150601f19603f3d011682016040523d82523d6000602084013e6122d1565b606091505b50508094505050505092915050565b600033905090565b60606000826040516020016122fd919061456a565b604051602081830303815290604052905060006040518060400160405280601081526020017f303132333435363738396162636465660000000000000000000000000000000081525090506000600283516123589190614585565b600261236491906145df565b67ffffffffffffffff81111561237d5761237c612fab565b5b6040519080825280601f01601f1916602001820160405280156123af5781602001600182028036833780820191505090505b5090507f3000000000000000000000000000000000000000000000000000000000000000816000815181106123e7576123e6614635565b5b60200101907effffffffffffffffffffffffffffffffffffffffffffffffffffffffffffff1916908160001a9053507f78000000000000000000000000000000000000000000000000000000000000008160018151811061244b5761244a614635565b5b60200101907effffffffffffffffffffffffffffffffffffffffffffffffffffffffffffff1916908160001a90535060005b83518110156125f95782600485838151811061249c5761249b614635565b5b602001015160f81c60f81b7effffffffffffffffffffffffffffffffffffffffffffffffffffffffffffff1916901c60f81c60ff16815181106124e2576124e1614635565b5b602001015160f81c60f81b826002836124fb9190614585565b600261250791906145df565b8151811061251857612517614635565b5b60200101907effffffffffffffffffffffffffffffffffffffffffffffffffffffffffffff1916908160001a90535082600f60f81b8583815181106125605761255f614635565b5b602001015160f81c60f81b1660f81c60ff168151811061258357612582614635565b5b602001015160f81c60f81b8260028361259c9190614585565b60036125a891906145df565b815181106125b9576125b8614635565b5b60200101907effffffffffffffffffffffffffffffffffffffffffffffffffffffffffffff1916908160001a905350806125f290614664565b905061247d565b50809350505050919050565b60008173ffffffffffffffffffffffffffffffffffffffff166370a08231306040518263ffffffff1660e01b81526004016126409190612d2f565b60206040518083038186803b15801561265857600080fd5b505afa15801561266c573d6000803e3d6000fd5b505050506040513d601f19601f8201168201806040525081019061269091906146ad565b9050919050565b600080600080600080868060200190518101906126b4919061449f565b9350935093509350600073ffffffffffffffffffffffffffffffffffffffff168473ffffffffffffffffffffffffffffffffffffffff161415612764578173ffffffffffffffffffffffffffffffffffffffff16838260405161271791906140f5565b60006040518083038185875af1925050503d8060008114612754576040519150601f19603f3d011682016040523d82523d6000602084013e612759565b606091505b50508096505061286c565b612770843330866128ac565b8373ffffffffffffffffffffffffffffffffffffffff1663095ea7b383856040518363ffffffff1660e01b81526004016127ab929190614090565b602060405180830381600087803b1580156127c557600080fd5b505af11580156127d9573d6000803e3d6000fd5b505050506040513d601f19601f820116820180604052508101906127fd9190613a2c565b508173ffffffffffffffffffffffffffffffffffffffff168160405161282391906140f5565b6000604051808303816000865af19150503d8060008114612860576040519150601f19603f3d011682016040523d82523d6000602084013e612865565b606091505b5050809650505b85839550955050505050915091565b6128a8600360009054906101000a900473ffffffffffffffffffffffffffffffffffffffff168284612935565b5050565b61292f846323b872dd60e01b8585856040516024016128cd93929190613e15565b604051602081830303815290604052907bffffffffffffffffffffffffffffffffffffffffffffffffffffffff19166020820180517bffffffffffffffffffffffffffffffffffffffffffffffffffffffff83818316178352505050506129bb565b50505050565b6129b68363a9059cbb60e01b8484604051602401612954929190614090565b604051602081830303815290604052907bffffffffffffffffffffffffffffffffffffffffffffffffffffffff19166020820180517bffffffffffffffffffffffffffffffffffffffffffffffffffffffff83818316178352505050506129bb565b505050565b6000612a1d826040518060400160405280602081526020017f5361666545524332303a206c6f772d6c6576656c2063616c6c206661696c65648152508573ffffffffffffffffffffffffffffffffffffffff16612a829092919063ffffffff16565b9050600081511115612a7d5780806020019051810190612a3d9190613a2c565b612a7c576040517f08c379a0000000000000000000000000000000000000000000000000000000008152600401612a739061474c565b60405180910390fd5b5b505050565b6060612a918484600085612a9a565b90509392505050565b606082471015612adf576040517f08c379a0000000000000000000000000000000000000000000000000000000008152600401612ad6906147de565b60405180910390fd5b612ae885612bae565b612b27576040517f08c379a0000000000000000000000000000000000000000000000000000000008152600401612b1e9061484a565b60405180910390fd5b6000808673ffffffffffffffffffffffffffffffffffffffff168587604051612b5091906140f5565b60006040518083038185875af1925050503d8060008114612b8d576040519150601f19603f3d011682016040523d82523d6000602084013e612b92565b606091505b5091509150612ba2828286612bd1565b92505050949350505050565b6000808273ffffffffffffffffffffffffffffffffffffffff163b119050919050565b60608315612be157829050612c31565b600083511115612bf45782518084602001fd5b816040517f08c379a0000000000000000000000000000000000000000000000000000000008152600401612c289190613e85565b60405180910390fd5b9392505050565b600073ffffffffffffffffffffffffffffffffffffffff82169050919050565b6000819050919050565b6000612c7d612c78612c7384612c38565b612c58565b612c38565b9050919050565b6000612c8f82612c62565b9050919050565b6000612ca182612c84565b9050919050565b612cb181612c96565b82525050565b6000602082019050612ccc6000830184612ca8565b92915050565b6000612cdd82612c84565b9050919050565b612ced81612cd2565b82525050565b6000602082019050612d086000830184612ce4565b92915050565b6000612d1982612c38565b9050919050565b612d2981612d0e565b82525050565b6000602082019050612d446000830184612d20565b92915050565b6000604051905090565b600080fd5b600080fd5b6000819050919050565b612d7181612d5e565b8114612d7c57600080fd5b50565b600081359050612d8e81612d68565b92915050565b600080fd5b600080fd5b600080fd5b60008083601f840112612db957612db8612d94565b5b8235905067ffffffffffffffff811115612dd657612dd5612d99565b5b602083019150836001820283011115612df257612df1612d9e565b5b9250929050565b60008083601f840112612e0f57612e0e612d94565b5b8235905067ffffffffffffffff811115612e2c57612e2b612d99565b5b602083019150836001820283011115612e4857612e47612d9e565b5b9250929050565b6000819050919050565b612e6281612e4f565b8114612e6d57600080fd5b50565b600081359050612e7f81612e59565b92915050565b60008060008060008060008060008060c08b8d031215612ea857612ea7612d54565b5b6000612eb68d828e01612d7f565b9a505060208b013567ffffffffffffffff811115612ed757612ed6612d59565b5b612ee38d828e01612da3565b995099505060408b013567ffffffffffffffff811115612f0657612f05612d59565b5b612f128d828e01612da3565b975097505060608b013567ffffffffffffffff811115612f3557612f34612d59565b5b612f418d828e01612df9565b955095505060808b013567ffffffffffffffff811115612f6457612f63612d59565b5b612f708d828e01612da3565b935093505060a0612f838d828e01612e70565b9150509295989b9194979a5092959850565b600080fd5b6000601f19601f8301169050919050565b7f4e487b7100000000000000000000000000000000000000000000000000000000600052604160045260246000fd5b612fe382612f9a565b810181811067ffffffffffffffff8211171561300257613001612fab565b5b80604052505050565b6000613015612d4a565b90506130218282612fda565b919050565b600067ffffffffffffffff82111561304157613040612fab565b5b61304a82612f9a565b9050602081019050919050565b82818337600083830152505050565b600061307961307484613026565b61300b565b90508281526020810184848401111561309557613094612f95565b5b6130a0848285613057565b509392505050565b600082601f8301126130bd576130bc612d94565b5b81356130cd848260208601613066565b91505092915050565b600080600080606085870312156130f0576130ef612d54565b5b600085013567ffffffffffffffff81111561310e5761310d612d59565b5b61311a878288016130a8565b945050602085013567ffffffffffffffff81111561313b5761313a612d59565b5b613147878288016130a8565b935050604085013567ffffffffffffffff81111561316857613167612d59565b5b61317487828801612df9565b925092505092959194509250565b60008060006040848603121561319b5761319a612d54565b5b60006131a986828701612e70565b935050602084013567ffffffffffffffff8111156131ca576131c9612d59565b5b6131d686828701612df9565b92509250509250925092565b6131eb81612e4f565b82525050565b600060208201905061320660008301846131e2565b92915050565b600063ffffffff82169050919050565b6132258161320c565b811461323057600080fd5b50565b6000813590506132428161321c565b92915050565b61325181612d0e565b811461325c57600080fd5b50565b60008135905061326e81613248565b92915050565b60008060006060848603121561328d5761328c612d54565b5b600084013567ffffffffffffffff8111156132ab576132aa612d59565b5b6132b7868287016130a8565b93505060206132c886828701613233565b92505060406132d98682870161325f565b9150509250925092565b60006132ee82612c84565b9050919050565b6132fe816132e3565b82525050565b600060208201905061331960008301846132f5565b92915050565b60008060008060008060006080888a03121561333e5761333d612d54565b5b600061334c8a828b01612d7f565b975050602088013567ffffffffffffffff81111561336d5761336c612d59565b5b6133798a828b01612da3565b9650965050604088013567ffffffffffffffff81111561339c5761339b612d59565b5b6133a88a828b01612da3565b9450945050606088013567ffffffffffffffff8111156133cb576133ca612d59565b5b6133d78a828b01612df9565b925092505092959891949750929550565b6000602082840312156133fe576133fd612d54565b5b600082013567ffffffffffffffff81111561341c5761341b612d59565b5b613428848285016130a8565b91505092915050565b61343a8161320c565b82525050565b60006020820190506134556000830184613431565b92915050565b60008060008060008060006080888a03121561347a57613479612d54565b5b600088013567ffffffffffffffff81111561349857613497612d59565b5b6134a48a828b01612da3565b9750975050602088013567ffffffffffffffff8111156134c7576134c6612d59565b5b6134d38a828b01612da3565b9550955050604088013567ffffffffffffffff8111156134f6576134f5612d59565b5b6135028a828b01612df9565b935093505060606135158a828b0161325f565b91505092959891949750929550565b600067ffffffffffffffff82111561353f5761353e612fab565b5b61354882612f9a565b9050602081019050919050565b600061356861356384613524565b61300b565b90508281526020810184848401111561358457613583612f95565b5b61358f848285613057565b509392505050565b600082601f8301126135ac576135ab612d94565b5b81356135bc848260208601613555565b91505092915050565b600061ffff82169050919050565b6135dc816135c5565b81146135e757600080fd5b50565b6000813590506135f9816135d3565b92915050565b60008060008060008060c0878903121561361c5761361b612d54565b5b600087013567ffffffffffffffff81111561363a57613639612d59565b5b61364689828a016130a8565b965050602061365789828a01612e70565b955050604087013567ffffffffffffffff81111561367857613677612d59565b5b61368489828a01613597565b945050606061369589828a01612d7f565b93505060806136a689828a0161325f565b92505060a06136b789828a016135ea565b9150509295509295509295565b60008060008060008060c087890312156136e1576136e0612d54565b5b600087013567ffffffffffffffff8111156136ff576136fe612d59565b5b61370b89828a016130a8565b965050602087013567ffffffffffffffff81111561372c5761372b612d59565b5b61373889828a01613597565b955050604087013567ffffffffffffffff81111561375957613758612d59565b5b61376589828a01613597565b945050606061377689828a01612d7f565b935050608061378789828a0161325f565b92505060a061379889828a016135ea565b9150509295509295509295565b60008060008060008060008060008060c08b8d0312156137c8576137c7612d54565b5b60008b013567ffffffffffffffff8111156137e6576137e5612d59565b5b6137f28d828e01612da3565b9a509a505060208b013567ffffffffffffffff81111561381557613814612d59565b5b6138218d828e01612da3565b985098505060408b013567ffffffffffffffff81111561384457613843612d59565b5b6138508d828e01612df9565b965096505060608b013567ffffffffffffffff81111561387357613872612d59565b5b61387f8d828e01612da3565b945094505060806138928d828e01612e70565b92505060a06138a38d828e0161325f565b9150509295989b9194979a5092959850565b6000602082840312156138cb576138ca612d54565b5b60006138d98482850161325f565b91505092915050565b600081905092915050565b60006138f983856138e2565b9350613906838584613057565b82840190509392505050565b600061391f8284866138ed565b91508190509392505050565b61393481612d5e565b82525050565b600082825260208201905092915050565b6000613957838561393a565b9350613964838584613057565b61396d83612f9a565b840190509392505050565b600060c08201905061398d600083018c61392b565b81810360208301526139a0818a8c61394b565b905081810360408301526139b581888a61394b565b90506139c4606083018761392b565b81810360808301526139d781858761394b565b90506139e660a08301846131e2565b9a9950505050505050505050565b60008115159050919050565b613a09816139f4565b8114613a1457600080fd5b50565b600081519050613a2681613a00565b92915050565b600060208284031215613a4257613a41612d54565b5b6000613a5084828501613a17565b91505092915050565b600082825260208201905092915050565b6000613a768385613a59565b9350613a83838584613057565b613a8c83612f9a565b840190509392505050565b600060a0820190508181036000830152613ab2818b8d61394b565b90508181036020830152613ac781898b61394b565b90508181036040830152613adc818789613a6a565b90508181036060830152613af181858761394b565b9050613b0060808301846131e2565b9a9950505050505050505050565b60006020820190508181036000830152613b2981848661394b565b90509392505050565b600081519050613b4181613248565b92915050565b600060208284031215613b5d57613b5c612d54565b5b6000613b6b84828501613b32565b91505092915050565b6000613b7f82612c38565b9050919050565b613b8f81613b74565b8114613b9a57600080fd5b50565b600081359050613bac81613b86565b92915050565b600080600080600060a08688031215613bce57613bcd612d54565b5b600086013567ffffffffffffffff811115613bec57613beb612d59565b5b613bf888828901613597565b9550506020613c0988828901612e70565b9450506040613c1a88828901612d7f565b9350506060613c2b88828901613b9d565b9250506080613c3c888289016135ea565b9150509295509295909350565b600081519050919050565b600081905092915050565b60005b83811015613c7d578082015181840152602081019050613c62565b83811115613c8c576000848401525b50505050565b6000613c9d82613c49565b613ca78185613c54565b9350613cb7818560208601613c5f565b80840191505092915050565b6000613ccf8284613c92565b915081905092915050565b6000608082019050613cef600083018961392b565b8181036020830152613d0281878961394b565b90508181036040830152613d1781858761394b565b9050613d26606083018461392b565b979650505050505050565b60006060820190508181036000830152613d4c81888a61394b565b90508181036020830152613d6181868861394b565b90508181036040830152613d76818486613a6a565b9050979650505050505050565b7f436972636c655377617045786563757461626c653a20696e76616c696420646560008201527f7374696e6174696f6e20636861696e0000000000000000000000000000000000602082015250565b6000613ddf602f8361393a565b9150613dea82613d83565b604082019050919050565b60006020820190508181036000830152613e0e81613dd2565b9050919050565b6000606082019050613e2a6000830186612d20565b613e376020830185612d20565b613e4460408301846131e2565b949350505050565b6000613e5782613c49565b613e61818561393a565b9350613e71818560208601613c5f565b613e7a81612f9a565b840191505092915050565b60006020820190508181036000830152613e9f8184613e4c565b905092915050565b600081519050613eb68161321c565b92915050565b600060208284031215613ed257613ed1612d54565b5b6000613ee084828501613ea7565b91505092915050565b6000608082019050613efe60008301876131e2565b613f0b6020830186613431565b613f18604083018561392b565b613f256060830184612d20565b95945050505050565b600067ffffffffffffffff82169050919050565b613f4b81613f2e565b8114613f5657600080fd5b50565b600081519050613f6881613f42565b92915050565b600060208284031215613f8457613f83612d54565b5b6000613f9284828501613f59565b91505092915050565b7f4e487b7100000000000000000000000000000000000000000000000000000000600052601160045260246000fd5b6000613fd582612e4f565b9150613fe083612e4f565b925082821015613ff357613ff2613f9b565b5b828203905092915050565b7f4f776e61626c653a206e6577206f776e657220697320746865207a65726f206160008201527f6464726573730000000000000000000000000000000000000000000000000000602082015250565b600061405a60268361393a565b915061406582613ffe565b604082019050919050565b600060208201905081810360008301526140898161404d565b9050919050565b60006040820190506140a56000830185612d20565b6140b260208301846131e2565b9392505050565b600081519050919050565b60006140cf826140b9565b6140d981856138e2565b93506140e9818560208601613c5f565b80840191505092915050565b600061410182846140c4565b915081905092915050565b60008151905061411b81613b86565b92915050565b60006020828403121561413757614136612d54565b5b60006141458482850161410c565b91505092915050565b6000614159826140b9565b6141638185613a59565b9350614173818560208601613c5f565b61417c81612f9a565b840191505092915050565b600060408201905061419c60008301856131e2565b81810360208301526141ae818461414e565b90509392505050565b7f4f776e61626c653a2063616c6c6572206973206e6f7420746865206f776e6572600082015250565b60006141ed60208361393a565b91506141f8826141b7565b602082019050919050565b6000602082019050818103600083015261421c816141e0565b9050919050565b61422c816135c5565b82525050565b600060a082019050818103600083015261424c818861414e565b905061425b60208301876131e2565b614268604083018661392b565b6142756060830185612d20565b6142826080830184614223565b9695505050505050565b600060a0820190506142a16000830188612d20565b81810360208301526142b38187613e4c565b905081810360408301526142c78186613e4c565b905081810360608301526142db818561414e565b90506142ea6080830184612d20565b9695505050505050565b6000606082019050818103600083015261430e8186613e4c565b905081810360208301526143228185613e4c565b90508181036040830152614336818461414e565b9050949350505050565b600060608201905061435560008301866131e2565b81810360208301526143678185613e4c565b9050818103604083015261437b818461414e565b9050949350505050565b7f54524144455f4641494c45440000000000000000000000000000000000000000600082015250565b60006143bb600c8361393a565b91506143c682614385565b602082019050919050565b600060208201905081810360008301526143ea816143ae565b9050919050565b600060408201905061440660008301856131e2565b6144136020830184612d20565b9392505050565b60008151905061442981612e59565b92915050565b600061444261443d84613524565b61300b565b90508281526020810184848401111561445e5761445d612f95565b5b614469848285613c5f565b509392505050565b600082601f83011261448657614485612d94565b5b815161449684826020860161442f565b91505092915050565b600080600080608085870312156144b9576144b8612d54565b5b60006144c78782880161410c565b94505060206144d88782880161441a565b93505060406144e98782880161410c565b925050606085015167ffffffffffffffff81111561450a57614509612d59565b5b61451687828801614471565b91505092959194509250565b60008160601b9050919050565b600061453a82614522565b9050919050565b600061454c8261452f565b9050919050565b61456461455f82612d0e565b614541565b82525050565b60006145768284614553565b60148201915081905092915050565b600061459082612e4f565b915061459b83612e4f565b9250817fffffffffffffffffffffffffffffffffffffffffffffffffffffffffffffffff04831182151516156145d4576145d3613f9b565b5b828202905092915050565b60006145ea82612e4f565b91506145f583612e4f565b9250827fffffffffffffffffffffffffffffffffffffffffffffffffffffffffffffffff0382111561462a57614629613f9b565b5b828201905092915050565b7f4e487b7100000000000000000000000000000000000000000000000000000000600052603260045260246000fd5b600061466f82612e4f565b91507fffffffffffffffffffffffffffffffffffffffffffffffffffffffffffffffff8214156146a2576146a1613f9b565b5b600182019050919050565b6000602082840312156146c3576146c2612d54565b5b60006146d18482850161441a565b91505092915050565b7f5361666545524332303a204552433230206f7065726174696f6e20646964206e60008201527f6f74207375636365656400000000000000000000000000000000000000000000602082015250565b6000614736602a8361393a565b9150614741826146da565b604082019050919050565b6000602082019050818103600083015261476581614729565b9050919050565b7f416464726573733a20696e73756666696369656e742062616c616e636520666f60008201527f722063616c6c0000000000000000000000000000000000000000000000000000602082015250565b60006147c860268361393a565b91506147d38261476c565b604082019050919050565b600060208201905081810360008301526147f7816147bb565b9050919050565b7f416464726573733a2063616c6c20746f206e6f6e2d636f6e7472616374000000600082015250565b6000614834601d8361393a565b915061483f826147fe565b602082019050919050565b6000602082019050818103600083015261486381614827565b905091905056fea264697066735822122066d090b2aad8130bc6c475c58a8cbe20a5ca1418c54853c7eb5c62a587f8df2a64736f6c63430008090033",
  "devdoc": {
    "kind": "dev",
    "methods": {
      "owner()": {
        "details": "Returns the address of the current owner."
      },
      "renounceOwnership()": {
        "details": "Leaves the contract without owner. It will not be possible to call `onlyOwner` functions anymore. Can only be called by the current owner. NOTE: Renouncing ownership will leave the contract without an owner, thereby removing any functionality that is only available to the owner."
      },
      "transferOwnership(address)": {
        "details": "Transfers ownership of the contract to a new account (`newOwner`). Can only be called by the current owner."
      }
    },
    "version": 1
  },
  "userdoc": {
    "kind": "user",
    "methods": {},
    "version": 1
  },
  "storageLayout": {
    "storage": [
      {
        "astId": 14,
        "contract": "contracts/CircleSwapExecutable.sol:CircleSwapExecutable",
        "label": "gateway",
        "offset": 0,
        "slot": "0",
        "type": "t_contract(IAxelarGateway)1097"
      },
      {
        "astId": 18,
        "contract": "contracts/CircleSwapExecutable.sol:CircleSwapExecutable",
        "label": "forecallers",
        "offset": 0,
        "slot": "1",
        "type": "t_mapping(t_bytes32,t_address)"
      },
      {
        "astId": 1630,
        "contract": "contracts/CircleSwapExecutable.sol:CircleSwapExecutable",
        "label": "_owner",
        "offset": 0,
        "slot": "2",
        "type": "t_address"
      },
      {
        "astId": 3562,
        "contract": "contracts/CircleSwapExecutable.sol:CircleSwapExecutable",
        "label": "usdc",
        "offset": 0,
        "slot": "3",
        "type": "t_contract(USDC)4592"
      },
      {
        "astId": 3564,
        "contract": "contracts/CircleSwapExecutable.sol:CircleSwapExecutable",
        "label": "wrappedNativeToken",
        "offset": 0,
        "slot": "4",
        "type": "t_address"
      },
      {
        "astId": 3567,
        "contract": "contracts/CircleSwapExecutable.sol:CircleSwapExecutable",
        "label": "circleBridge",
        "offset": 0,
        "slot": "5",
        "type": "t_contract(CircleBridge)3501"
      },
      {
        "astId": 3571,
        "contract": "contracts/CircleSwapExecutable.sol:CircleSwapExecutable",
        "label": "siblings",
        "offset": 0,
        "slot": "6",
        "type": "t_mapping(t_string_memory_ptr,t_address)"
      },
      {
        "astId": 3575,
        "contract": "contracts/CircleSwapExecutable.sol:CircleSwapExecutable",
        "label": "destinationDomains",
        "offset": 0,
        "slot": "7",
        "type": "t_mapping(t_string_memory_ptr,t_uint32)"
      }
    ],
    "types": {
      "t_address": {
        "encoding": "inplace",
        "label": "address",
        "numberOfBytes": "20"
      },
      "t_bytes32": {
        "encoding": "inplace",
        "label": "bytes32",
        "numberOfBytes": "32"
      },
      "t_contract(CircleBridge)3501": {
        "encoding": "inplace",
        "label": "contract CircleBridge",
        "numberOfBytes": "20"
      },
      "t_contract(IAxelarGateway)1097": {
        "encoding": "inplace",
        "label": "contract IAxelarGateway",
        "numberOfBytes": "20"
      },
      "t_contract(USDC)4592": {
        "encoding": "inplace",
        "label": "contract USDC",
        "numberOfBytes": "20"
      },
      "t_mapping(t_bytes32,t_address)": {
        "encoding": "mapping",
        "key": "t_bytes32",
        "label": "mapping(bytes32 => address)",
        "numberOfBytes": "32",
        "value": "t_address"
      },
      "t_mapping(t_string_memory_ptr,t_address)": {
        "encoding": "mapping",
        "key": "t_string_memory_ptr",
        "label": "mapping(string => address)",
        "numberOfBytes": "32",
        "value": "t_address"
      },
      "t_mapping(t_string_memory_ptr,t_uint32)": {
        "encoding": "mapping",
        "key": "t_string_memory_ptr",
        "label": "mapping(string => uint32)",
        "numberOfBytes": "32",
        "value": "t_uint32"
      },
      "t_string_memory_ptr": {
        "encoding": "bytes",
        "label": "string",
        "numberOfBytes": "32"
      },
      "t_uint32": {
        "encoding": "inplace",
        "label": "uint32",
        "numberOfBytes": "4"
      }
    }
  }
}