{
  "address": "0x461d3bedccA7Aaf9Db6502E3C7420361c2D85cC7",
  "abi": [
    {
      "inputs": [
        {
          "internalType": "address",
          "name": "_usdc",
          "type": "address"
        },
        {
          "internalType": "address",
          "name": "_gasReceiver",
          "type": "address"
        },
        {
          "internalType": "address",
          "name": "_gateway",
          "type": "address"
        },
        {
          "internalType": "address",
          "name": "_circleBridge",
          "type": "address"
        }
      ],
      "stateMutability": "nonpayable",
      "type": "constructor"
    },
    {
      "inputs": [],
      "name": "AlreadyForecalled",
      "type": "error"
    },
    {
      "inputs": [],
      "name": "InsufficientInput",
      "type": "error"
    },
    {
      "inputs": [],
      "name": "InvalidTrade",
      "type": "error"
    },
    {
      "inputs": [],
      "name": "NotApprovedByGateway",
      "type": "error"
    },
    {
      "inputs": [],
      "name": "TradeFailed",
      "type": "error"
    },
    {
      "inputs": [],
      "name": "TransferFailed",
      "type": "error"
    },
    {
      "anonymous": false,
      "inputs": [
        {
          "indexed": true,
          "internalType": "address",
          "name": "previousOwner",
          "type": "address"
        },
        {
          "indexed": true,
          "internalType": "address",
          "name": "newOwner",
          "type": "address"
        }
      ],
      "name": "OwnershipTransferred",
      "type": "event"
    },
    {
      "anonymous": false,
      "inputs": [
        {
          "indexed": true,
          "internalType": "bytes32",
          "name": "traceId",
          "type": "bytes32"
        },
        {
          "indexed": false,
          "internalType": "uint256",
          "name": "amount",
          "type": "uint256"
        },
        {
          "indexed": false,
          "internalType": "address",
          "name": "refundAddress",
          "type": "address"
        }
      ],
      "name": "SwapFailed",
      "type": "event"
    },
    {
      "anonymous": false,
      "inputs": [
        {
          "indexed": true,
          "internalType": "bytes32",
          "name": "traceId",
          "type": "bytes32"
        },
        {
          "indexed": false,
          "internalType": "uint256",
          "name": "amount",
          "type": "uint256"
        },
        {
          "indexed": false,
          "internalType": "bytes",
          "name": "tradeData",
          "type": "bytes"
        }
      ],
      "name": "SwapSuccess",
      "type": "event"
    },
    {
      "inputs": [
        {
          "internalType": "string",
          "name": "chain_",
          "type": "string"
        },
        {
          "internalType": "address",
          "name": "address_",
          "type": "address"
        }
      ],
      "name": "addSibling",
      "outputs": [],
      "stateMutability": "nonpayable",
      "type": "function"
    },
    {
      "inputs": [
        {
          "internalType": "uint256",
          "name": "amount",
          "type": "uint256"
        },
        {
          "internalType": "bytes",
          "name": "",
          "type": "bytes"
        }
      ],
      "name": "amountPostFee",
      "outputs": [
        {
          "internalType": "uint256",
          "name": "",
          "type": "uint256"
        }
      ],
      "stateMutability": "nonpayable",
      "type": "function"
    },
    {
      "inputs": [],
      "name": "circleBridge",
      "outputs": [
        {
          "internalType": "contract ICircleBridge",
          "name": "",
          "type": "address"
        }
      ],
      "stateMutability": "view",
      "type": "function"
    },
    {
      "inputs": [
        {
          "internalType": "string",
          "name": "",
          "type": "string"
        }
      ],
      "name": "circleDestinationDomains",
      "outputs": [
        {
          "internalType": "uint32",
          "name": "",
          "type": "uint32"
        }
      ],
      "stateMutability": "view",
      "type": "function"
    },
    {
      "inputs": [
        {
          "internalType": "bytes32",
          "name": "commandId",
          "type": "bytes32"
        },
        {
          "internalType": "string",
          "name": "sourceChain",
          "type": "string"
        },
        {
          "internalType": "string",
          "name": "sourceAddress",
          "type": "string"
        },
        {
          "internalType": "bytes",
          "name": "payload",
          "type": "bytes"
        }
      ],
      "name": "execute",
      "outputs": [],
      "stateMutability": "nonpayable",
      "type": "function"
    },
    {
      "inputs": [
        {
          "internalType": "bytes32",
          "name": "commandId",
          "type": "bytes32"
        },
        {
          "internalType": "string",
          "name": "sourceChain",
          "type": "string"
        },
        {
          "internalType": "string",
          "name": "sourceAddress",
          "type": "string"
        },
        {
          "internalType": "bytes",
          "name": "payload",
          "type": "bytes"
        },
        {
          "internalType": "string",
          "name": "tokenSymbol",
          "type": "string"
        },
        {
          "internalType": "uint256",
          "name": "amount",
          "type": "uint256"
        }
      ],
      "name": "executeWithToken",
      "outputs": [],
      "stateMutability": "nonpayable",
      "type": "function"
    },
    {
      "inputs": [
        {
          "internalType": "string",
          "name": "sourceChain",
          "type": "string"
        },
        {
          "internalType": "string",
          "name": "sourceAddress",
          "type": "string"
        },
        {
          "internalType": "bytes",
          "name": "payload",
          "type": "bytes"
        },
        {
          "internalType": "address",
          "name": "forecaller",
          "type": "address"
        }
      ],
      "name": "forecall",
      "outputs": [],
      "stateMutability": "nonpayable",
      "type": "function"
    },
    {
      "inputs": [
        {
          "internalType": "string",
          "name": "sourceChain",
          "type": "string"
        },
        {
          "internalType": "string",
          "name": "sourceAddress",
          "type": "string"
        },
        {
          "internalType": "bytes",
          "name": "payload",
          "type": "bytes"
        },
        {
          "internalType": "string",
          "name": "tokenSymbol",
          "type": "string"
        },
        {
          "internalType": "uint256",
          "name": "amount",
          "type": "uint256"
        },
        {
          "internalType": "address",
          "name": "forecaller",
          "type": "address"
        }
      ],
      "name": "forecallWithToken",
      "outputs": [],
      "stateMutability": "nonpayable",
      "type": "function"
    },
    {
      "inputs": [],
      "name": "gateway",
      "outputs": [
        {
          "internalType": "contract IAxelarGateway",
          "name": "",
          "type": "address"
        }
      ],
      "stateMutability": "view",
      "type": "function"
    },
    {
      "inputs": [
        {
          "internalType": "string",
          "name": "destinationChain",
          "type": "string"
        },
        {
          "internalType": "bytes",
          "name": "srcTradeData",
          "type": "bytes"
        },
        {
          "internalType": "bytes",
          "name": "destTradeData",
          "type": "bytes"
        },
        {
          "internalType": "bytes32",
          "name": "traceId",
          "type": "bytes32"
        },
        {
          "internalType": "address",
          "name": "fallbackRecipient",
          "type": "address"
        },
        {
          "internalType": "uint16",
          "name": "inputPos",
          "type": "uint16"
        }
      ],
      "name": "nativeTradeSendTrade",
      "outputs": [],
      "stateMutability": "payable",
      "type": "function"
    },
    {
      "inputs": [],
      "name": "owner",
      "outputs": [
        {
          "internalType": "address",
          "name": "",
          "type": "address"
        }
      ],
      "stateMutability": "view",
      "type": "function"
    },
    {
      "inputs": [],
      "name": "renounceOwnership",
      "outputs": [],
      "stateMutability": "nonpayable",
      "type": "function"
    },
    {
      "inputs": [
        {
          "internalType": "string",
          "name": "",
          "type": "string"
        }
      ],
      "name": "siblings",
      "outputs": [
        {
          "internalType": "address",
          "name": "",
          "type": "address"
        }
      ],
      "stateMutability": "view",
      "type": "function"
    },
    {
      "inputs": [
        {
          "internalType": "address",
          "name": "newOwner",
          "type": "address"
        }
      ],
      "name": "transferOwnership",
      "outputs": [],
      "stateMutability": "nonpayable",
      "type": "function"
    },
    {
      "inputs": [],
      "name": "usdc",
      "outputs": [
        {
          "internalType": "contract IERC20",
          "name": "",
          "type": "address"
        }
      ],
      "stateMutability": "view",
      "type": "function"
    }
  ],
  "transactionHash": "0xf7d77afa0f8c3bf3aea484d77f0bf51f7d7d6970bc3bf1c8b6a20a186f5c7055",
  "args": [
    "0xe432150cce91c13a887f7D836923d5597adD8E31",
    "0xbE406F0189A0B4cf3A05C286473D23791Dd44Cc6",
    "0x07865c6e87b9f70255377e024ace6630c1eaa37f",
    "0xdAbec94B97F7b5FCA28f050cC8EeAc2Dc9920476"
  ],
  "numDeployments": 1,
  "solcInputHash": "07c0481908c910b969fc0c275414116b",
  "bytecode": "0x60a06040523480156200001157600080fd5b506040516200480b3803806200480b83398181016040528101906200003791906200030d565b81806000806101000a81548173ffffffffffffffffffffffffffffffffffffffff021916908373ffffffffffffffffffffffffffffffffffffffff16021790555050620000996200008d620001d560201b60201c565b620001dd60201b60201c565b83600360006101000a81548173ffffffffffffffffffffffffffffffffffffffff021916908373ffffffffffffffffffffffffffffffffffffffff16021790555080600460006101000a81548173ffffffffffffffffffffffffffffffffffffffff021916908373ffffffffffffffffffffffffffffffffffffffff1602179055508273ffffffffffffffffffffffffffffffffffffffff1660808173ffffffffffffffffffffffffffffffffffffffff1681525050600060056040516200016190620003da565b908152602001604051809103902060006101000a81548163ffffffff021916908363ffffffff160217905550600160056040516200019f9062000441565b908152602001604051809103902060006101000a81548163ffffffff021916908363ffffffff1602179055505050505062000458565b600033905090565b6000600260009054906101000a900473ffffffffffffffffffffffffffffffffffffffff16905081600260006101000a81548173ffffffffffffffffffffffffffffffffffffffff021916908373ffffffffffffffffffffffffffffffffffffffff1602179055508173ffffffffffffffffffffffffffffffffffffffff168173ffffffffffffffffffffffffffffffffffffffff167f8be0079c531659141344cd1fd0a4f28419497f9722a3daafe3b4186f6b6457e060405160405180910390a35050565b600080fd5b600073ffffffffffffffffffffffffffffffffffffffff82169050919050565b6000620002d582620002a8565b9050919050565b620002e781620002c8565b8114620002f357600080fd5b50565b6000815190506200030781620002dc565b92915050565b600080600080608085870312156200032a5762000329620002a3565b5b60006200033a87828801620002f6565b94505060206200034d87828801620002f6565b93505060406200036087828801620002f6565b92505060606200037387828801620002f6565b91505092959194509250565b600081905092915050565b7f657468657265756d000000000000000000000000000000000000000000000000600082015250565b6000620003c26008836200037f565b9150620003cf826200038a565b600882019050919050565b6000620003e782620003b3565b9150819050919050565b7f6176616c616e6368650000000000000000000000000000000000000000000000600082015250565b6000620004296009836200037f565b91506200043682620003f1565b600982019050919050565b60006200044e826200041a565b9150819050919050565b608051614397620004746000396000611d3301526143976000f3fe6080604052600436106100e85760003560e01c8063715018a61161008a578063bb288a0311610059578063bb288a03146102e2578063daa0c9171461030b578063e7fb058b14610327578063f2fde38b14610350576100e8565b8063715018a6146102265780638b5ba9c81461023d5780638da5cb5b1461027a578063a7798b69146102a5576100e8565b80631a98b2e0116100c65780631a98b2e01461016c5780633ca2fd8e146101955780633e413bee146101d257806349160658146101fd576100e8565b806301a67b6b146100ed5780630b48ae8614610118578063116191b614610141575b600080fd5b3480156100f957600080fd5b50610102610379565b60405161010f91906128ae565b60405180910390f35b34801561012457600080fd5b5061013f600480360381019061013a9190612a61565b61039f565b005b34801561014d57600080fd5b50610156610408565b6040516101639190612ade565b60405180910390f35b34801561017857600080fd5b50610193600480360381019061018e9190612c1b565b61042c565b005b3480156101a157600080fd5b506101bc60048036038101906101b79190612d2b565b61080e565b6040516101c99190612d9a565b60405180910390f35b3480156101de57600080fd5b506101e761081a565b6040516101f49190612dd6565b60405180910390f35b34801561020957600080fd5b50610224600480360381019061021f9190612df1565b610840565b005b34801561023257600080fd5b5061023b610b0b565b005b34801561024957600080fd5b50610264600480360381019061025f9190612eba565b610b1f565b6040516102719190612f22565b60405180910390f35b34801561028657600080fd5b5061028f610b58565b60405161029c9190612f4c565b60405180910390f35b3480156102b157600080fd5b506102cc60048036038101906102c79190612eba565b610b82565b6040516102d99190612f4c565b60405180910390f35b3480156102ee57600080fd5b5061030960048036038101906103049190612f67565b610bcb565b005b6103256004803603810190610320919061310b565b610dc2565b005b34801561033357600080fd5b5061034e600480360381019061034991906131ec565b610f94565b005b34801561035c57600080fd5b50610377600480360381019061037291906132fc565b6112af565b005b600460009054906101000a900473ffffffffffffffffffffffffffffffffffffffff1681565b6103a7611333565b806006836040516103b891906133a3565b908152602001604051809103902060006101000a81548173ffffffffffffffffffffffffffffffffffffffff021916908373ffffffffffffffffffffffffffffffffffffffff1602179055505050565b60008054906101000a900473ffffffffffffffffffffffffffffffffffffffff1681565b6000858560405161043e9291906133ea565b6040518091039020905060008054906101000a900473ffffffffffffffffffffffffffffffffffffffff1673ffffffffffffffffffffffffffffffffffffffff16631876eed98c8c8c8c8c878b8b8b6040518a63ffffffff1660e01b81526004016104b199989796959493929190613450565b602060405180830381600087803b1580156104cb57600080fd5b505af11580156104df573d6000803e3d6000fd5b505050506040513d601f19601f820116820180604052508101906105039190613504565b610539576040517f500c44b400000000000000000000000000000000000000000000000000000000815260040160405180910390fd5b6000600160008c8c8c8c8c8c8c8c8c6040516020016105609998979695949392919061356f565b60405160208183030381529060405280519060200120815260200190815260200160002060009054906101000a900473ffffffffffffffffffffffffffffffffffffffff169050600073ffffffffffffffffffffffffffffffffffffffff168173ffffffffffffffffffffffffffffffffffffffff1614610725576000600160008d8d8d8d8d8d8d8d8d6040516020016106029998979695949392919061356f565b60405160208183030381529060405280519060200120815260200190815260200160002060006101000a81548173ffffffffffffffffffffffffffffffffffffffff021916908373ffffffffffffffffffffffffffffffffffffffff16021790555060008060009054906101000a900473ffffffffffffffffffffffffffffffffffffffff1673ffffffffffffffffffffffffffffffffffffffff1663935b13f687876040518363ffffffff1660e01b81526004016106c29291906135e6565b60206040518083038186803b1580156106da57600080fd5b505afa1580156106ee573d6000803e3d6000fd5b505050506040513d601f19601f82011682018060405250810190610712919061361f565b905061071f8183866113b1565b50610800565b6107ff8b8b8080601f016020809104026020016040519081016040528093929190818152602001838380828437600081840152601f19601f820116905080830192505050505050508a8a8080601f016020809104026020016040519081016040528093929190818152602001838380828437600081840152601f19601f82011690508083019250505050505050898989898080601f016020809104026020016040519081016040528093929190818152602001838380828437600081840152601f19601f8201169050808301925050505050505088611527565b5b505050505050505050505050565b60008390509392505050565b600360009054906101000a900473ffffffffffffffffffffffffffffffffffffffff1681565b600082826040516108529291906133ea565b6040518091039020905060008054906101000a900473ffffffffffffffffffffffffffffffffffffffff1673ffffffffffffffffffffffffffffffffffffffff16635f6970c38989898989876040518763ffffffff1660e01b81526004016108bf9695949392919061364c565b602060405180830381600087803b1580156108d957600080fd5b505af11580156108ed573d6000803e3d6000fd5b505050506040513d601f19601f820116820180604052508101906109119190613504565b610947576040517f500c44b400000000000000000000000000000000000000000000000000000000815260040160405180910390fd5b600060016000898989898989604051602001610968969594939291906136a3565b60405160208183030381529060405280519060200120815260200190815260200160002060009054906101000a900473ffffffffffffffffffffffffffffffffffffffff169050600073ffffffffffffffffffffffffffffffffffffffff168173ffffffffffffffffffffffffffffffffffffffff1614610a6b576000600160008a8a8a8a8a8a604051602001610a04969594939291906136a3565b60405160208183030381529060405280519060200120815260200190815260200160002060006101000a81548173ffffffffffffffffffffffffffffffffffffffff021916908373ffffffffffffffffffffffffffffffffffffffff160217905550610b00565b610aff88888080601f016020809104026020016040519081016040528093929190818152602001838380828437600081840152601f19601f8201169050808301925050505050505087878080601f016020809104026020016040519081016040528093929190818152602001838380828437600081840152601f19601f82011690508083019250505050505050868661152f565b5b505050505050505050565b610b13611333565b610b1d6000611745565b565b6005818051602081018201805184825260208301602085012081835280955050505050506000915054906101000a900463ffffffff1681565b6000600260009054906101000a900473ffffffffffffffffffffffffffffffffffffffff16905090565b6006818051602081018201805184825260208301602085012081835280955050505050506000915054906101000a900473ffffffffffffffffffffffffffffffffffffffff1681565b610bda8787878787878761180b565b600073ffffffffffffffffffffffffffffffffffffffff1660016000898989898989604051602001610c11969594939291906136a3565b60405160208183030381529060405280519060200120815260200190815260200160002060009054906101000a900473ffffffffffffffffffffffffffffffffffffffff1673ffffffffffffffffffffffffffffffffffffffff1614610ca3576040517f35b7d55000000000000000000000000000000000000000000000000000000000815260040160405180910390fd5b8060016000898989898989604051602001610cc3969594939291906136a3565b60405160208183030381529060405280519060200120815260200190815260200160002060006101000a81548173ffffffffffffffffffffffffffffffffffffffff021916908373ffffffffffffffffffffffffffffffffffffffff160217905550610db987878080601f016020809104026020016040519081016040528093929190818152602001838380828437600081840152601f19601f8201169050808301925050505050505086868080601f016020809104026020016040519081016040528093929190818152602001838380828437600081840152601f19601f82011690508083019250505050505050858561152f565b50505050505050565b85604051602001610dd290613741565b6040516020818303038152906040528051906020012081604051602001610df991906133a3565b604051602081830303815290604052805190602001201480610e645750604051602001610e25906137a2565b6040516020818303038152906040528051906020012081604051602001610e4c91906133a3565b60405160208183030381529060405280519060200120145b610ea3576040517f08c379a0000000000000000000000000000000000000000000000000000000008152600401610e9a90613803565b60405180910390fd5b600080610eaf88611814565b91509150610f46818a3073ffffffffffffffffffffffffffffffffffffffff1663a7798b698d6040518263ffffffff1660e01b8152600401610ef1919061385c565b60206040518083038186803b158015610f0957600080fd5b505afa158015610f1d573d6000803e3d6000fd5b505050506040513d601f19601f82011682018060405250810190610f41919061361f565b611a01565b60008782888888604051602001610f619594939291906138d1565b6040516020818303038152906040529050610f888a828534610f83919061395a565b611d31565b50505050505050505050565b60008060009054906101000a900473ffffffffffffffffffffffffffffffffffffffff1673ffffffffffffffffffffffffffffffffffffffff1663935b13f686866040518363ffffffff1660e01b8152600401610ff29291906135e6565b60206040518083038186803b15801561100a57600080fd5b505afa15801561101e573d6000803e3d6000fd5b505050506040513d601f19601f82011682018060405250810190611042919061361f565b9050600061105184898961080e565b905061105e823383611f79565b6110708c8c8c8c8c8c8c8c8c8c6120f1565b600073ffffffffffffffffffffffffffffffffffffffff16600160008e8e8e8e8e8e8e8e8e6040516020016110ad9998979695949392919061356f565b60405160208183030381529060405280519060200120815260200190815260200160002060009054906101000a900473ffffffffffffffffffffffffffffffffffffffff1673ffffffffffffffffffffffffffffffffffffffff161461113f576040517f35b7d55000000000000000000000000000000000000000000000000000000000815260040160405180910390fd5b82600160008e8e8e8e8e8e8e8e8e6040516020016111659998979695949392919061356f565b60405160208183030381529060405280519060200120815260200190815260200160002060006101000a81548173ffffffffffffffffffffffffffffffffffffffff021916908373ffffffffffffffffffffffffffffffffffffffff1602179055506112a18c8c8080601f016020809104026020016040519081016040528093929190818152602001838380828437600081840152601f19601f820116905080830192505050505050508b8b8080601f016020809104026020016040519081016040528093929190818152602001838380828437600081840152601f19601f820116905080830192505050505050508a8a8a8a8080601f016020809104026020016040519081016040528093929190818152602001838380828437600081840152601f19601f8201169050808301925050505050505086611527565b505050505050505050505050565b6112b7611333565b600073ffffffffffffffffffffffffffffffffffffffff168173ffffffffffffffffffffffffffffffffffffffff161415611327576040517f08c379a000000000000000000000000000000000000000000000000000000000815260040161131e90613a00565b60405180910390fd5b61133081611745565b50565b61133b6120fd565b73ffffffffffffffffffffffffffffffffffffffff16611359610b58565b73ffffffffffffffffffffffffffffffffffffffff16146113af576040517f08c379a00000000000000000000000000000000000000000000000000000000081526004016113a690613a6c565b60405180910390fd5b565b6000808473ffffffffffffffffffffffffffffffffffffffff1663a9059cbb60e01b85856040516024016113e6929190613a8c565b604051602081830303815290604052907bffffffffffffffffffffffffffffffffffffffffffffffffffffffff19166020820180517bffffffffffffffffffffffffffffffffffffffffffffffffffffffff83818316178352505050506040516114509190613ae6565b6000604051808303816000865af19150503d806000811461148d576040519150601f19603f3d011682016040523d82523d6000602084013e611492565b606091505b509150915060008280156114c257506000825114806114c15750818060200190518101906114c09190613504565b5b5b90508015806114e8575060008673ffffffffffffffffffffffffffffffffffffffff163b145b1561151f576040517f90b8ec1800000000000000000000000000000000000000000000000000000000815260040160405180910390fd5b505050505050565b505050505050565b600080600080600086868101906115469190613b3b565b945094509450945094506000806000878060200190518101906115699190613c6c565b93509350509250600360009054906101000a900473ffffffffffffffffffffffffffffffffffffffff1673ffffffffffffffffffffffffffffffffffffffff168373ffffffffffffffffffffffffffffffffffffffff16146115dd576115d0868887612105565b505050505050505061173f565b86848901528273ffffffffffffffffffffffffffffffffffffffff1663095ea7b383896040518363ffffffff1660e01b815260040161161d929190613a8c565b602060405180830381600087803b15801561163757600080fd5b505af115801561164b573d6000803e3d6000fd5b505050506040513d601f19601f8201168201806040525081019061166f9190613504565b5060008273ffffffffffffffffffffffffffffffffffffffff16826040516116979190613ae6565b6000604051808303816000865af19150503d80600081146116d4576040519150601f19603f3d011682016040523d82523d6000602084013e6116d9565b606091505b50509050806116fb576116ed878988612105565b50505050505050505061173f565b867f2eee7242b494decec975364a3a68cc2983c8c343618698e44ca690103af76175898b60405161172d929190613cef565b60405180910390a25050505050505050505b50505050565b6000600260009054906101000a900473ffffffffffffffffffffffffffffffffffffffff16905081600260006101000a81548173ffffffffffffffffffffffffffffffffffffffff021916908373ffffffffffffffffffffffffffffffffffffffff1602179055508173ffffffffffffffffffffffffffffffffffffffff168173ffffffffffffffffffffffffffffffffffffffff167f8be0079c531659141344cd1fd0a4f28419497f9722a3daafe3b4186f6b6457e060405160405180910390a35050565b50505050505050565b6000806000600360009054906101000a900473ffffffffffffffffffffffffffffffffffffffff1673ffffffffffffffffffffffffffffffffffffffff166370a08231306040518263ffffffff1660e01b81526004016118749190612f4c565b60206040518083038186803b15801561188c57600080fd5b505afa1580156118a0573d6000803e3d6000fd5b505050506040513d601f19601f820116820180604052508101906118c49190613d1f565b90506000806118d286612171565b9150915081611916576040517f08c379a000000000000000000000000000000000000000000000000000000000815260040161190d90613d98565b60405180910390fd5b600083600360009054906101000a900473ffffffffffffffffffffffffffffffffffffffff1673ffffffffffffffffffffffffffffffffffffffff166370a08231600360009054906101000a900473ffffffffffffffffffffffffffffffffffffffff166040518263ffffffff1660e01b81526004016119969190612f4c565b60206040518083038186803b1580156119ae57600080fd5b505afa1580156119c2573d6000803e3d6000fd5b505050506040513d601f19601f820116820180604052508101906119e69190613d1f565b6119f0919061395a565b905081819550955050505050915091565b81604051602001611a1190613741565b6040516020818303038152906040528051906020012081604051602001611a3891906133a3565b604051602081830303815290604052805190602001201480611aa35750604051602001611a64906137a2565b6040516020818303038152906040528051906020012081604051602001611a8b91906133a3565b60405160208183030381529060405280519060200120145b611ae2576040517f08c379a0000000000000000000000000000000000000000000000000000000008152600401611ad990613803565b60405180910390fd5b600360009054906101000a900473ffffffffffffffffffffffffffffffffffffffff1673ffffffffffffffffffffffffffffffffffffffff1663095ea7b3600460009054906101000a900473ffffffffffffffffffffffffffffffffffffffff16866040518363ffffffff1660e01b8152600401611b61929190613a8c565b602060405180830381600087803b158015611b7b57600080fd5b505af1158015611b8f573d6000803e3d6000fd5b505050506040513d601f19601f82011682018060405250810190611bb39190613504565b50600460009054906101000a900473ffffffffffffffffffffffffffffffffffffffff1673ffffffffffffffffffffffffffffffffffffffff16636fd3504e853073ffffffffffffffffffffffffffffffffffffffff16638b5ba9c8876040518263ffffffff1660e01b8152600401611c2c919061385c565b60206040518083038186803b158015611c4457600080fd5b505afa158015611c58573d6000803e3d6000fd5b505050506040513d601f19601f82011682018060405250810190611c7c9190613de4565b8573ffffffffffffffffffffffffffffffffffffffff1660001b600360009054906101000a900473ffffffffffffffffffffffffffffffffffffffff166040518563ffffffff1660e01b8152600401611cd89493929190613e11565b602060405180830381600087803b158015611cf257600080fd5b505af1158015611d06573d6000803e3d6000fd5b505050506040513d601f19601f82011682018060405250810190611d2a9190613e96565b5050505050565b7f000000000000000000000000000000000000000000000000000000000000000073ffffffffffffffffffffffffffffffffffffffff16630c93e3bb823086611e013073ffffffffffffffffffffffffffffffffffffffff1663a7798b698a6040518263ffffffff1660e01b8152600401611dac919061385c565b60206040518083038186803b158015611dc457600080fd5b505afa158015611dd8573d6000803e3d6000fd5b505050506040513d601f19601f82011682018060405250810190611dfc919061361f565b61220f565b87336040518763ffffffff1660e01b8152600401611e23959493929190613ec3565b6000604051808303818588803b158015611e3c57600080fd5b505af1158015611e50573d6000803e3d6000fd5b505050505060008054906101000a900473ffffffffffffffffffffffffffffffffffffffff1673ffffffffffffffffffffffffffffffffffffffff16631c92115f84611f233073ffffffffffffffffffffffffffffffffffffffff1663a7798b69886040518263ffffffff1660e01b8152600401611ece919061385c565b60206040518083038186803b158015611ee657600080fd5b505afa158015611efa573d6000803e3d6000fd5b505050506040513d601f19601f82011682018060405250810190611f1e919061361f565b61220f565b856040518463ffffffff1660e01b8152600401611f4293929190613f2b565b600060405180830381600087803b158015611f5c57600080fd5b505af1158015611f70573d6000803e3d6000fd5b50505050505050565b6000808473ffffffffffffffffffffffffffffffffffffffff166323b872dd60e01b853086604051602401611fb093929190613f77565b604051602081830303815290604052907bffffffffffffffffffffffffffffffffffffffffffffffffffffffff19166020820180517bffffffffffffffffffffffffffffffffffffffffffffffffffffffff838183161783525050505060405161201a9190613ae6565b6000604051808303816000865af19150503d8060008114612057576040519150601f19603f3d011682016040523d82523d6000602084013e61205c565b606091505b5091509150600082801561208c575060008251148061208b57508180602001905181019061208a9190613504565b5b5b90508015806120b2575060008673ffffffffffffffffffffffffffffffffffffffff163b145b156120e9576040517f90b8ec1800000000000000000000000000000000000000000000000000000000815260040160405180910390fd5b505050505050565b50505050505050505050565b600033905090565b612132600360009054906101000a900473ffffffffffffffffffffffffffffffffffffffff16828461252c565b827f558c0ee8c786238cf77a23150b8f030420c53c82aa0488213ace44ee1cfc92f48383604051612164929190613fae565b60405180910390a2505050565b60008060008060008580602001905181019061218d9190613fd7565b9250925092508173ffffffffffffffffffffffffffffffffffffffff1683826040516121b99190613ae6565b60006040518083038185875af1925050503d80600081146121f6576040519150601f19603f3d011682016040523d82523d6000602084013e6121fb565b606091505b505080955050848394509450505050915091565b6060600082604051602001612224919061408e565b604051602081830303815290604052905060006040518060400160405280601081526020017f3031323334353637383961626364656600000000000000000000000000000000815250905060006002835161227f91906140a9565b600261228b9190614103565b67ffffffffffffffff8111156122a4576122a36128f8565b5b6040519080825280601f01601f1916602001820160405280156122d65781602001600182028036833780820191505090505b5090507f30000000000000000000000000000000000000000000000000000000000000008160008151811061230e5761230d614159565b5b60200101907effffffffffffffffffffffffffffffffffffffffffffffffffffffffffffff1916908160001a9053507f78000000000000000000000000000000000000000000000000000000000000008160018151811061237257612371614159565b5b60200101907effffffffffffffffffffffffffffffffffffffffffffffffffffffffffffff1916908160001a90535060005b8351811015612520578260048583815181106123c3576123c2614159565b5b602001015160f81c60f81b7effffffffffffffffffffffffffffffffffffffffffffffffffffffffffffff1916901c60f81c60ff168151811061240957612408614159565b5b602001015160f81c60f81b8260028361242291906140a9565b600261242e9190614103565b8151811061243f5761243e614159565b5b60200101907effffffffffffffffffffffffffffffffffffffffffffffffffffffffffffff1916908160001a90535082600f60f81b85838151811061248757612486614159565b5b602001015160f81c60f81b1660f81c60ff16815181106124aa576124a9614159565b5b602001015160f81c60f81b826002836124c391906140a9565b60036124cf9190614103565b815181106124e0576124df614159565b5b60200101907effffffffffffffffffffffffffffffffffffffffffffffffffffffffffffff1916908160001a9053508061251990614188565b90506123a4565b50809350505050919050565b6125ad8363a9059cbb60e01b848460405160240161254b929190613a8c565b604051602081830303815290604052907bffffffffffffffffffffffffffffffffffffffffffffffffffffffff19166020820180517bffffffffffffffffffffffffffffffffffffffffffffffffffffffff83818316178352505050506125b2565b505050565b6000612614826040518060400160405280602081526020017f5361666545524332303a206c6f772d6c6576656c2063616c6c206661696c65648152508573ffffffffffffffffffffffffffffffffffffffff166126799092919063ffffffff16565b905060008151111561267457808060200190518101906126349190613504565b612673576040517f08c379a000000000000000000000000000000000000000000000000000000000815260040161266a90614243565b60405180910390fd5b5b505050565b60606126888484600085612691565b90509392505050565b6060824710156126d6576040517f08c379a00000000000000000000000000000000000000000000000000000000081526004016126cd906142d5565b60405180910390fd5b6126df856127a5565b61271e576040517f08c379a000000000000000000000000000000000000000000000000000000000815260040161271590614341565b60405180910390fd5b6000808673ffffffffffffffffffffffffffffffffffffffff1685876040516127479190613ae6565b60006040518083038185875af1925050503d8060008114612784576040519150601f19603f3d011682016040523d82523d6000602084013e612789565b606091505b50915091506127998282866127c8565b92505050949350505050565b6000808273ffffffffffffffffffffffffffffffffffffffff163b119050919050565b606083156127d857829050612828565b6000835111156127eb5782518084602001fd5b816040517f08c379a000000000000000000000000000000000000000000000000000000000815260040161281f919061385c565b60405180910390fd5b9392505050565b600073ffffffffffffffffffffffffffffffffffffffff82169050919050565b6000819050919050565b600061287461286f61286a8461282f565b61284f565b61282f565b9050919050565b600061288682612859565b9050919050565b60006128988261287b565b9050919050565b6128a88161288d565b82525050565b60006020820190506128c3600083018461289f565b92915050565b6000604051905090565b600080fd5b600080fd5b600080fd5b600080fd5b6000601f19601f8301169050919050565b7f4e487b7100000000000000000000000000000000000000000000000000000000600052604160045260246000fd5b612930826128e7565b810181811067ffffffffffffffff8211171561294f5761294e6128f8565b5b80604052505050565b60006129626128c9565b905061296e8282612927565b919050565b600067ffffffffffffffff82111561298e5761298d6128f8565b5b612997826128e7565b9050602081019050919050565b82818337600083830152505050565b60006129c66129c184612973565b612958565b9050828152602081018484840111156129e2576129e16128e2565b5b6129ed8482856129a4565b509392505050565b600082601f830112612a0a57612a096128dd565b5b8135612a1a8482602086016129b3565b91505092915050565b6000612a2e8261282f565b9050919050565b612a3e81612a23565b8114612a4957600080fd5b50565b600081359050612a5b81612a35565b92915050565b60008060408385031215612a7857612a776128d3565b5b600083013567ffffffffffffffff811115612a9657612a956128d8565b5b612aa2858286016129f5565b9250506020612ab385828601612a4c565b9150509250929050565b6000612ac88261287b565b9050919050565b612ad881612abd565b82525050565b6000602082019050612af36000830184612acf565b92915050565b6000819050919050565b612b0c81612af9565b8114612b1757600080fd5b50565b600081359050612b2981612b03565b92915050565b600080fd5b600080fd5b60008083601f840112612b4f57612b4e6128dd565b5b8235905067ffffffffffffffff811115612b6c57612b6b612b2f565b5b602083019150836001820283011115612b8857612b87612b34565b5b9250929050565b60008083601f840112612ba557612ba46128dd565b5b8235905067ffffffffffffffff811115612bc257612bc1612b2f565b5b602083019150836001820283011115612bde57612bdd612b34565b5b9250929050565b6000819050919050565b612bf881612be5565b8114612c0357600080fd5b50565b600081359050612c1581612bef565b92915050565b60008060008060008060008060008060c08b8d031215612c3e57612c3d6128d3565b5b6000612c4c8d828e01612b1a565b9a505060208b013567ffffffffffffffff811115612c6d57612c6c6128d8565b5b612c798d828e01612b39565b995099505060408b013567ffffffffffffffff811115612c9c57612c9b6128d8565b5b612ca88d828e01612b39565b975097505060608b013567ffffffffffffffff811115612ccb57612cca6128d8565b5b612cd78d828e01612b8f565b955095505060808b013567ffffffffffffffff811115612cfa57612cf96128d8565b5b612d068d828e01612b39565b935093505060a0612d198d828e01612c06565b9150509295989b9194979a5092959850565b600080600060408486031215612d4457612d436128d3565b5b6000612d5286828701612c06565b935050602084013567ffffffffffffffff811115612d7357612d726128d8565b5b612d7f86828701612b8f565b92509250509250925092565b612d9481612be5565b82525050565b6000602082019050612daf6000830184612d8b565b92915050565b6000612dc08261287b565b9050919050565b612dd081612db5565b82525050565b6000602082019050612deb6000830184612dc7565b92915050565b60008060008060008060006080888a031215612e1057612e0f6128d3565b5b6000612e1e8a828b01612b1a565b975050602088013567ffffffffffffffff811115612e3f57612e3e6128d8565b5b612e4b8a828b01612b39565b9650965050604088013567ffffffffffffffff811115612e6e57612e6d6128d8565b5b612e7a8a828b01612b39565b9450945050606088013567ffffffffffffffff811115612e9d57612e9c6128d8565b5b612ea98a828b01612b8f565b925092505092959891949750929550565b600060208284031215612ed057612ecf6128d3565b5b600082013567ffffffffffffffff811115612eee57612eed6128d8565b5b612efa848285016129f5565b91505092915050565b600063ffffffff82169050919050565b612f1c81612f03565b82525050565b6000602082019050612f376000830184612f13565b92915050565b612f4681612a23565b82525050565b6000602082019050612f616000830184612f3d565b92915050565b60008060008060008060006080888a031215612f8657612f856128d3565b5b600088013567ffffffffffffffff811115612fa457612fa36128d8565b5b612fb08a828b01612b39565b9750975050602088013567ffffffffffffffff811115612fd357612fd26128d8565b5b612fdf8a828b01612b39565b9550955050604088013567ffffffffffffffff811115613002576130016128d8565b5b61300e8a828b01612b8f565b935093505060606130218a828b01612a4c565b91505092959891949750929550565b600067ffffffffffffffff82111561304b5761304a6128f8565b5b613054826128e7565b9050602081019050919050565b600061307461306f84613030565b612958565b9050828152602081018484840111156130905761308f6128e2565b5b61309b8482856129a4565b509392505050565b600082601f8301126130b8576130b76128dd565b5b81356130c8848260208601613061565b91505092915050565b600061ffff82169050919050565b6130e8816130d1565b81146130f357600080fd5b50565b600081359050613105816130df565b92915050565b60008060008060008060c08789031215613128576131276128d3565b5b600087013567ffffffffffffffff811115613146576131456128d8565b5b61315289828a016129f5565b965050602087013567ffffffffffffffff811115613173576131726128d8565b5b61317f89828a016130a3565b955050604087013567ffffffffffffffff8111156131a05761319f6128d8565b5b6131ac89828a016130a3565b94505060606131bd89828a01612b1a565b93505060806131ce89828a01612a4c565b92505060a06131df89828a016130f6565b9150509295509295509295565b60008060008060008060008060008060c08b8d03121561320f5761320e6128d3565b5b60008b013567ffffffffffffffff81111561322d5761322c6128d8565b5b6132398d828e01612b39565b9a509a505060208b013567ffffffffffffffff81111561325c5761325b6128d8565b5b6132688d828e01612b39565b985098505060408b013567ffffffffffffffff81111561328b5761328a6128d8565b5b6132978d828e01612b8f565b965096505060608b013567ffffffffffffffff8111156132ba576132b96128d8565b5b6132c68d828e01612b39565b945094505060806132d98d828e01612c06565b92505060a06132ea8d828e01612a4c565b9150509295989b9194979a5092959850565b600060208284031215613312576133116128d3565b5b600061332084828501612a4c565b91505092915050565b600081519050919050565b600081905092915050565b60005b8381101561335d578082015181840152602081019050613342565b8381111561336c576000848401525b50505050565b600061337d82613329565b6133878185613334565b935061339781856020860161333f565b80840191505092915050565b60006133af8284613372565b915081905092915050565b600081905092915050565b60006133d183856133ba565b93506133de8385846129a4565b82840190509392505050565b60006133f78284866133c5565b91508190509392505050565b61340c81612af9565b82525050565b600082825260208201905092915050565b600061342f8385613412565b935061343c8385846129a4565b613445836128e7565b840190509392505050565b600060c082019050613465600083018c613403565b8181036020830152613478818a8c613423565b9050818103604083015261348d81888a613423565b905061349c6060830187613403565b81810360808301526134af818587613423565b90506134be60a0830184612d8b565b9a9950505050505050505050565b60008115159050919050565b6134e1816134cc565b81146134ec57600080fd5b50565b6000815190506134fe816134d8565b92915050565b60006020828403121561351a576135196128d3565b5b6000613528848285016134ef565b91505092915050565b600082825260208201905092915050565b600061354e8385613531565b935061355b8385846129a4565b613564836128e7565b840190509392505050565b600060a082019050818103600083015261358a818b8d613423565b9050818103602083015261359f81898b613423565b905081810360408301526135b4818789613542565b905081810360608301526135c9818587613423565b90506135d86080830184612d8b565b9a9950505050505050505050565b60006020820190508181036000830152613601818486613423565b90509392505050565b60008151905061361981612a35565b92915050565b600060208284031215613635576136346128d3565b5b60006136438482850161360a565b91505092915050565b60006080820190506136616000830189613403565b8181036020830152613674818789613423565b90508181036040830152613689818587613423565b90506136986060830184613403565b979650505050505050565b600060608201905081810360008301526136be81888a613423565b905081810360208301526136d3818688613423565b905081810360408301526136e8818486613542565b9050979650505050505050565b7f657468657265756d000000000000000000000000000000000000000000000000600082015250565b600061372b600883613334565b9150613736826136f5565b600882019050919050565b600061374c8261371e565b9150819050919050565b7f6176616c616e6368650000000000000000000000000000000000000000000000600082015250565b600061378c600983613334565b915061379782613756565b600982019050919050565b60006137ad8261377f565b9150819050919050565b7f496e76616c696420636861696e00000000000000000000000000000000000000600082015250565b60006137ed600d83613412565b91506137f8826137b7565b602082019050919050565b6000602082019050818103600083015261381c816137e0565b9050919050565b600061382e82613329565b6138388185613412565b935061384881856020860161333f565b613851816128e7565b840191505092915050565b600060208201905081810360008301526138768184613823565b905092915050565b600081519050919050565b60006138948261387e565b61389e8185613531565b93506138ae81856020860161333f565b6138b7816128e7565b840191505092915050565b6138cb816130d1565b82525050565b600060a08201905081810360008301526138eb8188613889565b90506138fa6020830187612d8b565b6139076040830186613403565b6139146060830185612f3d565b61392160808301846138c2565b9695505050505050565b7f4e487b7100000000000000000000000000000000000000000000000000000000600052601160045260246000fd5b600061396582612be5565b915061397083612be5565b9250828210156139835761398261392b565b5b828203905092915050565b7f4f776e61626c653a206e6577206f776e657220697320746865207a65726f206160008201527f6464726573730000000000000000000000000000000000000000000000000000602082015250565b60006139ea602683613412565b91506139f58261398e565b604082019050919050565b60006020820190508181036000830152613a19816139dd565b9050919050565b7f4f776e61626c653a2063616c6c6572206973206e6f7420746865206f776e6572600082015250565b6000613a56602083613412565b9150613a6182613a20565b602082019050919050565b60006020820190508181036000830152613a8581613a49565b9050919050565b6000604082019050613aa16000830185612f3d565b613aae6020830184612d8b565b9392505050565b6000613ac08261387e565b613aca81856133ba565b9350613ada81856020860161333f565b80840191505092915050565b6000613af28284613ab5565b915081905092915050565b6000613b088261282f565b9050919050565b613b1881613afd565b8114613b2357600080fd5b50565b600081359050613b3581613b0f565b92915050565b600080600080600060a08688031215613b5757613b566128d3565b5b600086013567ffffffffffffffff811115613b7557613b746128d8565b5b613b81888289016130a3565b9550506020613b9288828901612c06565b9450506040613ba388828901612b1a565b9350506060613bb488828901613b26565b9250506080613bc5888289016130f6565b9150509295509295909350565b600081519050613be181613b0f565b92915050565b600081519050613bf681612bef565b92915050565b6000613c0f613c0a84613030565b612958565b905082815260208101848484011115613c2b57613c2a6128e2565b5b613c3684828561333f565b509392505050565b600082601f830112613c5357613c526128dd565b5b8151613c63848260208601613bfc565b91505092915050565b60008060008060808587031215613c8657613c856128d3565b5b6000613c9487828801613bd2565b9450506020613ca587828801613be7565b9350506040613cb687828801613bd2565b925050606085015167ffffffffffffffff811115613cd757613cd66128d8565b5b613ce387828801613c3e565b91505092959194509250565b6000604082019050613d046000830185612d8b565b8181036020830152613d168184613889565b90509392505050565b600060208284031215613d3557613d346128d3565b5b6000613d4384828501613be7565b91505092915050565b7f54524144455f4641494c45440000000000000000000000000000000000000000600082015250565b6000613d82600c83613412565b9150613d8d82613d4c565b602082019050919050565b60006020820190508181036000830152613db181613d75565b9050919050565b613dc181612f03565b8114613dcc57600080fd5b50565b600081519050613dde81613db8565b92915050565b600060208284031215613dfa57613df96128d3565b5b6000613e0884828501613dcf565b91505092915050565b6000608082019050613e266000830187612d8b565b613e336020830186612f13565b613e406040830185613403565b613e4d6060830184612f3d565b95945050505050565b600067ffffffffffffffff82169050919050565b613e7381613e56565b8114613e7e57600080fd5b50565b600081519050613e9081613e6a565b92915050565b600060208284031215613eac57613eab6128d3565b5b6000613eba84828501613e81565b91505092915050565b600060a082019050613ed86000830188612f3d565b8181036020830152613eea8187613823565b90508181036040830152613efe8186613823565b90508181036060830152613f128185613889565b9050613f216080830184612f3d565b9695505050505050565b60006060820190508181036000830152613f458186613823565b90508181036020830152613f598185613823565b90508181036040830152613f6d8184613889565b9050949350505050565b6000606082019050613f8c6000830186612f3d565b613f996020830185612f3d565b613fa66040830184612d8b565b949350505050565b6000604082019050613fc36000830185612d8b565b613fd06020830184612f3d565b9392505050565b600080600060608486031215613ff057613fef6128d3565b5b6000613ffe86828701613be7565b935050602061400f86828701613bd2565b925050604084015167ffffffffffffffff8111156140305761402f6128d8565b5b61403c86828701613c3e565b9150509250925092565b60008160601b9050919050565b600061405e82614046565b9050919050565b600061407082614053565b9050919050565b61408861408382612a23565b614065565b82525050565b600061409a8284614077565b60148201915081905092915050565b60006140b482612be5565b91506140bf83612be5565b9250817fffffffffffffffffffffffffffffffffffffffffffffffffffffffffffffffff04831182151516156140f8576140f761392b565b5b828202905092915050565b600061410e82612be5565b915061411983612be5565b9250827fffffffffffffffffffffffffffffffffffffffffffffffffffffffffffffffff0382111561414e5761414d61392b565b5b828201905092915050565b7f4e487b7100000000000000000000000000000000000000000000000000000000600052603260045260246000fd5b600061419382612be5565b91507fffffffffffffffffffffffffffffffffffffffffffffffffffffffffffffffff8214156141c6576141c561392b565b5b600182019050919050565b7f5361666545524332303a204552433230206f7065726174696f6e20646964206e60008201527f6f74207375636365656400000000000000000000000000000000000000000000602082015250565b600061422d602a83613412565b9150614238826141d1565b604082019050919050565b6000602082019050818103600083015261425c81614220565b9050919050565b7f416464726573733a20696e73756666696369656e742062616c616e636520666f60008201527f722063616c6c0000000000000000000000000000000000000000000000000000602082015250565b60006142bf602683613412565b91506142ca82614263565b604082019050919050565b600060208201905081810360008301526142ee816142b2565b9050919050565b7f416464726573733a2063616c6c20746f206e6f6e2d636f6e7472616374000000600082015250565b600061432b601d83613412565b9150614336826142f5565b602082019050919050565b6000602082019050818103600083015261435a8161431e565b905091905056fea2646970667358221220bf1ccfad85b0836bc3b764fc1fd931d158c05f2628700d679ce301dca6eae12164736f6c63430008090033",
  "devdoc": {
    "kind": "dev",
    "methods": {
      "nativeTradeSendTrade(string,bytes,bytes,bytes32,address,uint16)": {
        "details": "Swap native token to USDC, burn it, and send swap payload to AxelarGateway contract",
        "params": {
          "destTradeData": "Trade data for the second swap",
          "destinationChain": "Name of the destination chain",
          "fallbackRecipient": "Recipient address to receive USDC token if the swap fails",
          "inputPos": "Position of the input token in destTradeData",
          "srcTradeData": "Trade data for the first swap",
          "traceId": "Trace ID of the swap"
        }
      },
      "owner()": {
        "details": "Returns the address of the current owner."
      },
      "renounceOwnership()": {
        "details": "Leaves the contract without owner. It will not be possible to call `onlyOwner` functions anymore. Can only be called by the current owner. NOTE: Renouncing ownership will leave the contract without an owner, thereby removing any functionality that is only available to the owner."
      },
      "transferOwnership(address)": {
        "details": "Transfers ownership of the contract to a new account (`newOwner`). Can only be called by the current owner."
      }
    },
    "version": 1
  },
  "userdoc": {
    "kind": "user",
    "methods": {},
    "version": 1
  },
  "storageLayout": {
    "storage": [
      {
        "astId": 14,
        "contract": "contracts/CrosschainNativeSwap.sol:CrosschainNativeSwap",
        "label": "gateway",
        "offset": 0,
        "slot": "0",
        "type": "t_contract(IAxelarGateway)1097"
      },
      {
        "astId": 18,
        "contract": "contracts/CrosschainNativeSwap.sol:CrosschainNativeSwap",
        "label": "forecallers",
        "offset": 0,
        "slot": "1",
        "type": "t_mapping(t_bytes32,t_address)"
      },
      {
        "astId": 1237,
        "contract": "contracts/CrosschainNativeSwap.sol:CrosschainNativeSwap",
        "label": "_owner",
        "offset": 0,
        "slot": "2",
        "type": "t_address"
      },
      {
        "astId": 2078,
        "contract": "contracts/CrosschainNativeSwap.sol:CrosschainNativeSwap",
        "label": "usdc",
        "offset": 0,
        "slot": "3",
        "type": "t_contract(IERC20)1420"
      },
      {
        "astId": 2081,
        "contract": "contracts/CrosschainNativeSwap.sol:CrosschainNativeSwap",
        "label": "circleBridge",
        "offset": 0,
        "slot": "4",
        "type": "t_contract(ICircleBridge)2628"
      },
      {
        "astId": 2088,
        "contract": "contracts/CrosschainNativeSwap.sol:CrosschainNativeSwap",
        "label": "circleDestinationDomains",
        "offset": 0,
        "slot": "5",
        "type": "t_mapping(t_string_memory_ptr,t_uint32)"
      },
      {
        "astId": 2092,
        "contract": "contracts/CrosschainNativeSwap.sol:CrosschainNativeSwap",
        "label": "siblings",
        "offset": 0,
        "slot": "6",
        "type": "t_mapping(t_string_memory_ptr,t_address)"
      }
    ],
    "types": {
      "t_address": {
        "encoding": "inplace",
        "label": "address",
        "numberOfBytes": "20"
      },
      "t_bytes32": {
        "encoding": "inplace",
        "label": "bytes32",
        "numberOfBytes": "32"
      },
      "t_contract(IAxelarGateway)1097": {
        "encoding": "inplace",
        "label": "contract IAxelarGateway",
        "numberOfBytes": "20"
      },
      "t_contract(ICircleBridge)2628": {
        "encoding": "inplace",
        "label": "contract ICircleBridge",
        "numberOfBytes": "20"
      },
      "t_contract(IERC20)1420": {
        "encoding": "inplace",
        "label": "contract IERC20",
        "numberOfBytes": "20"
      },
      "t_mapping(t_bytes32,t_address)": {
        "encoding": "mapping",
        "key": "t_bytes32",
        "label": "mapping(bytes32 => address)",
        "numberOfBytes": "32",
        "value": "t_address"
      },
      "t_mapping(t_string_memory_ptr,t_address)": {
        "encoding": "mapping",
        "key": "t_string_memory_ptr",
        "label": "mapping(string => address)",
        "numberOfBytes": "32",
        "value": "t_address"
      },
      "t_mapping(t_string_memory_ptr,t_uint32)": {
        "encoding": "mapping",
        "key": "t_string_memory_ptr",
        "label": "mapping(string => uint32)",
        "numberOfBytes": "32",
        "value": "t_uint32"
      },
      "t_string_memory_ptr": {
        "encoding": "bytes",
        "label": "string",
        "numberOfBytes": "32"
      },
      "t_uint32": {
        "encoding": "inplace",
        "label": "uint32",
        "numberOfBytes": "4"
      }
    }
  }
}