{
  "address": "0x9d71b2bA8a9359f24A0e0d43C29d654e47a98Ca6",
  "abi": [
    {
      "anonymous": false,
      "inputs": [
        {
          "indexed": true,
          "internalType": "address",
          "name": "sender",
          "type": "address"
        },
        {
          "indexed": false,
          "internalType": "string",
          "name": "destinationChain",
          "type": "string"
        },
        {
          "indexed": false,
          "internalType": "string",
          "name": "destinationContractAddress",
          "type": "string"
        },
        {
          "indexed": true,
          "internalType": "bytes32",
          "name": "payloadHash",
          "type": "bytes32"
        },
        {
          "indexed": false,
          "internalType": "bytes",
          "name": "payload",
          "type": "bytes"
        }
      ],
      "name": "ContractCall",
      "type": "event"
    },
    {
      "inputs": [
        {
          "internalType": "string",
          "name": "destinationChain",
          "type": "string"
        },
        {
          "internalType": "string",
          "name": "destinationContractAddress",
          "type": "string"
        },
        {
          "internalType": "bytes",
          "name": "payload",
          "type": "bytes"
        }
      ],
      "name": "callContract",
      "outputs": [],
      "stateMutability": "nonpayable",
      "type": "function"
    }
  ],
  "transactionHash": "0xa309232587055a964ba7214aeb04dd50d3989aa320f7f73449a9d0bd4a5b0ebe",
  "args": [],
  "numDeployments": 1,
  "solcInputHash": "ee04251b338ca765dfd7c1a12bc17165",
  "bytecode": "0x608060405234801561001057600080fd5b506103aa806100206000396000f3fe608060405234801561001057600080fd5b506004361061002b5760003560e01c80631c92115f14610030575b600080fd5b61004a60048036038101906100459190610189565b61004c565b005b818160405161005c92919061027c565b60405180910390203373ffffffffffffffffffffffffffffffffffffffff167f30ae6cc78c27e651745bf2ad08a11de83910ac1e347a52f7ac898c0fbef94dae8888888888886040516100b496959493929190610322565b60405180910390a3505050505050565b600080fd5b600080fd5b600080fd5b600080fd5b600080fd5b60008083601f8401126100f3576100f26100ce565b5b8235905067ffffffffffffffff8111156101105761010f6100d3565b5b60208301915083600182028301111561012c5761012b6100d8565b5b9250929050565b60008083601f840112610149576101486100ce565b5b8235905067ffffffffffffffff811115610166576101656100d3565b5b602083019150836001820283011115610182576101816100d8565b5b9250929050565b600080600080600080606087890312156101a6576101a56100c4565b5b600087013567ffffffffffffffff8111156101c4576101c36100c9565b5b6101d089828a016100dd565b9650965050602087013567ffffffffffffffff8111156101f3576101f26100c9565b5b6101ff89828a016100dd565b9450945050604087013567ffffffffffffffff811115610222576102216100c9565b5b61022e89828a01610133565b92509250509295509295509295565b600081905092915050565b82818337600083830152505050565b6000610263838561023d565b9350610270838584610248565b82840190509392505050565b6000610289828486610257565b91508190509392505050565b600082825260208201905092915050565b6000601f19601f8301169050919050565b60006102c38385610295565b93506102d0838584610248565b6102d9836102a6565b840190509392505050565b600082825260208201905092915050565b600061030183856102e4565b935061030e838584610248565b610317836102a6565b840190509392505050565b6000606082019050818103600083015261033d81888a6102b7565b905081810360208301526103528186886102b7565b905081810360408301526103678184866102f5565b905097965050505050505056fea2646970667358221220bf79ca9047993a850c9aa480703c3033164b264a4dde5f2f796ab50766f750a164736f6c63430008090033",
  "devdoc": {
    "kind": "dev",
    "methods": {},
    "version": 1
  },
  "userdoc": {
    "kind": "user",
    "methods": {},
    "version": 1
  },
  "storageLayout": {
    "storage": [],
    "types": null
  }
}