{
  "address": "0x7702D224F7919db9528f0449c8a61B60f5E5BBfD",
  "abi": [
    {
      "inputs": [
        {
          "internalType": "address",
          "name": "_gateway",
          "type": "address"
        },
        {
          "internalType": "address",
          "name": "_gasReceiver",
          "type": "address"
        },
        {
          "internalType": "address",
          "name": "_usdc",
          "type": "address"
        },
        {
          "internalType": "address",
          "name": "_circleBridge",
          "type": "address"
        },
        {
          "internalType": "address",
          "name": "_wrappedNativeAddress",
          "type": "address"
        }
      ],
      "stateMutability": "nonpayable",
      "type": "constructor"
    },
    {
      "inputs": [],
      "name": "AlreadyForecalled",
      "type": "error"
    },
    {
      "inputs": [],
      "name": "InsufficientInput",
      "type": "error"
    },
    {
      "inputs": [],
      "name": "InvalidTrade",
      "type": "error"
    },
    {
      "inputs": [],
      "name": "NotApprovedByGateway",
      "type": "error"
    },
    {
      "inputs": [],
      "name": "TradeFailed",
      "type": "error"
    },
    {
      "inputs": [],
      "name": "TransferFailed",
      "type": "error"
    },
    {
      "anonymous": false,
      "inputs": [
        {
          "indexed": true,
          "internalType": "address",
          "name": "previousOwner",
          "type": "address"
        },
        {
          "indexed": true,
          "internalType": "address",
          "name": "newOwner",
          "type": "address"
        }
      ],
      "name": "OwnershipTransferred",
      "type": "event"
    },
    {
      "anonymous": false,
      "inputs": [
        {
          "indexed": true,
          "internalType": "bytes32",
          "name": "traceId",
          "type": "bytes32"
        },
        {
          "indexed": false,
          "internalType": "uint256",
          "name": "amount",
          "type": "uint256"
        },
        {
          "indexed": false,
          "internalType": "address",
          "name": "refundAddress",
          "type": "address"
        }
      ],
      "name": "SwapFailed",
      "type": "event"
    },
    {
      "anonymous": false,
      "inputs": [
        {
          "indexed": true,
          "internalType": "bytes32",
          "name": "traceId",
          "type": "bytes32"
        },
        {
          "indexed": true,
          "internalType": "bytes32",
          "name": "payloadHash",
          "type": "bytes32"
        },
        {
          "indexed": false,
          "internalType": "uint256",
          "name": "amount",
          "type": "uint256"
        },
        {
          "indexed": false,
          "internalType": "string",
          "name": "destinationChain",
          "type": "string"
        },
        {
          "indexed": false,
          "internalType": "bytes",
          "name": "payload",
          "type": "bytes"
        }
      ],
      "name": "SwapPending",
      "type": "event"
    },
    {
      "anonymous": false,
      "inputs": [
        {
          "indexed": true,
          "internalType": "bytes32",
          "name": "traceId",
          "type": "bytes32"
        },
        {
          "indexed": false,
          "internalType": "uint256",
          "name": "amount",
          "type": "uint256"
        },
        {
          "indexed": false,
          "internalType": "bytes",
          "name": "tradeData",
          "type": "bytes"
        }
      ],
      "name": "SwapSuccess",
      "type": "event"
    },
    {
      "inputs": [
        {
          "internalType": "string",
          "name": "chain_",
          "type": "string"
        },
        {
          "internalType": "uint32",
          "name": "chainId",
          "type": "uint32"
        },
        {
          "internalType": "address",
          "name": "address_",
          "type": "address"
        }
      ],
      "name": "addSibling",
      "outputs": [],
      "stateMutability": "nonpayable",
      "type": "function"
    },
    {
      "inputs": [
        {
          "internalType": "uint256",
          "name": "amount",
          "type": "uint256"
        },
        {
          "internalType": "bytes",
          "name": "",
          "type": "bytes"
        }
      ],
      "name": "amountPostFee",
      "outputs": [
        {
          "internalType": "uint256",
          "name": "",
          "type": "uint256"
        }
      ],
      "stateMutability": "nonpayable",
      "type": "function"
    },
    {
      "inputs": [],
      "name": "circleBridge",
      "outputs": [
        {
          "internalType": "contract CircleBridge",
          "name": "",
          "type": "address"
        }
      ],
      "stateMutability": "view",
      "type": "function"
    },
    {
      "inputs": [
        {
          "internalType": "string",
          "name": "",
          "type": "string"
        }
      ],
      "name": "destinationDomains",
      "outputs": [
        {
          "internalType": "uint32",
          "name": "",
          "type": "uint32"
        }
      ],
      "stateMutability": "view",
      "type": "function"
    },
    {
      "inputs": [
        {
          "internalType": "bytes32",
          "name": "commandId",
          "type": "bytes32"
        },
        {
          "internalType": "string",
          "name": "sourceChain",
          "type": "string"
        },
        {
          "internalType": "string",
          "name": "sourceAddress",
          "type": "string"
        },
        {
          "internalType": "bytes",
          "name": "payload",
          "type": "bytes"
        }
      ],
      "name": "execute",
      "outputs": [],
      "stateMutability": "nonpayable",
      "type": "function"
    },
    {
      "inputs": [
        {
          "internalType": "bytes32",
          "name": "commandId",
          "type": "bytes32"
        },
        {
          "internalType": "string",
          "name": "sourceChain",
          "type": "string"
        },
        {
          "internalType": "string",
          "name": "sourceAddress",
          "type": "string"
        },
        {
          "internalType": "bytes",
          "name": "payload",
          "type": "bytes"
        },
        {
          "internalType": "string",
          "name": "tokenSymbol",
          "type": "string"
        },
        {
          "internalType": "uint256",
          "name": "amount",
          "type": "uint256"
        }
      ],
      "name": "executeWithToken",
      "outputs": [],
      "stateMutability": "nonpayable",
      "type": "function"
    },
    {
      "inputs": [
        {
          "internalType": "string",
          "name": "sourceChain",
          "type": "string"
        },
        {
          "internalType": "string",
          "name": "sourceAddress",
          "type": "string"
        },
        {
          "internalType": "bytes",
          "name": "payload",
          "type": "bytes"
        },
        {
          "internalType": "address",
          "name": "forecaller",
          "type": "address"
        }
      ],
      "name": "forecall",
      "outputs": [],
      "stateMutability": "nonpayable",
      "type": "function"
    },
    {
      "inputs": [
        {
          "internalType": "string",
          "name": "sourceChain",
          "type": "string"
        },
        {
          "internalType": "string",
          "name": "sourceAddress",
          "type": "string"
        },
        {
          "internalType": "bytes",
          "name": "payload",
          "type": "bytes"
        },
        {
          "internalType": "string",
          "name": "tokenSymbol",
          "type": "string"
        },
        {
          "internalType": "uint256",
          "name": "amount",
          "type": "uint256"
        },
        {
          "internalType": "address",
          "name": "forecaller",
          "type": "address"
        }
      ],
      "name": "forecallWithToken",
      "outputs": [],
      "stateMutability": "nonpayable",
      "type": "function"
    },
    {
      "inputs": [],
      "name": "gateway",
      "outputs": [
        {
          "internalType": "contract IAxelarGateway",
          "name": "",
          "type": "address"
        }
      ],
      "stateMutability": "view",
      "type": "function"
    },
    {
      "inputs": [
        {
          "internalType": "string",
          "name": "destinationChain",
          "type": "string"
        },
        {
          "internalType": "uint256",
          "name": "amount",
          "type": "uint256"
        },
        {
          "internalType": "bytes",
          "name": "tradeData",
          "type": "bytes"
        },
        {
          "internalType": "bytes32",
          "name": "traceId",
          "type": "bytes32"
        },
        {
          "internalType": "address",
          "name": "fallbackRecipient",
          "type": "address"
        },
        {
          "internalType": "uint16",
          "name": "inputPos",
          "type": "uint16"
        }
      ],
      "name": "nativeSendTrade",
      "outputs": [],
      "stateMutability": "payable",
      "type": "function"
    },
    {
      "inputs": [
        {
          "internalType": "string",
          "name": "destinationChain",
          "type": "string"
        },
        {
          "internalType": "bytes",
          "name": "tradeData1",
          "type": "bytes"
        },
        {
          "internalType": "bytes",
          "name": "tradeData2",
          "type": "bytes"
        },
        {
          "internalType": "bytes32",
          "name": "traceId",
          "type": "bytes32"
        },
        {
          "internalType": "address",
          "name": "fallbackRecipient",
          "type": "address"
        },
        {
          "internalType": "uint16",
          "name": "inputPos",
          "type": "uint16"
        }
      ],
      "name": "nativeTradeSendTrade",
      "outputs": [],
      "stateMutability": "payable",
      "type": "function"
    },
    {
      "inputs": [],
      "name": "owner",
      "outputs": [
        {
          "internalType": "address",
          "name": "",
          "type": "address"
        }
      ],
      "stateMutability": "view",
      "type": "function"
    },
    {
      "inputs": [],
      "name": "renounceOwnership",
      "outputs": [],
      "stateMutability": "nonpayable",
      "type": "function"
    },
    {
      "inputs": [
        {
          "internalType": "string",
          "name": "",
          "type": "string"
        }
      ],
      "name": "siblings",
      "outputs": [
        {
          "internalType": "address",
          "name": "",
          "type": "address"
        }
      ],
      "stateMutability": "view",
      "type": "function"
    },
    {
      "inputs": [
        {
          "internalType": "address",
          "name": "newOwner",
          "type": "address"
        }
      ],
      "name": "transferOwnership",
      "outputs": [],
      "stateMutability": "nonpayable",
      "type": "function"
    },
    {
      "inputs": [],
      "name": "usdc",
      "outputs": [
        {
          "internalType": "contract USDC",
          "name": "",
          "type": "address"
        }
      ],
      "stateMutability": "view",
      "type": "function"
    },
    {
      "inputs": [],
      "name": "wrappedNativeToken",
      "outputs": [
        {
          "internalType": "address",
          "name": "",
          "type": "address"
        }
      ],
      "stateMutability": "view",
      "type": "function"
    }
  ],
  "transactionHash": "0x93df37bff96c32af8c1d8b7eec3b8450567a94c902769f14365bba4d8a13a3e3",
  "args": [
    "0x5769D84DD62a6fD969856c75c7D321b84d455929",
    "0xbE406F0189A0B4cf3A05C286473D23791Dd44Cc6",
    "0xE5055679b3952AEfeB7069672a26B8CE7AD8fcb6",
    "0x56766Ac03a2Ed19a302D11F22D6da20FF0bF6695",
    "0xD909178CC99d318e4D46e7E66a972955859670E1"
  ],
  "numDeployments": 7,
  "solcInputHash": "2e46b41892e17a3546ec0daebdb77acb",
  "bytecode": "0x60a06040523480156200001157600080fd5b5060405162004f3638038062004f368339818101604052810190620000379190620002d3565b84806000806101000a81548173ffffffffffffffffffffffffffffffffffffffff021916908373ffffffffffffffffffffffffffffffffffffffff16021790555050620000996200008d6200019b60201b60201c565b620001a360201b60201c565b8373ffffffffffffffffffffffffffffffffffffffff1660808173ffffffffffffffffffffffffffffffffffffffff168152505082600360006101000a81548173ffffffffffffffffffffffffffffffffffffffff021916908373ffffffffffffffffffffffffffffffffffffffff16021790555081600560006101000a81548173ffffffffffffffffffffffffffffffffffffffff021916908373ffffffffffffffffffffffffffffffffffffffff16021790555080600460006101000a81548173ffffffffffffffffffffffffffffffffffffffff021916908373ffffffffffffffffffffffffffffffffffffffff16021790555050505050506200035b565b600033905090565b6000600260009054906101000a900473ffffffffffffffffffffffffffffffffffffffff16905081600260006101000a81548173ffffffffffffffffffffffffffffffffffffffff021916908373ffffffffffffffffffffffffffffffffffffffff1602179055508173ffffffffffffffffffffffffffffffffffffffff168173ffffffffffffffffffffffffffffffffffffffff167f8be0079c531659141344cd1fd0a4f28419497f9722a3daafe3b4186f6b6457e060405160405180910390a35050565b600080fd5b600073ffffffffffffffffffffffffffffffffffffffff82169050919050565b60006200029b826200026e565b9050919050565b620002ad816200028e565b8114620002b957600080fd5b50565b600081519050620002cd81620002a2565b92915050565b600080600080600060a08688031215620002f257620002f162000269565b5b60006200030288828901620002bc565b95505060206200031588828901620002bc565b94505060406200032888828901620002bc565b93505060606200033b88828901620002bc565b92505060806200034e88828901620002bc565b9150509295509295909350565b608051614bbf620003776000396000611b1c0152614bbf6000f3fe6080604052600436106100fe5760003560e01c8063713a987611610095578063bb288a0311610064578063bb288a0314610323578063d3e488d51461034c578063daa0c91714610368578063e7fb058b14610384578063f2fde38b146103ad576100fe565b8063713a987614610267578063715018a6146102a45780638da5cb5b146102bb578063a7798b69146102e6576100fe565b80633ca2fd8e116100d15780633ca2fd8e146101ad5780633da2a4b5146101ea5780633e413bee14610213578063491606581461023e576100fe565b806301a67b6b14610103578063116191b61461012e57806317fcb39b146101595780631a98b2e014610184575b600080fd5b34801561010f57600080fd5b506101186103d6565b6040516101259190613017565b60405180910390f35b34801561013a57600080fd5b506101436103fc565b6040516101509190613053565b60405180910390f35b34801561016557600080fd5b5061016e610420565b60405161017b919061308f565b60405180910390f35b34801561019057600080fd5b506101ab60048036038101906101a691906131e5565b610446565b005b3480156101b957600080fd5b506101d460048036038101906101cf91906132f5565b610828565b6040516101e19190613364565b60405180910390f35b3480156101f657600080fd5b50610211600480360381019061020c9190613528565b610834565b005b34801561021f57600080fd5b506102286108db565b60405161023591906135b8565b60405180910390f35b34801561024a57600080fd5b50610265600480360381019061026091906135d3565b610901565b005b34801561027357600080fd5b5061028e6004803603810190610289919061369c565b610bcc565b60405161029b91906136f4565b60405180910390f35b3480156102b057600080fd5b506102b9610c05565b005b3480156102c757600080fd5b506102d0610c07565b6040516102dd919061308f565b60405180910390f35b3480156102f257600080fd5b5061030d6004803603810190610308919061369c565b610c31565b60405161031a919061308f565b60405180910390f35b34801561032f57600080fd5b5061034a6004803603810190610345919061370f565b610c7a565b005b610366600480360381019061036191906138b3565b610e71565b005b610382600480360381019061037d9190613978565b61120b565b005b34801561039057600080fd5b506103ab60048036038101906103a69190613a59565b611510565b005b3480156103b957600080fd5b506103d460048036038101906103cf9190613b69565b61182b565b005b600560009054906101000a900473ffffffffffffffffffffffffffffffffffffffff1681565b60008054906101000a900473ffffffffffffffffffffffffffffffffffffffff1681565b600460009054906101000a900473ffffffffffffffffffffffffffffffffffffffff1681565b60008585604051610458929190613bc6565b6040518091039020905060008054906101000a900473ffffffffffffffffffffffffffffffffffffffff1673ffffffffffffffffffffffffffffffffffffffff16631876eed98c8c8c8c8c878b8b8b6040518a63ffffffff1660e01b81526004016104cb99989796959493929190613c2c565b602060405180830381600087803b1580156104e557600080fd5b505af11580156104f9573d6000803e3d6000fd5b505050506040513d601f19601f8201168201806040525081019061051d9190613ce0565b610553576040517f500c44b400000000000000000000000000000000000000000000000000000000815260040160405180910390fd5b6000600160008c8c8c8c8c8c8c8c8c60405160200161057a99989796959493929190613d4b565b60405160208183030381529060405280519060200120815260200190815260200160002060009054906101000a900473ffffffffffffffffffffffffffffffffffffffff169050600073ffffffffffffffffffffffffffffffffffffffff168173ffffffffffffffffffffffffffffffffffffffff161461073f576000600160008d8d8d8d8d8d8d8d8d60405160200161061c99989796959493929190613d4b565b60405160208183030381529060405280519060200120815260200190815260200160002060006101000a81548173ffffffffffffffffffffffffffffffffffffffff021916908373ffffffffffffffffffffffffffffffffffffffff16021790555060008060009054906101000a900473ffffffffffffffffffffffffffffffffffffffff1673ffffffffffffffffffffffffffffffffffffffff1663935b13f687876040518363ffffffff1660e01b81526004016106dc929190613dc2565b60206040518083038186803b1580156106f457600080fd5b505afa158015610708573d6000803e3d6000fd5b505050506040513d601f19601f8201168201806040525081019061072c9190613dfb565b90506107398183866118af565b5061081a565b6108198b8b8080601f016020809104026020016040519081016040528093929190818152602001838380828437600081840152601f19601f820116905080830192505050505050508a8a8080601f016020809104026020016040519081016040528093929190818152602001838380828437600081840152601f19601f82011690508083019250505050505050898989898080601f016020809104026020016040519081016040528093929190818152602001838380828437600081840152601f19601f8201169050808301925050505050505088611a25565b5b505050505050505050505050565b60008390509392505050565b61083c611a2d565b8060068460405161084d9190613ea2565b908152602001604051809103902060006101000a81548173ffffffffffffffffffffffffffffffffffffffff021916908373ffffffffffffffffffffffffffffffffffffffff160217905550816007846040516108aa9190613ea2565b908152602001604051809103902060006101000a81548163ffffffff021916908363ffffffff160217905550505050565b600360009054906101000a900473ffffffffffffffffffffffffffffffffffffffff1681565b60008282604051610913929190613bc6565b6040518091039020905060008054906101000a900473ffffffffffffffffffffffffffffffffffffffff1673ffffffffffffffffffffffffffffffffffffffff16635f6970c38989898989876040518763ffffffff1660e01b815260040161098096959493929190613eb9565b602060405180830381600087803b15801561099a57600080fd5b505af11580156109ae573d6000803e3d6000fd5b505050506040513d601f19601f820116820180604052508101906109d29190613ce0565b610a08576040517f500c44b400000000000000000000000000000000000000000000000000000000815260040160405180910390fd5b600060016000898989898989604051602001610a2996959493929190613f10565b60405160208183030381529060405280519060200120815260200190815260200160002060009054906101000a900473ffffffffffffffffffffffffffffffffffffffff169050600073ffffffffffffffffffffffffffffffffffffffff168173ffffffffffffffffffffffffffffffffffffffff1614610b2c576000600160008a8a8a8a8a8a604051602001610ac596959493929190613f10565b60405160208183030381529060405280519060200120815260200190815260200160002060006101000a81548173ffffffffffffffffffffffffffffffffffffffff021916908373ffffffffffffffffffffffffffffffffffffffff160217905550610bc1565b610bc088888080601f016020809104026020016040519081016040528093929190818152602001838380828437600081840152601f19601f8201169050808301925050505050505087878080601f016020809104026020016040519081016040528093929190818152602001838380828437600081840152601f19601f820116905080830192505050505050508686611aab565b5b505050505050505050565b6007818051602081018201805184825260208301602085012081835280955050505050506000915054906101000a900463ffffffff1681565b565b6000600260009054906101000a900473ffffffffffffffffffffffffffffffffffffffff16905090565b6006818051602081018201805184825260208301602085012081835280955050505050506000915054906101000a900473ffffffffffffffffffffffffffffffffffffffff1681565b610c8987878787878787611ae5565b600073ffffffffffffffffffffffffffffffffffffffff1660016000898989898989604051602001610cc096959493929190613f10565b60405160208183030381529060405280519060200120815260200190815260200160002060009054906101000a900473ffffffffffffffffffffffffffffffffffffffff1673ffffffffffffffffffffffffffffffffffffffff1614610d52576040517f35b7d55000000000000000000000000000000000000000000000000000000000815260040160405180910390fd5b8060016000898989898989604051602001610d7296959493929190613f10565b60405160208183030381529060405280519060200120815260200190815260200160002060006101000a81548173ffffffffffffffffffffffffffffffffffffffff021916908373ffffffffffffffffffffffffffffffffffffffff160217905550610e6887878080601f016020809104026020016040519081016040528093929190818152602001838380828437600081840152601f19601f8201169050808301925050505050505086868080601f016020809104026020016040519081016040528093929190818152602001838380828437600081840152601f19601f820116905080830192505050505050508585611aab565b50505050505050565b85600073ffffffffffffffffffffffffffffffffffffffff16600682604051610e9a9190613ea2565b908152602001604051809103902060009054906101000a900473ffffffffffffffffffffffffffffffffffffffff1673ffffffffffffffffffffffffffffffffffffffff161415610f20576040517f08c379a0000000000000000000000000000000000000000000000000000000008152600401610f1790613fd4565b60405180910390fd5b600360009054906101000a900473ffffffffffffffffffffffffffffffffffffffff1673ffffffffffffffffffffffffffffffffffffffff166323b872dd3330896040518463ffffffff1660e01b8152600401610f7f93929190613ff4565b602060405180830381600087803b158015610f9957600080fd5b505af1158015610fad573d6000803e3d6000fd5b505050506040513d601f19601f82011682018060405250810190610fd19190613ce0565b506000600560009054906101000a900473ffffffffffffffffffffffffffffffffffffffff1673ffffffffffffffffffffffffffffffffffffffff16636fd3504e883073ffffffffffffffffffffffffffffffffffffffff1663713a98768c6040518263ffffffff1660e01b815260040161104c9190614064565b60206040518083038186803b15801561106457600080fd5b505afa158015611078573d6000803e3d6000fd5b505050506040513d601f19601f8201168201806040525081019061109c919061409b565b3073ffffffffffffffffffffffffffffffffffffffff1663a7798b698d6040518263ffffffff1660e01b81526004016110d59190614064565b60206040518083038186803b1580156110ed57600080fd5b505afa158015611101573d6000803e3d6000fd5b505050506040513d601f19601f820116820180604052508101906111259190613dfb565b73ffffffffffffffffffffffffffffffffffffffff1660001b306040518563ffffffff1660e01b815260040161115e94939291906140c8565b602060405180830381600087803b15801561117857600080fd5b505af115801561118c573d6000803e3d6000fd5b505050506040513d601f19601f820116820180604052508101906111b09190613ce0565b9050806111f2576040517f08c379a00000000000000000000000000000000000000000000000000000000081526004016111e990614159565b60405180910390fd5b61120188878934898989611aee565b5050505050505050565b85600073ffffffffffffffffffffffffffffffffffffffff166006826040516112349190613ea2565b908152602001604051809103902060009054906101000a900473ffffffffffffffffffffffffffffffffffffffff1673ffffffffffffffffffffffffffffffffffffffff1614156112ba576040517f08c379a00000000000000000000000000000000000000000000000000000000081526004016112b190613fd4565b60405180910390fd5b6000806112c688611dab565b915091506000600560009054906101000a900473ffffffffffffffffffffffffffffffffffffffff1673ffffffffffffffffffffffffffffffffffffffff16636fd3504e833073ffffffffffffffffffffffffffffffffffffffff1663713a98768e6040518263ffffffff1660e01b81526004016113449190614064565b60206040518083038186803b15801561135c57600080fd5b505afa158015611370573d6000803e3d6000fd5b505050506040513d601f19601f82011682018060405250810190611394919061409b565b3073ffffffffffffffffffffffffffffffffffffffff1663a7798b698f6040518263ffffffff1660e01b81526004016113cd9190614064565b60206040518083038186803b1580156113e557600080fd5b505afa1580156113f9573d6000803e3d6000fd5b505050506040513d601f19601f8201168201806040525081019061141d9190613dfb565b73ffffffffffffffffffffffffffffffffffffffff1660001b306040518563ffffffff1660e01b815260040161145694939291906140c8565b602060405180830381600087803b15801561147057600080fd5b505af1158015611484573d6000803e3d6000fd5b505050506040513d601f19601f820116820180604052508101906114a89190613ce0565b9050806114ea576040517f08c379a00000000000000000000000000000000000000000000000000000000081526004016114e1906141c5565b60405180910390fd5b6115048a898486346114fc9190614214565b8b8b8b611aee565b50505050505050505050565b60008060009054906101000a900473ffffffffffffffffffffffffffffffffffffffff1673ffffffffffffffffffffffffffffffffffffffff1663935b13f686866040518363ffffffff1660e01b815260040161156e929190613dc2565b60206040518083038186803b15801561158657600080fd5b505afa15801561159a573d6000803e3d6000fd5b505050506040513d601f19601f820116820180604052508101906115be9190613dfb565b905060006115cd848989610828565b90506115da823383611e76565b6115ec8c8c8c8c8c8c8c8c8c8c611fee565b600073ffffffffffffffffffffffffffffffffffffffff16600160008e8e8e8e8e8e8e8e8e60405160200161162999989796959493929190613d4b565b60405160208183030381529060405280519060200120815260200190815260200160002060009054906101000a900473ffffffffffffffffffffffffffffffffffffffff1673ffffffffffffffffffffffffffffffffffffffff16146116bb576040517f35b7d55000000000000000000000000000000000000000000000000000000000815260040160405180910390fd5b82600160008e8e8e8e8e8e8e8e8e6040516020016116e199989796959493929190613d4b565b60405160208183030381529060405280519060200120815260200190815260200160002060006101000a81548173ffffffffffffffffffffffffffffffffffffffff021916908373ffffffffffffffffffffffffffffffffffffffff16021790555061181d8c8c8080601f016020809104026020016040519081016040528093929190818152602001838380828437600081840152601f19601f820116905080830192505050505050508b8b8080601f016020809104026020016040519081016040528093929190818152602001838380828437600081840152601f19601f820116905080830192505050505050508a8a8a8a8080601f016020809104026020016040519081016040528093929190818152602001838380828437600081840152601f19601f8201169050808301925050505050505086611a25565b505050505050505050505050565b611833611a2d565b600073ffffffffffffffffffffffffffffffffffffffff168173ffffffffffffffffffffffffffffffffffffffff1614156118a3576040517f08c379a000000000000000000000000000000000000000000000000000000000815260040161189a906142ba565b60405180910390fd5b6118ac81611ffa565b50565b6000808473ffffffffffffffffffffffffffffffffffffffff1663a9059cbb60e01b85856040516024016118e49291906142da565b604051602081830303815290604052907bffffffffffffffffffffffffffffffffffffffffffffffffffffffff19166020820180517bffffffffffffffffffffffffffffffffffffffffffffffffffffffff838183161783525050505060405161194e919061433f565b6000604051808303816000865af19150503d806000811461198b576040519150601f19603f3d011682016040523d82523d6000602084013e611990565b606091505b509150915060008280156119c057506000825114806119bf5750818060200190518101906119be9190613ce0565b5b5b90508015806119e6575060008673ffffffffffffffffffffffffffffffffffffffff163b145b15611a1d576040517f90b8ec1800000000000000000000000000000000000000000000000000000000815260040160405180910390fd5b505050505050565b505050505050565b611a356120c0565b73ffffffffffffffffffffffffffffffffffffffff16611a53610c07565b73ffffffffffffffffffffffffffffffffffffffff1614611aa9576040517f08c379a0000000000000000000000000000000000000000000000000000000008152600401611aa0906143a2565b60405180910390fd5b565b60008060008060008686810190611ac29190614400565b94509450945094509450611ad984868585856120c8565b50505050505050505050565b50505050505050565b60008686858585604051602001611b099594939291906144df565b60405160208183030381529060405290507f000000000000000000000000000000000000000000000000000000000000000073ffffffffffffffffffffffffffffffffffffffff16630c93e3bb86308b611bea3073ffffffffffffffffffffffffffffffffffffffff1663a7798b698f6040518263ffffffff1660e01b8152600401611b959190614064565b60206040518083038186803b158015611bad57600080fd5b505afa158015611bc1573d6000803e3d6000fd5b505050506040513d601f19601f82011682018060405250810190611be59190613dfb565b6121b9565b86336040518763ffffffff1660e01b8152600401611c0c959493929190614539565b6000604051808303818588803b158015611c2557600080fd5b505af1158015611c39573d6000803e3d6000fd5b505050505060008054906101000a900473ffffffffffffffffffffffffffffffffffffffff1673ffffffffffffffffffffffffffffffffffffffff16631c92115f89611d0c3073ffffffffffffffffffffffffffffffffffffffff1663a7798b698d6040518263ffffffff1660e01b8152600401611cb79190614064565b60206040518083038186803b158015611ccf57600080fd5b505afa158015611ce3573d6000803e3d6000fd5b505050506040513d601f19601f82011682018060405250810190611d079190613dfb565b6121b9565b846040518463ffffffff1660e01b8152600401611d2b939291906145a1565b600060405180830381600087803b158015611d4557600080fd5b505af1158015611d59573d6000803e3d6000fd5b505050508080519060200120847f603f384676075b3ec165d26daed675db50dfd83d03f3d12e2eecad1a52da8221888b85604051611d99939291906145ed565b60405180910390a35050505050505050565b6000806000611ddb600360009054906101000a900473ffffffffffffffffffffffffffffffffffffffff166124d6565b9050600080611de986612568565b9150915081611e2d576040517f08c379a0000000000000000000000000000000000000000000000000000000008152600401611e249061467e565b60405180910390fd5b600083611e5b600360009054906101000a900473ffffffffffffffffffffffffffffffffffffffff166124d6565b611e659190614214565b905081819550955050505050915091565b6000808473ffffffffffffffffffffffffffffffffffffffff166323b872dd60e01b853086604051602401611ead93929190613ff4565b604051602081830303815290604052907bffffffffffffffffffffffffffffffffffffffffffffffffffffffff19166020820180517bffffffffffffffffffffffffffffffffffffffffffffffffffffffff8381831617835250505050604051611f17919061433f565b6000604051808303816000865af19150503d8060008114611f54576040519150601f19603f3d011682016040523d82523d6000602084013e611f59565b606091505b50915091506000828015611f895750600082511480611f88575081806020019051810190611f879190613ce0565b5b5b9050801580611faf575060008673ffffffffffffffffffffffffffffffffffffffff163b145b15611fe6576040517f90b8ec1800000000000000000000000000000000000000000000000000000000815260040160405180910390fd5b505050505050565b50505050505050505050565b6000600260009054906101000a900473ffffffffffffffffffffffffffffffffffffffff16905081600260006101000a81548173ffffffffffffffffffffffffffffffffffffffff021916908373ffffffffffffffffffffffffffffffffffffffff1602179055508173ffffffffffffffffffffffffffffffffffffffff168173ffffffffffffffffffffffffffffffffffffffff167f8be0079c531659141344cd1fd0a4f28419497f9722a3daafe3b4186f6b6457e060405160405180910390a35050565b600033905090565b600080858060200190518101906120df91906146b3565b9050600360009054906101000a900473ffffffffffffffffffffffffffffffffffffffff1673ffffffffffffffffffffffffffffffffffffffff168173ffffffffffffffffffffffffffffffffffffffff16146121495761214185888661274c565b9150506121b0565b868387015261215986888661279d565b6121705761216885888661274c565b9150506121b0565b847f2eee7242b494decec975364a3a68cc2983c8c343618698e44ca690103af7617588886040516121a29291906146e0565b60405180910390a260019150505b95945050505050565b60606000826040516020016121ce9190614758565b604051602081830303815290604052905060006040518060400160405280601081526020017f303132333435363738396162636465660000000000000000000000000000000081525090506000600283516122299190614773565b600261223591906147cd565b67ffffffffffffffff81111561224e5761224d613395565b5b6040519080825280601f01601f1916602001820160405280156122805781602001600182028036833780820191505090505b5090507f3000000000000000000000000000000000000000000000000000000000000000816000815181106122b8576122b7614823565b5b60200101907effffffffffffffffffffffffffffffffffffffffffffffffffffffffffffff1916908160001a9053507f78000000000000000000000000000000000000000000000000000000000000008160018151811061231c5761231b614823565b5b60200101907effffffffffffffffffffffffffffffffffffffffffffffffffffffffffffff1916908160001a90535060005b83518110156124ca5782600485838151811061236d5761236c614823565b5b602001015160f81c60f81b7effffffffffffffffffffffffffffffffffffffffffffffffffffffffffffff1916901c60f81c60ff16815181106123b3576123b2614823565b5b602001015160f81c60f81b826002836123cc9190614773565b60026123d891906147cd565b815181106123e9576123e8614823565b5b60200101907effffffffffffffffffffffffffffffffffffffffffffffffffffffffffffff1916908160001a90535082600f60f81b85838151811061243157612430614823565b5b602001015160f81c60f81b1660f81c60ff168151811061245457612453614823565b5b602001015160f81c60f81b8260028361246d9190614773565b600361247991906147cd565b8151811061248a57612489614823565b5b60200101907effffffffffffffffffffffffffffffffffffffffffffffffffffffffffffff1916908160001a905350806124c390614852565b905061234e565b50809350505050919050565b60008173ffffffffffffffffffffffffffffffffffffffff166370a08231306040518263ffffffff1660e01b8152600401612511919061308f565b60206040518083038186803b15801561252957600080fd5b505afa15801561253d573d6000803e3d6000fd5b505050506040513d601f19601f8201168201806040525081019061256191906148b0565b9050919050565b60008060008060008086806020019051810190612585919061494d565b9350935093509350600073ffffffffffffffffffffffffffffffffffffffff168473ffffffffffffffffffffffffffffffffffffffff161415612635578173ffffffffffffffffffffffffffffffffffffffff1683826040516125e8919061433f565b60006040518083038185875af1925050503d8060008114612625576040519150601f19603f3d011682016040523d82523d6000602084013e61262a565b606091505b50508096505061273d565b61264184333086612bdb565b8373ffffffffffffffffffffffffffffffffffffffff1663095ea7b383856040518363ffffffff1660e01b815260040161267c9291906142da565b602060405180830381600087803b15801561269657600080fd5b505af11580156126aa573d6000803e3d6000fd5b505050506040513d601f19601f820116820180604052508101906126ce9190613ce0565b508173ffffffffffffffffffffffffffffffffffffffff16816040516126f4919061433f565b6000604051808303816000865af19150503d8060008114612731576040519150601f19603f3d011682016040523d82523d6000602084013e612736565b606091505b5050809650505b85839550955050505050915091565b60006127588383612c64565b837f558c0ee8c786238cf77a23150b8f030420c53c82aa0488213ace44ee1cfc92f4848460405161278a9291906149d0565b60405180910390a2600090509392505050565b600080600080868060200190518101906127b7919061494d565b935093505092508273ffffffffffffffffffffffffffffffffffffffff1663095ea7b383886040518363ffffffff1660e01b81526004016127f99291906142da565b602060405180830381600087803b15801561281357600080fd5b505af1158015612827573d6000803e3d6000fd5b505050506040513d601f19601f8201168201806040525081019061284b9190613ce0565b5060006128d43073ffffffffffffffffffffffffffffffffffffffff166317fcb39b6040518163ffffffff1660e01b815260040160206040518083038186803b15801561289757600080fd5b505afa1580156128ab573d6000803e3d6000fd5b505050506040513d601f19601f820116820180604052508101906128cf9190613dfb565b6124d6565b905060008373ffffffffffffffffffffffffffffffffffffffff16836040516128fd919061433f565b6000604051808303816000865af19150503d806000811461293a576040519150601f19603f3d011682016040523d82523d6000602084013e61293f565b606091505b505090508061295657600095505050505050612bd4565b6000826129df3073ffffffffffffffffffffffffffffffffffffffff166317fcb39b6040518163ffffffff1660e01b815260040160206040518083038186803b1580156129a257600080fd5b505afa1580156129b6573d6000803e3d6000fd5b505050506040513d601f19601f820116820180604052508101906129da9190613dfb565b6124d6565b6129e99190614214565b90506000811115612bc95760003073ffffffffffffffffffffffffffffffffffffffff166317fcb39b6040518163ffffffff1660e01b815260040160206040518083038186803b158015612a3c57600080fd5b505afa158015612a50573d6000803e3d6000fd5b505050506040513d601f19601f82011682018060405250810190612a749190613dfb565b73ffffffffffffffffffffffffffffffffffffffff1682604051602401612a9b9190613364565b6040516020818303038152906040527f2e1a7d4d000000000000000000000000000000000000000000000000000000007bffffffffffffffffffffffffffffffffffffffffffffffffffffffff19166020820180517bffffffffffffffffffffffffffffffffffffffffffffffffffffffff8381831617835250505050604051612b25919061433f565b6000604051808303816000865af19150503d8060008114612b62576040519150601f19603f3d011682016040523d82523d6000602084013e612b67565b606091505b5050905080612b80576000975050505050505050612bd4565b60008973ffffffffffffffffffffffffffffffffffffffff166108fc849081150290604051600060405180830381858888f1935050505090508098505050505050505050612bd4565b600196505050505050505b9392505050565b612c5e846323b872dd60e01b858585604051602401612bfc93929190613ff4565b604051602081830303815290604052907bffffffffffffffffffffffffffffffffffffffffffffffffffffffff19166020820180517bffffffffffffffffffffffffffffffffffffffffffffffffffffffff8381831617835250505050612c95565b50505050565b612c91600360009054906101000a900473ffffffffffffffffffffffffffffffffffffffff168284612d5c565b5050565b6000612cf7826040518060400160405280602081526020017f5361666545524332303a206c6f772d6c6576656c2063616c6c206661696c65648152508573ffffffffffffffffffffffffffffffffffffffff16612de29092919063ffffffff16565b9050600081511115612d575780806020019051810190612d179190613ce0565b612d56576040517f08c379a0000000000000000000000000000000000000000000000000000000008152600401612d4d90614a6b565b60405180910390fd5b5b505050565b612ddd8363a9059cbb60e01b8484604051602401612d7b9291906142da565b604051602081830303815290604052907bffffffffffffffffffffffffffffffffffffffffffffffffffffffff19166020820180517bffffffffffffffffffffffffffffffffffffffffffffffffffffffff8381831617835250505050612c95565b505050565b6060612df18484600085612dfa565b90509392505050565b606082471015612e3f576040517f08c379a0000000000000000000000000000000000000000000000000000000008152600401612e3690614afd565b60405180910390fd5b612e4885612f0e565b612e87576040517f08c379a0000000000000000000000000000000000000000000000000000000008152600401612e7e90614b69565b60405180910390fd5b6000808673ffffffffffffffffffffffffffffffffffffffff168587604051612eb0919061433f565b60006040518083038185875af1925050503d8060008114612eed576040519150601f19603f3d011682016040523d82523d6000602084013e612ef2565b606091505b5091509150612f02828286612f31565b92505050949350505050565b6000808273ffffffffffffffffffffffffffffffffffffffff163b119050919050565b60608315612f4157829050612f91565b600083511115612f545782518084602001fd5b816040517f08c379a0000000000000000000000000000000000000000000000000000000008152600401612f889190614064565b60405180910390fd5b9392505050565b600073ffffffffffffffffffffffffffffffffffffffff82169050919050565b6000819050919050565b6000612fdd612fd8612fd384612f98565b612fb8565b612f98565b9050919050565b6000612fef82612fc2565b9050919050565b600061300182612fe4565b9050919050565b61301181612ff6565b82525050565b600060208201905061302c6000830184613008565b92915050565b600061303d82612fe4565b9050919050565b61304d81613032565b82525050565b60006020820190506130686000830184613044565b92915050565b600061307982612f98565b9050919050565b6130898161306e565b82525050565b60006020820190506130a46000830184613080565b92915050565b6000604051905090565b600080fd5b600080fd5b6000819050919050565b6130d1816130be565b81146130dc57600080fd5b50565b6000813590506130ee816130c8565b92915050565b600080fd5b600080fd5b600080fd5b60008083601f840112613119576131186130f4565b5b8235905067ffffffffffffffff811115613136576131356130f9565b5b602083019150836001820283011115613152576131516130fe565b5b9250929050565b60008083601f84011261316f5761316e6130f4565b5b8235905067ffffffffffffffff81111561318c5761318b6130f9565b5b6020830191508360018202830111156131a8576131a76130fe565b5b9250929050565b6000819050919050565b6131c2816131af565b81146131cd57600080fd5b50565b6000813590506131df816131b9565b92915050565b60008060008060008060008060008060c08b8d031215613208576132076130b4565b5b60006132168d828e016130df565b9a505060208b013567ffffffffffffffff811115613237576132366130b9565b5b6132438d828e01613103565b995099505060408b013567ffffffffffffffff811115613266576132656130b9565b5b6132728d828e01613103565b975097505060608b013567ffffffffffffffff811115613295576132946130b9565b5b6132a18d828e01613159565b955095505060808b013567ffffffffffffffff8111156132c4576132c36130b9565b5b6132d08d828e01613103565b935093505060a06132e38d828e016131d0565b9150509295989b9194979a5092959850565b60008060006040848603121561330e5761330d6130b4565b5b600061331c868287016131d0565b935050602084013567ffffffffffffffff81111561333d5761333c6130b9565b5b61334986828701613159565b92509250509250925092565b61335e816131af565b82525050565b60006020820190506133796000830184613355565b92915050565b600080fd5b6000601f19601f8301169050919050565b7f4e487b7100000000000000000000000000000000000000000000000000000000600052604160045260246000fd5b6133cd82613384565b810181811067ffffffffffffffff821117156133ec576133eb613395565b5b80604052505050565b60006133ff6130aa565b905061340b82826133c4565b919050565b600067ffffffffffffffff82111561342b5761342a613395565b5b61343482613384565b9050602081019050919050565b82818337600083830152505050565b600061346361345e84613410565b6133f5565b90508281526020810184848401111561347f5761347e61337f565b5b61348a848285613441565b509392505050565b600082601f8301126134a7576134a66130f4565b5b81356134b7848260208601613450565b91505092915050565b600063ffffffff82169050919050565b6134d9816134c0565b81146134e457600080fd5b50565b6000813590506134f6816134d0565b92915050565b6135058161306e565b811461351057600080fd5b50565b600081359050613522816134fc565b92915050565b600080600060608486031215613541576135406130b4565b5b600084013567ffffffffffffffff81111561355f5761355e6130b9565b5b61356b86828701613492565b935050602061357c868287016134e7565b925050604061358d86828701613513565b9150509250925092565b60006135a282612fe4565b9050919050565b6135b281613597565b82525050565b60006020820190506135cd60008301846135a9565b92915050565b60008060008060008060006080888a0312156135f2576135f16130b4565b5b60006136008a828b016130df565b975050602088013567ffffffffffffffff811115613621576136206130b9565b5b61362d8a828b01613103565b9650965050604088013567ffffffffffffffff8111156136505761364f6130b9565b5b61365c8a828b01613103565b9450945050606088013567ffffffffffffffff81111561367f5761367e6130b9565b5b61368b8a828b01613159565b925092505092959891949750929550565b6000602082840312156136b2576136b16130b4565b5b600082013567ffffffffffffffff8111156136d0576136cf6130b9565b5b6136dc84828501613492565b91505092915050565b6136ee816134c0565b82525050565b600060208201905061370960008301846136e5565b92915050565b60008060008060008060006080888a03121561372e5761372d6130b4565b5b600088013567ffffffffffffffff81111561374c5761374b6130b9565b5b6137588a828b01613103565b9750975050602088013567ffffffffffffffff81111561377b5761377a6130b9565b5b6137878a828b01613103565b9550955050604088013567ffffffffffffffff8111156137aa576137a96130b9565b5b6137b68a828b01613159565b935093505060606137c98a828b01613513565b91505092959891949750929550565b600067ffffffffffffffff8211156137f3576137f2613395565b5b6137fc82613384565b9050602081019050919050565b600061381c613817846137d8565b6133f5565b9050828152602081018484840111156138385761383761337f565b5b613843848285613441565b509392505050565b600082601f8301126138605761385f6130f4565b5b8135613870848260208601613809565b91505092915050565b600061ffff82169050919050565b61389081613879565b811461389b57600080fd5b50565b6000813590506138ad81613887565b92915050565b60008060008060008060c087890312156138d0576138cf6130b4565b5b600087013567ffffffffffffffff8111156138ee576138ed6130b9565b5b6138fa89828a01613492565b965050602061390b89828a016131d0565b955050604087013567ffffffffffffffff81111561392c5761392b6130b9565b5b61393889828a0161384b565b945050606061394989828a016130df565b935050608061395a89828a01613513565b92505060a061396b89828a0161389e565b9150509295509295509295565b60008060008060008060c08789031215613995576139946130b4565b5b600087013567ffffffffffffffff8111156139b3576139b26130b9565b5b6139bf89828a01613492565b965050602087013567ffffffffffffffff8111156139e0576139df6130b9565b5b6139ec89828a0161384b565b955050604087013567ffffffffffffffff811115613a0d57613a0c6130b9565b5b613a1989828a0161384b565b9450506060613a2a89828a016130df565b9350506080613a3b89828a01613513565b92505060a0613a4c89828a0161389e565b9150509295509295509295565b60008060008060008060008060008060c08b8d031215613a7c57613a7b6130b4565b5b60008b013567ffffffffffffffff811115613a9a57613a996130b9565b5b613aa68d828e01613103565b9a509a505060208b013567ffffffffffffffff811115613ac957613ac86130b9565b5b613ad58d828e01613103565b985098505060408b013567ffffffffffffffff811115613af857613af76130b9565b5b613b048d828e01613159565b965096505060608b013567ffffffffffffffff811115613b2757613b266130b9565b5b613b338d828e01613103565b94509450506080613b468d828e016131d0565b92505060a0613b578d828e01613513565b9150509295989b9194979a5092959850565b600060208284031215613b7f57613b7e6130b4565b5b6000613b8d84828501613513565b91505092915050565b600081905092915050565b6000613bad8385613b96565b9350613bba838584613441565b82840190509392505050565b6000613bd3828486613ba1565b91508190509392505050565b613be8816130be565b82525050565b600082825260208201905092915050565b6000613c0b8385613bee565b9350613c18838584613441565b613c2183613384565b840190509392505050565b600060c082019050613c41600083018c613bdf565b8181036020830152613c54818a8c613bff565b90508181036040830152613c6981888a613bff565b9050613c786060830187613bdf565b8181036080830152613c8b818587613bff565b9050613c9a60a0830184613355565b9a9950505050505050505050565b60008115159050919050565b613cbd81613ca8565b8114613cc857600080fd5b50565b600081519050613cda81613cb4565b92915050565b600060208284031215613cf657613cf56130b4565b5b6000613d0484828501613ccb565b91505092915050565b600082825260208201905092915050565b6000613d2a8385613d0d565b9350613d37838584613441565b613d4083613384565b840190509392505050565b600060a0820190508181036000830152613d66818b8d613bff565b90508181036020830152613d7b81898b613bff565b90508181036040830152613d90818789613d1e565b90508181036060830152613da5818587613bff565b9050613db46080830184613355565b9a9950505050505050505050565b60006020820190508181036000830152613ddd818486613bff565b90509392505050565b600081519050613df5816134fc565b92915050565b600060208284031215613e1157613e106130b4565b5b6000613e1f84828501613de6565b91505092915050565b600081519050919050565b600081905092915050565b60005b83811015613e5c578082015181840152602081019050613e41565b83811115613e6b576000848401525b50505050565b6000613e7c82613e28565b613e868185613e33565b9350613e96818560208601613e3e565b80840191505092915050565b6000613eae8284613e71565b915081905092915050565b6000608082019050613ece6000830189613bdf565b8181036020830152613ee1818789613bff565b90508181036040830152613ef6818587613bff565b9050613f056060830184613bdf565b979650505050505050565b60006060820190508181036000830152613f2b81888a613bff565b90508181036020830152613f40818688613bff565b90508181036040830152613f55818486613d1e565b9050979650505050505050565b7f436972636c655377617045786563757461626c653a20696e76616c696420646560008201527f7374696e6174696f6e20636861696e0000000000000000000000000000000000602082015250565b6000613fbe602f83613bee565b9150613fc982613f62565b604082019050919050565b60006020820190508181036000830152613fed81613fb1565b9050919050565b60006060820190506140096000830186613080565b6140166020830185613080565b6140236040830184613355565b949350505050565b600061403682613e28565b6140408185613bee565b9350614050818560208601613e3e565b61405981613384565b840191505092915050565b6000602082019050818103600083015261407e818461402b565b905092915050565b600081519050614095816134d0565b92915050565b6000602082840312156140b1576140b06130b4565b5b60006140bf84828501614086565b91505092915050565b60006080820190506140dd6000830187613355565b6140ea60208301866136e5565b6140f76040830185613bdf565b6141046060830184613080565b95945050505050565b7f4445504f5349545f4641494c4544000000000000000000000000000000000000600082015250565b6000614143600e83613bee565b915061414e8261410d565b602082019050919050565b6000602082019050818103600083015261417281614136565b9050919050565b7f4255524e5f4641494c4544000000000000000000000000000000000000000000600082015250565b60006141af600b83613bee565b91506141ba82614179565b602082019050919050565b600060208201905081810360008301526141de816141a2565b9050919050565b7f4e487b7100000000000000000000000000000000000000000000000000000000600052601160045260246000fd5b600061421f826131af565b915061422a836131af565b92508282101561423d5761423c6141e5565b5b828203905092915050565b7f4f776e61626c653a206e6577206f776e657220697320746865207a65726f206160008201527f6464726573730000000000000000000000000000000000000000000000000000602082015250565b60006142a4602683613bee565b91506142af82614248565b604082019050919050565b600060208201905081810360008301526142d381614297565b9050919050565b60006040820190506142ef6000830185613080565b6142fc6020830184613355565b9392505050565b600081519050919050565b600061431982614303565b6143238185613b96565b9350614333818560208601613e3e565b80840191505092915050565b600061434b828461430e565b915081905092915050565b7f4f776e61626c653a2063616c6c6572206973206e6f7420746865206f776e6572600082015250565b600061438c602083613bee565b915061439782614356565b602082019050919050565b600060208201905081810360008301526143bb8161437f565b9050919050565b60006143cd82612f98565b9050919050565b6143dd816143c2565b81146143e857600080fd5b50565b6000813590506143fa816143d4565b92915050565b600080600080600060a0868803121561441c5761441b6130b4565b5b600086013567ffffffffffffffff81111561443a576144396130b9565b5b6144468882890161384b565b9550506020614457888289016131d0565b9450506040614468888289016130df565b9350506060614479888289016143eb565b925050608061448a8882890161389e565b9150509295509295909350565b60006144a282614303565b6144ac8185613d0d565b93506144bc818560208601613e3e565b6144c581613384565b840191505092915050565b6144d981613879565b82525050565b600060a08201905081810360008301526144f98188614497565b90506145086020830187613355565b6145156040830186613bdf565b6145226060830185613080565b61452f60808301846144d0565b9695505050505050565b600060a08201905061454e6000830188613080565b8181036020830152614560818761402b565b90508181036040830152614574818661402b565b905081810360608301526145888185614497565b90506145976080830184613080565b9695505050505050565b600060608201905081810360008301526145bb818661402b565b905081810360208301526145cf818561402b565b905081810360408301526145e38184614497565b9050949350505050565b60006060820190506146026000830186613355565b8181036020830152614614818561402b565b905081810360408301526146288184614497565b9050949350505050565b7f54524144455f4641494c45440000000000000000000000000000000000000000600082015250565b6000614668600c83613bee565b915061467382614632565b602082019050919050565b600060208201905081810360008301526146978161465b565b9050919050565b6000815190506146ad816143d4565b92915050565b6000602082840312156146c9576146c86130b4565b5b60006146d78482850161469e565b91505092915050565b60006040820190506146f56000830185613355565b81810360208301526147078184614497565b90509392505050565b60008160601b9050919050565b600061472882614710565b9050919050565b600061473a8261471d565b9050919050565b61475261474d8261306e565b61472f565b82525050565b60006147648284614741565b60148201915081905092915050565b600061477e826131af565b9150614789836131af565b9250817fffffffffffffffffffffffffffffffffffffffffffffffffffffffffffffffff04831182151516156147c2576147c16141e5565b5b828202905092915050565b60006147d8826131af565b91506147e3836131af565b9250827fffffffffffffffffffffffffffffffffffffffffffffffffffffffffffffffff03821115614818576148176141e5565b5b828201905092915050565b7f4e487b7100000000000000000000000000000000000000000000000000000000600052603260045260246000fd5b600061485d826131af565b91507fffffffffffffffffffffffffffffffffffffffffffffffffffffffffffffffff8214156148905761488f6141e5565b5b600182019050919050565b6000815190506148aa816131b9565b92915050565b6000602082840312156148c6576148c56130b4565b5b60006148d48482850161489b565b91505092915050565b60006148f06148eb846137d8565b6133f5565b90508281526020810184848401111561490c5761490b61337f565b5b614917848285613e3e565b509392505050565b600082601f830112614934576149336130f4565b5b81516149448482602086016148dd565b91505092915050565b60008060008060808587031215614967576149666130b4565b5b60006149758782880161469e565b94505060206149868782880161489b565b93505060406149978782880161469e565b925050606085015167ffffffffffffffff8111156149b8576149b76130b9565b5b6149c48782880161491f565b91505092959194509250565b60006040820190506149e56000830185613355565b6149f26020830184613080565b9392505050565b7f5361666545524332303a204552433230206f7065726174696f6e20646964206e60008201527f6f74207375636365656400000000000000000000000000000000000000000000602082015250565b6000614a55602a83613bee565b9150614a60826149f9565b604082019050919050565b60006020820190508181036000830152614a8481614a48565b9050919050565b7f416464726573733a20696e73756666696369656e742062616c616e636520666f60008201527f722063616c6c0000000000000000000000000000000000000000000000000000602082015250565b6000614ae7602683613bee565b9150614af282614a8b565b604082019050919050565b60006020820190508181036000830152614b1681614ada565b9050919050565b7f416464726573733a2063616c6c20746f206e6f6e2d636f6e7472616374000000600082015250565b6000614b53601d83613bee565b9150614b5e82614b1d565b602082019050919050565b60006020820190508181036000830152614b8281614b46565b905091905056fea264697066735822122088c036941911f42ecbcdb1ceffa7a35b2841f13581e719eea37fe4ab4e2091c164736f6c63430008090033",
  "devdoc": {
    "kind": "dev",
    "methods": {
      "owner()": {
        "details": "Returns the address of the current owner."
      },
      "renounceOwnership()": {
        "details": "Leaves the contract without owner. It will not be possible to call `onlyOwner` functions anymore. Can only be called by the current owner. NOTE: Renouncing ownership will leave the contract without an owner, thereby removing any functionality that is only available to the owner."
      },
      "transferOwnership(address)": {
        "details": "Transfers ownership of the contract to a new account (`newOwner`). Can only be called by the current owner."
      }
    },
    "version": 1
  },
  "userdoc": {
    "kind": "user",
    "methods": {},
    "version": 1
  },
  "storageLayout": {
    "storage": [
      {
        "astId": 14,
        "contract": "contracts/CircleSwapExecutable.sol:CircleSwapExecutable",
        "label": "gateway",
        "offset": 0,
        "slot": "0",
        "type": "t_contract(IAxelarGateway)1097"
      },
      {
        "astId": 18,
        "contract": "contracts/CircleSwapExecutable.sol:CircleSwapExecutable",
        "label": "forecallers",
        "offset": 0,
        "slot": "1",
        "type": "t_mapping(t_bytes32,t_address)"
      },
      {
        "astId": 1630,
        "contract": "contracts/CircleSwapExecutable.sol:CircleSwapExecutable",
        "label": "_owner",
        "offset": 0,
        "slot": "2",
        "type": "t_address"
      },
      {
        "astId": 3562,
        "contract": "contracts/CircleSwapExecutable.sol:CircleSwapExecutable",
        "label": "usdc",
        "offset": 0,
        "slot": "3",
        "type": "t_contract(USDC)5316"
      },
      {
        "astId": 3564,
        "contract": "contracts/CircleSwapExecutable.sol:CircleSwapExecutable",
        "label": "wrappedNativeToken",
        "offset": 0,
        "slot": "4",
        "type": "t_address"
      },
      {
        "astId": 3567,
        "contract": "contracts/CircleSwapExecutable.sol:CircleSwapExecutable",
        "label": "circleBridge",
        "offset": 0,
        "slot": "5",
        "type": "t_contract(CircleBridge)3501"
      },
      {
        "astId": 3571,
        "contract": "contracts/CircleSwapExecutable.sol:CircleSwapExecutable",
        "label": "siblings",
        "offset": 0,
        "slot": "6",
        "type": "t_mapping(t_string_memory_ptr,t_address)"
      },
      {
        "astId": 3575,
        "contract": "contracts/CircleSwapExecutable.sol:CircleSwapExecutable",
        "label": "destinationDomains",
        "offset": 0,
        "slot": "7",
        "type": "t_mapping(t_string_memory_ptr,t_uint32)"
      }
    ],
    "types": {
      "t_address": {
        "encoding": "inplace",
        "label": "address",
        "numberOfBytes": "20"
      },
      "t_bytes32": {
        "encoding": "inplace",
        "label": "bytes32",
        "numberOfBytes": "32"
      },
      "t_contract(CircleBridge)3501": {
        "encoding": "inplace",
        "label": "contract CircleBridge",
        "numberOfBytes": "20"
      },
      "t_contract(IAxelarGateway)1097": {
        "encoding": "inplace",
        "label": "contract IAxelarGateway",
        "numberOfBytes": "20"
      },
      "t_contract(USDC)5316": {
        "encoding": "inplace",
        "label": "contract USDC",
        "numberOfBytes": "20"
      },
      "t_mapping(t_bytes32,t_address)": {
        "encoding": "mapping",
        "key": "t_bytes32",
        "label": "mapping(bytes32 => address)",
        "numberOfBytes": "32",
        "value": "t_address"
      },
      "t_mapping(t_string_memory_ptr,t_address)": {
        "encoding": "mapping",
        "key": "t_string_memory_ptr",
        "label": "mapping(string => address)",
        "numberOfBytes": "32",
        "value": "t_address"
      },
      "t_mapping(t_string_memory_ptr,t_uint32)": {
        "encoding": "mapping",
        "key": "t_string_memory_ptr",
        "label": "mapping(string => uint32)",
        "numberOfBytes": "32",
        "value": "t_uint32"
      },
      "t_string_memory_ptr": {
        "encoding": "bytes",
        "label": "string",
        "numberOfBytes": "32"
      },
      "t_uint32": {
        "encoding": "inplace",
        "label": "uint32",
        "numberOfBytes": "4"
      }
    }
  }
}