{
  "address": "0x56766Ac03a2Ed19a302D11F22D6da20FF0bF6695",
  "abi": [
    {
      "inputs": [
        {
          "internalType": "address",
          "name": "_usdc",
          "type": "address"
        },
        {
          "internalType": "uint32",
          "name": "_sourceDomain",
          "type": "uint32"
        }
      ],
      "stateMutability": "nonpayable",
      "type": "constructor"
    },
    {
      "anonymous": false,
      "inputs": [
        {
          "indexed": false,
          "internalType": "address",
          "name": "depositor",
          "type": "address"
        },
        {
          "indexed": false,
          "internalType": "address",
          "name": "burnToken",
          "type": "address"
        },
        {
          "indexed": false,
          "internalType": "uint256",
          "name": "amount",
          "type": "uint256"
        },
        {
          "indexed": false,
          "internalType": "bytes32",
          "name": "mintRecipient",
          "type": "bytes32"
        },
        {
          "indexed": false,
          "internalType": "uint32",
          "name": "destinationDomain",
          "type": "uint32"
        },
        {
          "indexed": false,
          "internalType": "bytes32",
          "name": "destinationCircleBridge",
          "type": "bytes32"
        }
      ],
      "name": "DepositForBurn",
      "type": "event"
    },
    {
      "anonymous": false,
      "inputs": [
        {
          "indexed": false,
          "internalType": "bytes",
          "name": "message",
          "type": "bytes"
        }
      ],
      "name": "MessageSent",
      "type": "event"
    },
    {
      "anonymous": false,
      "inputs": [
        {
          "indexed": true,
          "internalType": "address",
          "name": "previousOwner",
          "type": "address"
        },
        {
          "indexed": true,
          "internalType": "address",
          "name": "newOwner",
          "type": "address"
        }
      ],
      "name": "OwnershipTransferred",
      "type": "event"
    },
    {
      "inputs": [
        {
          "internalType": "uint32",
          "name": "_domain",
          "type": "uint32"
        },
        {
          "internalType": "bytes32",
          "name": "_circleBridge",
          "type": "bytes32"
        }
      ],
      "name": "addCircleBridgeSibling",
      "outputs": [],
      "stateMutability": "nonpayable",
      "type": "function"
    },
    {
      "inputs": [
        {
          "internalType": "uint32",
          "name": "",
          "type": "uint32"
        }
      ],
      "name": "circleBridgeSiblings",
      "outputs": [
        {
          "internalType": "bytes32",
          "name": "",
          "type": "bytes32"
        }
      ],
      "stateMutability": "view",
      "type": "function"
    },
    {
      "inputs": [
        {
          "internalType": "uint256",
          "name": "_amount",
          "type": "uint256"
        },
        {
          "internalType": "uint32",
          "name": "_destinationDomain",
          "type": "uint32"
        },
        {
          "internalType": "bytes32",
          "name": "_mintRecipient",
          "type": "bytes32"
        },
        {
          "internalType": "address",
          "name": "_burnToken",
          "type": "address"
        }
      ],
      "name": "depositForBurn",
      "outputs": [
        {
          "internalType": "bool",
          "name": "success",
          "type": "bool"
        }
      ],
      "stateMutability": "nonpayable",
      "type": "function"
    },
    {
      "inputs": [],
      "name": "owner",
      "outputs": [
        {
          "internalType": "address",
          "name": "",
          "type": "address"
        }
      ],
      "stateMutability": "view",
      "type": "function"
    },
    {
      "inputs": [],
      "name": "renounceOwnership",
      "outputs": [],
      "stateMutability": "nonpayable",
      "type": "function"
    },
    {
      "inputs": [
        {
          "internalType": "address",
          "name": "newOwner",
          "type": "address"
        }
      ],
      "name": "transferOwnership",
      "outputs": [],
      "stateMutability": "nonpayable",
      "type": "function"
    }
  ],
  "transactionHash": "0x1fd119e52aef74fe2dca19f03d128e0af3e31104e6a94f72607adb50ef2e1d12",
  "args": [
    "0xE5055679b3952AEfeB7069672a26B8CE7AD8fcb6",
    1287
  ],
  "numDeployments": 1,
  "solcInputHash": "73beb236cad03473207f959749704d35",
  "bytecode": "0x60806040526000600260046101000a81548167ffffffffffffffff021916908367ffffffffffffffff1602179055503480156200003b57600080fd5b5060405162000e6438038062000e64833981810160405281019062000061919062000262565b6200008162000075620000eb60201b60201c565b620000f360201b60201c565b816002600c6101000a81548173ffffffffffffffffffffffffffffffffffffffff021916908373ffffffffffffffffffffffffffffffffffffffff16021790555080600260006101000a81548163ffffffff021916908363ffffffff1602179055505050620002a9565b600033905090565b60008060009054906101000a900473ffffffffffffffffffffffffffffffffffffffff169050816000806101000a81548173ffffffffffffffffffffffffffffffffffffffff021916908373ffffffffffffffffffffffffffffffffffffffff1602179055508173ffffffffffffffffffffffffffffffffffffffff168173ffffffffffffffffffffffffffffffffffffffff167f8be0079c531659141344cd1fd0a4f28419497f9722a3daafe3b4186f6b6457e060405160405180910390a35050565b600080fd5b600073ffffffffffffffffffffffffffffffffffffffff82169050919050565b6000620001e982620001bc565b9050919050565b620001fb81620001dc565b81146200020757600080fd5b50565b6000815190506200021b81620001f0565b92915050565b600063ffffffff82169050919050565b6200023c8162000221565b81146200024857600080fd5b50565b6000815190506200025c8162000231565b92915050565b600080604083850312156200027c576200027b620001b7565b5b60006200028c858286016200020a565b92505060206200029f858286016200024b565b9150509250929050565b610bab80620002b96000396000f3fe608060405234801561001057600080fd5b50600436106100625760003560e01c80636a21c7ae146100675780636fd3504e14610097578063715018a6146100c75780638da5cb5b146100d1578063acaea778146100ef578063f2fde38b1461010b575b600080fd5b610081600480360381019061007c91906105b6565b610127565b60405161008e91906105fc565b60405180910390f35b6100b160048036038101906100ac91906106d7565b61013f565b6040516100be9190610759565b60405180910390f35b6100cf61033a565b005b6100d961034e565b6040516100e69190610783565b60405180910390f35b6101096004803603810190610104919061079e565b610377565b005b610125600480360381019061012091906107de565b6103a7565b005b60016020528060005260406000206000915090505481565b60006002600c9054906101000a900473ffffffffffffffffffffffffffffffffffffffff1673ffffffffffffffffffffffffffffffffffffffff16639dc29fac33876040518363ffffffff1660e01b815260040161019e92919061081a565b600060405180830381600087803b1580156101b857600080fd5b505af11580156101cc573d6000803e3d6000fd5b50505050600085846040516020016101e5929190610843565b60405160208183030381529060405290506000600260009054906101000a900463ffffffff16600260049054906101000a900467ffffffffffffffff1633846040516020016102379493929190610937565b60405160208183030381529060405290506002600481819054906101000a900467ffffffffffffffff168092919061026e906109b2565b91906101000a81548167ffffffffffffffff021916908367ffffffffffffffff160217905550507f756052142b4160550d92041ab7b7b7f6fcd9a10a309e19712faf86229a438bfa338589888a600160008d63ffffffff1663ffffffff168152602001908152602001600020546040516102ed969594939291906109e3565b60405180910390a17f8c5261668696ce22758910d05bab8f186d6eb247ceac2af2e82c7dc17669b036816040516103249190610a44565b60405180910390a1600192505050949350505050565b61034261042b565b61034c60006104a9565b565b60008060009054906101000a900473ffffffffffffffffffffffffffffffffffffffff16905090565b61037f61042b565b80600160008463ffffffff1663ffffffff168152602001908152602001600020819055505050565b6103af61042b565b600073ffffffffffffffffffffffffffffffffffffffff168173ffffffffffffffffffffffffffffffffffffffff16141561041f576040517f08c379a000000000000000000000000000000000000000000000000000000000815260040161041690610ae9565b60405180910390fd5b610428816104a9565b50565b61043361056d565b73ffffffffffffffffffffffffffffffffffffffff1661045161034e565b73ffffffffffffffffffffffffffffffffffffffff16146104a7576040517f08c379a000000000000000000000000000000000000000000000000000000000815260040161049e90610b55565b60405180910390fd5b565b60008060009054906101000a900473ffffffffffffffffffffffffffffffffffffffff169050816000806101000a81548173ffffffffffffffffffffffffffffffffffffffff021916908373ffffffffffffffffffffffffffffffffffffffff1602179055508173ffffffffffffffffffffffffffffffffffffffff168173ffffffffffffffffffffffffffffffffffffffff167f8be0079c531659141344cd1fd0a4f28419497f9722a3daafe3b4186f6b6457e060405160405180910390a35050565b600033905090565b600080fd5b600063ffffffff82169050919050565b6105938161057a565b811461059e57600080fd5b50565b6000813590506105b08161058a565b92915050565b6000602082840312156105cc576105cb610575565b5b60006105da848285016105a1565b91505092915050565b6000819050919050565b6105f6816105e3565b82525050565b600060208201905061061160008301846105ed565b92915050565b6000819050919050565b61062a81610617565b811461063557600080fd5b50565b60008135905061064781610621565b92915050565b610656816105e3565b811461066157600080fd5b50565b6000813590506106738161064d565b92915050565b600073ffffffffffffffffffffffffffffffffffffffff82169050919050565b60006106a482610679565b9050919050565b6106b481610699565b81146106bf57600080fd5b50565b6000813590506106d1816106ab565b92915050565b600080600080608085870312156106f1576106f0610575565b5b60006106ff87828801610638565b9450506020610710878288016105a1565b935050604061072187828801610664565b9250506060610732878288016106c2565b91505092959194509250565b60008115159050919050565b6107538161073e565b82525050565b600060208201905061076e600083018461074a565b92915050565b61077d81610699565b82525050565b60006020820190506107986000830184610774565b92915050565b600080604083850312156107b5576107b4610575565b5b60006107c3858286016105a1565b92505060206107d485828601610664565b9150509250929050565b6000602082840312156107f4576107f3610575565b5b6000610802848285016106c2565b91505092915050565b61081481610617565b82525050565b600060408201905061082f6000830185610774565b61083c602083018461080b565b9392505050565b6000604082019050610858600083018561080b565b61086560208301846105ed565b9392505050565b6108758161057a565b82525050565b600067ffffffffffffffff82169050919050565b6108988161087b565b82525050565b600081519050919050565b600082825260208201905092915050565b60005b838110156108d85780820151818401526020810190506108bd565b838111156108e7576000848401525b50505050565b6000601f19601f8301169050919050565b60006109098261089e565b61091381856108a9565b93506109238185602086016108ba565b61092c816108ed565b840191505092915050565b600060808201905061094c600083018761086c565b610959602083018661088f565b6109666040830185610774565b818103606083015261097881846108fe565b905095945050505050565b7f4e487b7100000000000000000000000000000000000000000000000000000000600052601160045260246000fd5b60006109bd8261087b565b915067ffffffffffffffff8214156109d8576109d7610983565b5b600182019050919050565b600060c0820190506109f86000830189610774565b610a056020830188610774565b610a12604083018761080b565b610a1f60608301866105ed565b610a2c608083018561086c565b610a3960a08301846105ed565b979650505050505050565b60006020820190508181036000830152610a5e81846108fe565b905092915050565b600082825260208201905092915050565b7f4f776e61626c653a206e6577206f776e657220697320746865207a65726f206160008201527f6464726573730000000000000000000000000000000000000000000000000000602082015250565b6000610ad3602683610a66565b9150610ade82610a77565b604082019050919050565b60006020820190508181036000830152610b0281610ac6565b9050919050565b7f4f776e61626c653a2063616c6c6572206973206e6f7420746865206f776e6572600082015250565b6000610b3f602083610a66565b9150610b4a82610b09565b602082019050919050565b60006020820190508181036000830152610b6e81610b32565b905091905056fea26469706673582212203718f1359d6329942ea36f74771322cb35fb35b6ae7d8a53ff7cf7b1ec323b0164736f6c63430008090033",
  "devdoc": {
    "events": {
      "DepositForBurn(address,address,uint256,bytes32,uint32,bytes32)": {
        "params": {
          "amount": "deposit amount",
          "burnToken": "address of token burnt on local domain",
          "depositor": "address where deposit is transferred from",
          "destinationCircleBridge": "address of CircleBridge on destination domain as bytes32",
          "destinationDomain": "destination domain",
          "mintRecipient": "address receiving minted tokens on destination domain as bytes32"
        }
      },
      "MessageSent(bytes)": {
        "params": {
          "message": "Raw bytes of message"
        }
      }
    },
    "kind": "dev",
    "methods": {
      "addCircleBridgeSibling(uint32,bytes32)": {
        "params": {
          "_circleBridge": "address of CircleBridge on destination domain",
          "_domain": "destination domain"
        }
      },
      "depositForBurn(uint256,uint32,bytes32,address)": {
        "params": {
          "_amount": "amount of tokens to burn",
          "_burnToken": "address of contract to burn deposited tokens, on local domain",
          "_destinationDomain": "destination domain",
          "_mintRecipient": "address of mint recipient on destination domain"
        },
        "returns": {
          "success": "bool, true if successful"
        }
      },
      "owner()": {
        "details": "Returns the address of the current owner."
      },
      "renounceOwnership()": {
        "details": "Leaves the contract without owner. It will not be possible to call `onlyOwner` functions anymore. Can only be called by the current owner. NOTE: Renouncing ownership will leave the contract without an owner, thereby removing any functionality that is only available to the owner."
      },
      "transferOwnership(address)": {
        "details": "Transfers ownership of the contract to a new account (`newOwner`). Can only be called by the current owner."
      }
    },
    "version": 1
  },
  "userdoc": {
    "events": {
      "DepositForBurn(address,address,uint256,bytes32,uint32,bytes32)": {
        "notice": "Emitted when a deposit for burn is received on local domain"
      },
      "MessageSent(bytes)": {
        "notice": "Emitted when a new message is dispatched"
      }
    },
    "kind": "user",
    "methods": {},
    "version": 1
  },
  "storageLayout": {
    "storage": [
      {
        "astId": 400,
        "contract": "contracts/CircleBridge.sol:CircleBridge",
        "label": "_owner",
        "offset": 0,
        "slot": "0",
        "type": "t_address"
      },
      {
        "astId": 1532,
        "contract": "contracts/CircleBridge.sol:CircleBridge",
        "label": "circleBridgeSiblings",
        "offset": 0,
        "slot": "1",
        "type": "t_mapping(t_uint32,t_bytes32)"
      },
      {
        "astId": 1534,
        "contract": "contracts/CircleBridge.sol:CircleBridge",
        "label": "sourceDomain",
        "offset": 0,
        "slot": "2",
        "type": "t_uint32"
      },
      {
        "astId": 1537,
        "contract": "contracts/CircleBridge.sol:CircleBridge",
        "label": "nonce",
        "offset": 4,
        "slot": "2",
        "type": "t_uint64"
      },
      {
        "astId": 1540,
        "contract": "contracts/CircleBridge.sol:CircleBridge",
        "label": "usdc",
        "offset": 12,
        "slot": "2",
        "type": "t_contract(USDC)2444"
      }
    ],
    "types": {
      "t_address": {
        "encoding": "inplace",
        "label": "address",
        "numberOfBytes": "20"
      },
      "t_bytes32": {
        "encoding": "inplace",
        "label": "bytes32",
        "numberOfBytes": "32"
      },
      "t_contract(USDC)2444": {
        "encoding": "inplace",
        "label": "contract USDC",
        "numberOfBytes": "20"
      },
      "t_mapping(t_uint32,t_bytes32)": {
        "encoding": "mapping",
        "key": "t_uint32",
        "label": "mapping(uint32 => bytes32)",
        "numberOfBytes": "32",
        "value": "t_bytes32"
      },
      "t_uint32": {
        "encoding": "inplace",
        "label": "uint32",
        "numberOfBytes": "4"
      },
      "t_uint64": {
        "encoding": "inplace",
        "label": "uint64",
        "numberOfBytes": "8"
      }
    }
  }
}