{
  "address": "0x45600eC9d7dA05050699d4B98d35EcfA886c9e67",
  "abi": [
    {
      "inputs": [
        {
          "internalType": "address",
          "name": "_usdc",
          "type": "address"
        }
      ],
      "stateMutability": "nonpayable",
      "type": "constructor"
    },
    {
      "anonymous": false,
      "inputs": [
        {
          "indexed": false,
          "internalType": "uint32",
          "name": "sourceDomain",
          "type": "uint32"
        },
        {
          "indexed": false,
          "internalType": "uint64",
          "name": "nonce",
          "type": "uint64"
        },
        {
          "indexed": false,
          "internalType": "bytes32",
          "name": "sender",
          "type": "bytes32"
        },
        {
          "indexed": false,
          "internalType": "bytes",
          "name": "messageBody",
          "type": "bytes"
        }
      ],
      "name": "MessageReceived",
      "type": "event"
    },
    {
      "anonymous": false,
      "inputs": [
        {
          "indexed": true,
          "internalType": "address",
          "name": "previousOwner",
          "type": "address"
        },
        {
          "indexed": true,
          "internalType": "address",
          "name": "newOwner",
          "type": "address"
        }
      ],
      "name": "OwnershipTransferred",
      "type": "event"
    },
    {
      "inputs": [
        {
          "internalType": "bytes32",
          "name": "",
          "type": "bytes32"
        }
      ],
      "name": "messages",
      "outputs": [
        {
          "internalType": "uint8",
          "name": "",
          "type": "uint8"
        }
      ],
      "stateMutability": "view",
      "type": "function"
    },
    {
      "inputs": [],
      "name": "owner",
      "outputs": [
        {
          "internalType": "address",
          "name": "",
          "type": "address"
        }
      ],
      "stateMutability": "view",
      "type": "function"
    },
    {
      "inputs": [
        {
          "internalType": "bytes",
          "name": "_message",
          "type": "bytes"
        },
        {
          "internalType": "bytes",
          "name": "_signature",
          "type": "bytes"
        }
      ],
      "name": "receiveMessage",
      "outputs": [
        {
          "internalType": "bool",
          "name": "success",
          "type": "bool"
        }
      ],
      "stateMutability": "nonpayable",
      "type": "function"
    },
    {
      "inputs": [],
      "name": "renounceOwnership",
      "outputs": [],
      "stateMutability": "nonpayable",
      "type": "function"
    },
    {
      "inputs": [
        {
          "internalType": "bytes32",
          "name": "messageHash",
          "type": "bytes32"
        },
        {
          "internalType": "bytes",
          "name": "signature",
          "type": "bytes"
        }
      ],
      "name": "setMessage",
      "outputs": [],
      "stateMutability": "nonpayable",
      "type": "function"
    },
    {
      "inputs": [
        {
          "internalType": "address",
          "name": "newOwner",
          "type": "address"
        }
      ],
      "name": "transferOwnership",
      "outputs": [],
      "stateMutability": "nonpayable",
      "type": "function"
    }
  ],
  "transactionHash": "0x2451f9c48b06f3c945a7e6502562435a9f1259ca2f5fc88e5b2d7379e9743ed9",
  "args": [
    "0xE5055679b3952AEfeB7069672a26B8CE7AD8fcb6"
  ],
  "numDeployments": 1,
  "solcInputHash": "1d08c334c2f03a79ab7ff2f1c9476848",
  "bytecode": "0x608060405260018060146101000a81548160ff021916908360ff1602179055506002600160156101000a81548160ff021916908360ff1602179055503480156200004857600080fd5b50604051620011603803806200116083398181016040528101906200006e91906200020c565b6200008e62000082620000d660201b60201c565b620000de60201b60201c565b80600160006101000a81548173ffffffffffffffffffffffffffffffffffffffff021916908373ffffffffffffffffffffffffffffffffffffffff160217905550506200023e565b600033905090565b60008060009054906101000a900473ffffffffffffffffffffffffffffffffffffffff169050816000806101000a81548173ffffffffffffffffffffffffffffffffffffffff021916908373ffffffffffffffffffffffffffffffffffffffff1602179055508173ffffffffffffffffffffffffffffffffffffffff168173ffffffffffffffffffffffffffffffffffffffff167f8be0079c531659141344cd1fd0a4f28419497f9722a3daafe3b4186f6b6457e060405160405180910390a35050565b600080fd5b600073ffffffffffffffffffffffffffffffffffffffff82169050919050565b6000620001d482620001a7565b9050919050565b620001e681620001c7565b8114620001f257600080fd5b50565b6000815190506200020681620001db565b92915050565b600060208284031215620002255762000224620001a2565b5b60006200023584828501620001f5565b91505092915050565b610f12806200024e6000396000f3fe608060405234801561001057600080fd5b50600436106100625760003560e01c80632bbd59ca1461006757806357ecfd2814610097578063715018a6146100c75780638da5cb5b146100d1578063e743153d146100ef578063f2fde38b1461010b575b600080fd5b610081600480360381019061007c919061061a565b610127565b60405161008e9190610663565b60405180910390f35b6100b160048036038101906100ac91906107c4565b610147565b6040516100be9190610857565b60405180910390f35b6100cf610350565b005b6100d9610364565b6040516100e691906108b3565b60405180910390f35b610109600480360381019061010491906108ce565b61038d565b005b61012560048036038101906101209190610956565b610402565b005b60026020528060005260406000206000915054906101000a900460ff1681565b600082826000828051906020012082604051602001610167929190610a1e565b604051602081830303815290604052805190602001209050600160149054906101000a900460ff1660ff166002600083815260200190815260200160002060009054906101000a900460ff1660ff16146101f6576040517f08c379a00000000000000000000000000000000000000000000000000000000081526004016101ed90610ac9565b60405180910390fd5b600160159054906101000a900460ff166002600083815260200190815260200160002060006101000a81548160ff021916908360ff1602179055506000806000808980602001905181019061024b9190610bea565b93509350935093506000808280602001905181019061026a9190610ca3565b91509150600160009054906101000a900473ffffffffffffffffffffffffffffffffffffffff1673ffffffffffffffffffffffffffffffffffffffff166340c10f198260001c846040518363ffffffff1660e01b81526004016102ce929190610cf2565b600060405180830381600087803b1580156102e857600080fd5b505af11580156102fc573d6000803e3d6000fd5b505050507fddc6333fecd1704343a03d264ee28f3d0acdd453c26428a1dacc9f2768d29ace868686866040516103359493929190610d92565b60405180910390a16001995050505050505050505092915050565b610358610486565b6103626000610504565b565b60008060009054906101000a900473ffffffffffffffffffffffffffffffffffffffff16905090565b610395610486565b600082826040516020016103aa929190610a1e565b604051602081830303815290604052805190602001209050600160149054906101000a900460ff166002600083815260200190815260200160002060006101000a81548160ff021916908360ff160217905550505050565b61040a610486565b600073ffffffffffffffffffffffffffffffffffffffff168173ffffffffffffffffffffffffffffffffffffffff16141561047a576040517f08c379a000000000000000000000000000000000000000000000000000000000815260040161047190610e50565b60405180910390fd5b61048381610504565b50565b61048e6105c8565b73ffffffffffffffffffffffffffffffffffffffff166104ac610364565b73ffffffffffffffffffffffffffffffffffffffff1614610502576040517f08c379a00000000000000000000000000000000000000000000000000000000081526004016104f990610ebc565b60405180910390fd5b565b60008060009054906101000a900473ffffffffffffffffffffffffffffffffffffffff169050816000806101000a81548173ffffffffffffffffffffffffffffffffffffffff021916908373ffffffffffffffffffffffffffffffffffffffff1602179055508173ffffffffffffffffffffffffffffffffffffffff168173ffffffffffffffffffffffffffffffffffffffff167f8be0079c531659141344cd1fd0a4f28419497f9722a3daafe3b4186f6b6457e060405160405180910390a35050565b600033905090565b6000604051905090565b600080fd5b600080fd5b6000819050919050565b6105f7816105e4565b811461060257600080fd5b50565b600081359050610614816105ee565b92915050565b6000602082840312156106305761062f6105da565b5b600061063e84828501610605565b91505092915050565b600060ff82169050919050565b61065d81610647565b82525050565b60006020820190506106786000830184610654565b92915050565b600080fd5b600080fd5b6000601f19601f8301169050919050565b7f4e487b7100000000000000000000000000000000000000000000000000000000600052604160045260246000fd5b6106d182610688565b810181811067ffffffffffffffff821117156106f0576106ef610699565b5b80604052505050565b60006107036105d0565b905061070f82826106c8565b919050565b600067ffffffffffffffff82111561072f5761072e610699565b5b61073882610688565b9050602081019050919050565b82818337600083830152505050565b600061076761076284610714565b6106f9565b90508281526020810184848401111561078357610782610683565b5b61078e848285610745565b509392505050565b600082601f8301126107ab576107aa61067e565b5b81356107bb848260208601610754565b91505092915050565b600080604083850312156107db576107da6105da565b5b600083013567ffffffffffffffff8111156107f9576107f86105df565b5b61080585828601610796565b925050602083013567ffffffffffffffff811115610826576108256105df565b5b61083285828601610796565b9150509250929050565b60008115159050919050565b6108518161083c565b82525050565b600060208201905061086c6000830184610848565b92915050565b600073ffffffffffffffffffffffffffffffffffffffff82169050919050565b600061089d82610872565b9050919050565b6108ad81610892565b82525050565b60006020820190506108c860008301846108a4565b92915050565b600080604083850312156108e5576108e46105da565b5b60006108f385828601610605565b925050602083013567ffffffffffffffff811115610914576109136105df565b5b61092085828601610796565b9150509250929050565b61093381610892565b811461093e57600080fd5b50565b6000813590506109508161092a565b92915050565b60006020828403121561096c5761096b6105da565b5b600061097a84828501610941565b91505092915050565b6000819050919050565b61099e610999826105e4565b610983565b82525050565b600081519050919050565b600081905092915050565b60005b838110156109d85780820151818401526020810190506109bd565b838111156109e7576000848401525b50505050565b60006109f8826109a4565b610a0281856109af565b9350610a128185602086016109ba565b80840191505092915050565b6000610a2a828561098d565b602082019150610a3a82846109ed565b91508190509392505050565b600082825260208201905092915050565b7f4d6573736167655472616e736d69747465723a206d65737361676520616c726560008201527f6164792070726f636573736564206f72206e6f742073656e7400000000000000602082015250565b6000610ab3603983610a46565b9150610abe82610a57565b604082019050919050565b60006020820190508181036000830152610ae281610aa6565b9050919050565b600063ffffffff82169050919050565b610b0281610ae9565b8114610b0d57600080fd5b50565b600081519050610b1f81610af9565b92915050565b600067ffffffffffffffff82169050919050565b610b4281610b25565b8114610b4d57600080fd5b50565b600081519050610b5f81610b39565b92915050565b600081519050610b74816105ee565b92915050565b6000610b8d610b8884610714565b6106f9565b905082815260208101848484011115610ba957610ba8610683565b5b610bb48482856109ba565b509392505050565b600082601f830112610bd157610bd061067e565b5b8151610be1848260208601610b7a565b91505092915050565b60008060008060808587031215610c0457610c036105da565b5b6000610c1287828801610b10565b9450506020610c2387828801610b50565b9350506040610c3487828801610b65565b925050606085015167ffffffffffffffff811115610c5557610c546105df565b5b610c6187828801610bbc565b91505092959194509250565b6000819050919050565b610c8081610c6d565b8114610c8b57600080fd5b50565b600081519050610c9d81610c77565b92915050565b60008060408385031215610cba57610cb96105da565b5b6000610cc885828601610c8e565b9250506020610cd985828601610b65565b9150509250929050565b610cec81610c6d565b82525050565b6000604082019050610d0760008301856108a4565b610d146020830184610ce3565b9392505050565b610d2481610ae9565b82525050565b610d3381610b25565b82525050565b610d42816105e4565b82525050565b600082825260208201905092915050565b6000610d64826109a4565b610d6e8185610d48565b9350610d7e8185602086016109ba565b610d8781610688565b840191505092915050565b6000608082019050610da76000830187610d1b565b610db46020830186610d2a565b610dc16040830185610d39565b8181036060830152610dd38184610d59565b905095945050505050565b7f4f776e61626c653a206e6577206f776e657220697320746865207a65726f206160008201527f6464726573730000000000000000000000000000000000000000000000000000602082015250565b6000610e3a602683610a46565b9150610e4582610dde565b604082019050919050565b60006020820190508181036000830152610e6981610e2d565b9050919050565b7f4f776e61626c653a2063616c6c6572206973206e6f7420746865206f776e6572600082015250565b6000610ea6602083610a46565b9150610eb182610e70565b602082019050919050565b60006020820190508181036000830152610ed581610e99565b905091905056fea26469706673582212200419770ed9606e60c5c9ffb31e907e3865aaf387397c4c360b95bdfb27c5f4e464736f6c63430008090033",
  "devdoc": {
    "events": {
      "MessageReceived(uint32,uint64,bytes32,bytes)": {
        "params": {
          "messageBody": "message body bytes",
          "nonce": "The nonce unique to this message",
          "sender": "The sender of this message",
          "sourceDomain": "The source domain this message originated from"
        }
      }
    },
    "kind": "dev",
    "methods": {
      "owner()": {
        "details": "Returns the address of the current owner."
      },
      "receiveMessage(bytes,bytes)": {
        "params": {
          "_message": "The message raw bytes",
          "_signature": "The message signature"
        },
        "returns": {
          "success": "bool, true if successful"
        }
      },
      "renounceOwnership()": {
        "details": "Leaves the contract without owner. It will not be possible to call `onlyOwner` functions anymore. Can only be called by the current owner. NOTE: Renouncing ownership will leave the contract without an owner, thereby removing any functionality that is only available to the owner."
      },
      "setMessage(bytes32,bytes)": {
        "params": {
          "messageHash": "Raw bytes of message",
          "signature": "Raw bytes of signature"
        }
      },
      "transferOwnership(address)": {
        "details": "Transfers ownership of the contract to a new account (`newOwner`). Can only be called by the current owner."
      }
    },
    "version": 1
  },
  "userdoc": {
    "events": {
      "MessageReceived(uint32,uint64,bytes32,bytes)": {
        "notice": "Emitted when a new message is received"
      }
    },
    "kind": "user",
    "methods": {
      "setMessage(bytes32,bytes)": {
        "notice": "This function will be called by the attestation service"
      }
    },
    "version": 1
  },
  "storageLayout": {
    "storage": [
      {
        "astId": 400,
        "contract": "contracts/MessageTransmitter.sol:MessageTransmitter",
        "label": "_owner",
        "offset": 0,
        "slot": "0",
        "type": "t_address"
      },
      {
        "astId": 2135,
        "contract": "contracts/MessageTransmitter.sol:MessageTransmitter",
        "label": "usdc",
        "offset": 0,
        "slot": "1",
        "type": "t_contract(USDC)2444"
      },
      {
        "astId": 2138,
        "contract": "contracts/MessageTransmitter.sol:MessageTransmitter",
        "label": "MESSAGE_SENT",
        "offset": 20,
        "slot": "1",
        "type": "t_uint8"
      },
      {
        "astId": 2141,
        "contract": "contracts/MessageTransmitter.sol:MessageTransmitter",
        "label": "MESSAGE_RECEIVED",
        "offset": 21,
        "slot": "1",
        "type": "t_uint8"
      },
      {
        "astId": 2145,
        "contract": "contracts/MessageTransmitter.sol:MessageTransmitter",
        "label": "messages",
        "offset": 0,
        "slot": "2",
        "type": "t_mapping(t_bytes32,t_uint8)"
      }
    ],
    "types": {
      "t_address": {
        "encoding": "inplace",
        "label": "address",
        "numberOfBytes": "20"
      },
      "t_bytes32": {
        "encoding": "inplace",
        "label": "bytes32",
        "numberOfBytes": "32"
      },
      "t_contract(USDC)2444": {
        "encoding": "inplace",
        "label": "contract USDC",
        "numberOfBytes": "20"
      },
      "t_mapping(t_bytes32,t_uint8)": {
        "encoding": "mapping",
        "key": "t_bytes32",
        "label": "mapping(bytes32 => uint8)",
        "numberOfBytes": "32",
        "value": "t_uint8"
      },
      "t_uint8": {
        "encoding": "inplace",
        "label": "uint8",
        "numberOfBytes": "1"
      }
    }
  }
}